{
  "contractName": "eventOrganisation",
  "abi": [
    {
      "inputs": [
        {
          "internalType": "uint256",
          "name": "",
          "type": "uint256"
        }
      ],
      "name": "events",
      "outputs": [
        {
          "internalType": "address",
          "name": "organiser",
          "type": "address"
        },
        {
          "internalType": "string",
          "name": "name",
          "type": "string"
        },
        {
          "internalType": "uint256",
          "name": "date",
          "type": "uint256"
        },
        {
          "internalType": "uint256",
          "name": "price",
          "type": "uint256"
        },
        {
          "internalType": "uint256",
          "name": "ticketCount",
          "type": "uint256"
        },
        {
          "internalType": "uint256",
          "name": "ticketRemain",
          "type": "uint256"
        }
      ],
      "stateMutability": "view",
      "type": "function",
      "constant": true
    },
    {
      "inputs": [],
      "name": "nextId",
      "outputs": [
        {
          "internalType": "uint256",
          "name": "",
          "type": "uint256"
        }
      ],
      "stateMutability": "view",
      "type": "function",
      "constant": true
    },
    {
      "inputs": [
        {
          "internalType": "address",
          "name": "",
          "type": "address"
        },
        {
          "internalType": "uint256",
          "name": "",
          "type": "uint256"
        }
      ],
      "name": "tickets",
      "outputs": [
        {
          "internalType": "uint256",
          "name": "",
          "type": "uint256"
        }
      ],
      "stateMutability": "view",
      "type": "function",
      "constant": true
    },
    {
      "inputs": [
        {
          "internalType": "string",
          "name": "name",
          "type": "string"
        },
        {
          "internalType": "uint256",
          "name": "date",
          "type": "uint256"
        },
        {
          "internalType": "uint256",
          "name": "price",
          "type": "uint256"
        },
        {
          "internalType": "uint256",
          "name": "ticketCount",
          "type": "uint256"
        }
      ],
      "name": "createEvent",
      "outputs": [],
      "stateMutability": "nonpayable",
      "type": "function"
    },
    {
      "inputs": [
        {
          "internalType": "uint256",
          "name": "id",
          "type": "uint256"
        },
        {
          "internalType": "uint256",
          "name": "quantity",
          "type": "uint256"
        }
      ],
      "name": "buyTicket",
      "outputs": [],
      "stateMutability": "payable",
      "type": "function",
      "payable": true
    },
    {
      "inputs": [
        {
          "internalType": "uint256",
          "name": "id",
          "type": "uint256"
        },
        {
          "internalType": "uint256",
          "name": "quantity",
          "type": "uint256"
        },
        {
          "internalType": "address",
          "name": "to",
          "type": "address"
        }
      ],
      "name": "transferTickets",
      "outputs": [],
      "stateMutability": "nonpayable",
      "type": "function"
    }
  ],
  "bytecode": "0x608060405234801561001057600080fd5b506113f0806100206000396000f3fe6080604052600436106100555760003560e01c80630374ab0b1461005a5780630b79143014610083578063298ec208146100c55780633d23eed9146100e157806361b8ce8c1461010a578063dae7a13c14610135575b600080fd5b34801561006657600080fd5b50610081600480360381019061007c919061097a565b610172565b005b34801561008f57600080fd5b506100aa60048036038101906100a591906109fd565b6102f4565b6040516100bc96959493929190610af9565b60405180910390f35b6100df60048036038101906100da9190610b61565b6103d8565b005b3480156100ed57600080fd5b5061010860048036038101906101039190610bcd565b6105bc565b005b34801561011657600080fd5b5061011f6107bf565b60405161012c9190610c20565b60405180910390f35b34801561014157600080fd5b5061015c60048036038101906101579190610c3b565b6107c5565b6040516101699190610c20565b60405180910390f35b4283116101b4576040517f08c379a00000000000000000000000000000000000000000000000000000000081526004016101ab90610ced565b60405180910390fd5b600081116101f7576040517f08c379a00000000000000000000000000000000000000000000000000000000081526004016101ee90610d7f565b60405180910390fd5b6040518060c001604052803373ffffffffffffffffffffffffffffffffffffffff16815260200185815260200184815260200183815260200182815260200182815250600080600254815260200190815260200160002060008201518160000160006101000a81548173ffffffffffffffffffffffffffffffffffffffff021916908373ffffffffffffffffffffffffffffffffffffffff16021790555060208201518160010190816102aa9190610fab565b5060408201518160020155606082015181600301556080820151816004015560a08201518160050155905050600260008154809291906102e9906110ac565b919050555050505050565b60006020528060005260406000206000915090508060000160009054906101000a900473ffffffffffffffffffffffffffffffffffffffff169080600101805461033d90610dce565b80601f016020809104026020016040519081016040528092919081815260200182805461036990610dce565b80156103b65780601f1061038b576101008083540402835291602001916103b6565b820191906000526020600020905b81548152906001019060200180831161039957829003601f168201915b5050505050908060020154908060030154908060040154908060050154905086565b60008060008481526020019081526020016000206002015403610430576040517f08c379a000000000000000000000000000000000000000000000000000000000815260040161042790611140565b60405180910390fd5b600080838152602001908152602001600020600201544210610487576040517f08c379a000000000000000000000000000000000000000000000000000000000815260040161047e906111ac565b60405180910390fd5b600080600084815260200190815260200160002090508181600301546104ad91906111cc565b34146104ee576040517f08c379a00000000000000000000000000000000000000000000000000000000081526004016104e59061125a565b60405180910390fd5b8181600501541015610535576040517f08c379a000000000000000000000000000000000000000000000000000000000815260040161052c906112c6565b60405180910390fd5b8181600501600082825461054991906112e6565b9250508190555081600160003373ffffffffffffffffffffffffffffffffffffffff1673ffffffffffffffffffffffffffffffffffffffff168152602001908152602001600020600085815260200190815260200160002060008282546105b0919061131a565b92505081905550505050565b60008060008581526020019081526020016000206002015403610614576040517f08c379a000000000000000000000000000000000000000000000000000000000815260040161060b90611140565b60405180910390fd5b60008084815260200190815260200160002060020154421061066b576040517f08c379a0000000000000000000000000000000000000000000000000000000008152600401610662906111ac565b60405180910390fd5b81600160003373ffffffffffffffffffffffffffffffffffffffff1673ffffffffffffffffffffffffffffffffffffffff16815260200190815260200160002060008581526020019081526020016000205410156106fe576040517f08c379a00000000000000000000000000000000000000000000000000000000081526004016106f59061139a565b60405180910390fd5b81600160003373ffffffffffffffffffffffffffffffffffffffff1673ffffffffffffffffffffffffffffffffffffffff16815260200190815260200160002060008581526020019081526020016000208190555081600160008373ffffffffffffffffffffffffffffffffffffffff1673ffffffffffffffffffffffffffffffffffffffff168152602001908152602001600020600085815260200190815260200160002060008282546107b3919061131a565b92505081905550505050565b60025481565b6001602052816000526040600020602052806000526040600020600091509150505481565b6000604051905090565b600080fd5b600080fd5b600080fd5b600080fd5b6000601f19601f8301169050919050565b7f4e487b7100000000000000000000000000000000000000000000000000000000600052604160045260246000fd5b61085182610808565b810181811067ffffffffffffffff821117156108705761086f610819565b5b80604052505050565b60006108836107ea565b905061088f8282610848565b919050565b600067ffffffffffffffff8211156108af576108ae610819565b5b6108b882610808565b9050602081019050919050565b82818337600083830152505050565b60006108e76108e284610894565b610879565b90508281526020810184848401111561090357610902610803565b5b61090e8482856108c5565b509392505050565b600082601f83011261092b5761092a6107fe565b5b813561093b8482602086016108d4565b91505092915050565b6000819050919050565b61095781610944565b811461096257600080fd5b50565b6000813590506109748161094e565b92915050565b60008060008060808587031215610994576109936107f4565b5b600085013567ffffffffffffffff8111156109b2576109b16107f9565b5b6109be87828801610916565b94505060206109cf87828801610965565b93505060406109e087828801610965565b92505060606109f187828801610965565b91505092959194509250565b600060208284031215610a1357610a126107f4565b5b6000610a2184828501610965565b91505092915050565b600073ffffffffffffffffffffffffffffffffffffffff82169050919050565b6000610a5582610a2a565b9050919050565b610a6581610a4a565b82525050565b600081519050919050565b600082825260208201905092915050565b60005b83811015610aa5578082015181840152602081019050610a8a565b60008484015250505050565b6000610abc82610a6b565b610ac68185610a76565b9350610ad6818560208601610a87565b610adf81610808565b840191505092915050565b610af381610944565b82525050565b600060c082019050610b0e6000830189610a5c565b8181036020830152610b208188610ab1565b9050610b2f6040830187610aea565b610b3c6060830186610aea565b610b496080830185610aea565b610b5660a0830184610aea565b979650505050505050565b60008060408385031215610b7857610b776107f4565b5b6000610b8685828601610965565b9250506020610b9785828601610965565b9150509250929050565b610baa81610a4a565b8114610bb557600080fd5b50565b600081359050610bc781610ba1565b92915050565b600080600060608486031215610be657610be56107f4565b5b6000610bf486828701610965565b9350506020610c0586828701610965565b9250506040610c1686828701610bb8565b9150509250925092565b6000602082019050610c356000830184610aea565b92915050565b60008060408385031215610c5257610c516107f4565b5b6000610c6085828601610bb8565b9250506020610c7185828601610965565b9150509250929050565b7f596f752063616e206f7267616e697365206576656e7420666f7220667574757260008201527f6520646174650000000000000000000000000000000000000000000000000000602082015250565b6000610cd7602683610a76565b9150610ce282610c7b565b604082019050919050565b60006020820190508181036000830152610d0681610cca565b9050919050565b7f596f752063616e206f7267616e697365206576656e74206f6e6c79206966207960008201527f6f7520637265617465206d6f7265207468616e2030207469636b657473000000602082015250565b6000610d69603d83610a76565b9150610d7482610d0d565b604082019050919050565b60006020820190508181036000830152610d9881610d5c565b9050919050565b7f4e487b7100000000000000000000000000000000000000000000000000000000600052602260045260246000fd5b60006002820490506001821680610de657607f821691505b602082108103610df957610df8610d9f565b5b50919050565b60008190508160005260206000209050919050565b60006020601f8301049050919050565b600082821b905092915050565b600060088302610e617fffffffffffffffffffffffffffffffffffffffffffffffffffffffffffffffff82610e24565b610e6b8683610e24565b95508019841693508086168417925050509392505050565b6000819050919050565b6000610ea8610ea3610e9e84610944565b610e83565b610944565b9050919050565b6000819050919050565b610ec283610e8d565b610ed6610ece82610eaf565b848454610e31565b825550505050565b600090565b610eeb610ede565b610ef6818484610eb9565b505050565b5b81811015610f1a57610f0f600082610ee3565b600181019050610efc565b5050565b601f821115610f5f57610f3081610dff565b610f3984610e14565b81016020851015610f48578190505b610f5c610f5485610e14565b830182610efb565b50505b505050565b600082821c905092915050565b6000610f8260001984600802610f64565b1980831691505092915050565b6000610f9b8383610f71565b9150826002028217905092915050565b610fb482610a6b565b67ffffffffffffffff811115610fcd57610fcc610819565b5b610fd78254610dce565b610fe2828285610f1e565b600060209050601f8311600181146110155760008415611003578287015190505b61100d8582610f8f565b865550611075565b601f19841661102386610dff565b60005b8281101561104b57848901518255600182019150602085019450602081019050611026565b868310156110685784890151611064601f891682610f71565b8355505b6001600288020188555050505b505050505050565b7f4e487b7100000000000000000000000000000000000000000000000000000000600052601160045260246000fd5b60006110b782610944565b91507fffffffffffffffffffffffffffffffffffffffffffffffffffffffffffffffff82036110e9576110e861107d565b5b600182019050919050565b7f54686973206576656e7420646f6573206e6f7420657869737400000000000000600082015250565b600061112a601983610a76565b9150611135826110f4565b602082019050919050565b600060208201905081810360008301526111598161111d565b9050919050565b7f4576656e742068617320616c7265616479206f76657200000000000000000000600082015250565b6000611196601683610a76565b91506111a182611160565b602082019050919050565b600060208201905081810360008301526111c581611189565b9050919050565b60006111d782610944565b91506111e283610944565b92508282026111f081610944565b915082820484148315176112075761120661107d565b5b5092915050565b7f4574686572206973206e6f7420656e6f75676800000000000000000000000000600082015250565b6000611244601383610a76565b915061124f8261120e565b602082019050919050565b6000602082019050818103600083015261127381611237565b9050919050565b7f4e6f7420656e6f756768207469636b6574730000000000000000000000000000600082015250565b60006112b0601283610a76565b91506112bb8261127a565b602082019050919050565b600060208201905081810360008301526112df816112a3565b9050919050565b60006112f182610944565b91506112fc83610944565b92508282039050818111156113145761131361107d565b5b92915050565b600061132582610944565b915061133083610944565b92508282019050808211156113485761134761107d565b5b92915050565b7f596f7520646f206e6f74206861766520656e6f756768207469636b6574730000600082015250565b6000611384601e83610a76565b915061138f8261134e565b602082019050919050565b600060208201905081810360008301526113b381611377565b905091905056fea2646970667358221220cf99844e004eeb950af3cc8517e70e0e3b0c0031da256719b281b325d46d4bca64736f6c63430008130033",
  "immutableReferences": {},
  "source": "// SPDX-License-Identifier: GPL-3.0\r\npragma solidity >=0.8.0 <0.9.0;\r\n\r\ncontract eventOrganisation {\r\n    struct Event {\r\n        address organiser;\r\n        string name;\r\n        uint date;\r\n        uint price;\r\n        uint ticketCount;\r\n        uint ticketRemain;\r\n    }\r\n    mapping(uint=>Event) public events;\r\n    mapping(address=>mapping(uint=>uint)) public tickets;\r\n    uint public nextId;\r\n\r\n    function createEvent(string memory name, uint date, uint price, uint ticketCount) public {\r\n        require(date>block.timestamp, \"You can organise event for future date\");\r\n        require(ticketCount>0, \"You can organise event only if you create more than 0 tickets\");\r\n\r\n        events[nextId] = Event(msg.sender, name, date, price, ticketCount, ticketCount);\r\n        nextId++;\r\n    }\r\n\r\n    function buyTicket (uint id, uint quantity) external payable {\r\n        require(events[id].date!=0, \"This event does not exist\");\r\n        require(block.timestamp<events[id].date, \"Event has already over\");\r\n        Event storage _event = events[id];\r\n        require(msg.value==(_event.price*quantity),\"Ether is not enough\");\r\n        require(_event.ticketRemain>=quantity, \"Not enough tickets\");\r\n        _event.ticketRemain-=quantity;\r\n        tickets[msg.sender][id]+=quantity;    \r\n    }\r\n\r\n    function transferTickets(uint id, uint quantity, address to) external {\r\n        require(events[id].date!=0, \"This event does not exist\");\r\n        require(block.timestamp<events[id].date, \"Event has already over\");\r\n        require(tickets[msg.sender][id]>=quantity, \"You do not have enough tickets\");\r\n        tickets[msg.sender][id]=quantity;\r\n        tickets[to][id]+=quantity; \r\n\r\n    }\r\n}",
  "sourcePath": "D:\\Documentos\\BLOCKCHAIN\\Doble Grado BlockChain\\Blockchain Engineering\\TFM - Enginering - SEP 2023\\BLOCKTICK ETHEREUM\\BLOCKTICK\\Ethereum-Blocktick\\contracts\\blockTick.sol",
  "compiler": {
    "name": "solc",
    "version": "0.8.19+commit.7dd6d404.Emscripten.clang"
  },
  "schemaVersion": "3.4.13",
  "updatedAt": "2023-08-09T05:23:09.811Z",
  "networkType": "ethereum",
  "devdoc": {
    "kind": "dev",
    "methods": {},
    "version": 1
  },
  "userdoc": {
    "kind": "user",
    "methods": {},
    "version": 1
  }
}