{
  "contractName": "EventFactory",
  "abi": [
    {
      "anonymous": false,
      "inputs": [
        {
          "indexed": true,
          "internalType": "address",
          "name": "previousOwner",
          "type": "address"
        },
        {
          "indexed": true,
          "internalType": "address",
          "name": "newOwner",
          "type": "address"
        }
      ],
      "name": "OwnershipTransferred",
      "type": "event"
    },
    {
      "inputs": [
        {
          "internalType": "uint256",
          "name": "",
          "type": "uint256"
        }
      ],
      "name": "eventsCreated",
      "outputs": [
        {
          "internalType": "address",
          "name": "",
          "type": "address"
        }
      ],
      "stateMutability": "view",
      "type": "function"
    },
    {
      "inputs": [],
      "name": "owner",
      "outputs": [
        {
          "internalType": "address",
          "name": "",
          "type": "address"
        }
      ],
      "stateMutability": "view",
      "type": "function"
    },
    {
      "inputs": [],
      "name": "renounceOwnership",
      "outputs": [],
      "stateMutability": "nonpayable",
      "type": "function"
    },
    {
      "inputs": [
        {
          "internalType": "address",
          "name": "newOwner",
          "type": "address"
        }
      ],
      "name": "transferOwnership",
      "outputs": [],
      "stateMutability": "nonpayable",
      "type": "function"
    },
    {
      "inputs": [
        {
          "internalType": "string",
          "name": "_eventName",
          "type": "string"
        },
        {
          "internalType": "string",
          "name": "_eventOrganizer",
          "type": "string"
        },
        {
          "internalType": "string",
          "name": "_eventCategory",
          "type": "string"
        },
        {
          "internalType": "uint256",
          "name": "_ticketPrice",
          "type": "uint256"
        }
      ],
      "name": "createEvent",
      "outputs": [],
      "stateMutability": "nonpayable",
      "type": "function"
    },
    {
      "inputs": [
        {
          "internalType": "uint256",
          "name": "index",
          "type": "uint256"
        }
      ],
      "name": "getEventPrice",
      "outputs": [
        {
          "internalType": "uint256",
          "name": "",
          "type": "uint256"
        }
      ],
      "stateMutability": "view",
      "type": "function"
    }
  ],
  "bytecode": "0x608060405234801561001057600080fd5b5061002d61002261003260201b60201c565b61003a60201b60201c565b6100fe565b600033905090565b60008060009054906101000a900473ffffffffffffffffffffffffffffffffffffffff169050816000806101000a81548173ffffffffffffffffffffffffffffffffffffffff021916908373ffffffffffffffffffffffffffffffffffffffff1602179055508173ffffffffffffffffffffffffffffffffffffffff168173ffffffffffffffffffffffffffffffffffffffff167f8be0079c531659141344cd1fd0a4f28419497f9722a3daafe3b4186f6b6457e060405160405180910390a35050565b6154d18061010d6000396000f3fe60806040523480156200001157600080fd5b50600436106200006a5760003560e01c8063715018a6146200006f5780638da5cb5b146200007b578063de4cd842146200009d578063df1383a214620000bd578063e3e35a1f14620000f3578063f2fde38b1462000129575b600080fd5b6200007962000149565b005b6200008562000161565b60405162000094919062000573565b60405180910390f35b620000bb6004803603810190620000b5919062000741565b6200018a565b005b620000db6004803603810190620000d5919062000810565b62000249565b604051620000ea919062000853565b60405180910390f35b6200011160048036038101906200010b919062000810565b62000305565b60405162000120919062000573565b60405180910390f35b620001476004803603810190620001419190620008a1565b62000345565b005b62000153620003cf565b6200015f600062000454565b565b60008060009054906101000a900473ffffffffffffffffffffffffffffffffffffffff16905090565b62000194620003cf565b600033905060008585858486604051620001ae9062000520565b620001be9594939291906200095c565b604051809103906000f080158015620001db573d6000803e3d6000fd5b5090506001819080600181540180825580915050600190039060005260206000200160009091909190916101000a81548173ffffffffffffffffffffffffffffffffffffffff021916908373ffffffffffffffffffffffffffffffffffffffff160217905550505050505050565b600060018281548110620002625762000261620009ce565b5b9060005260206000200160009054906101000a900473ffffffffffffffffffffffffffffffffffffffff1673ffffffffffffffffffffffffffffffffffffffff166398d5fdca6040518163ffffffff1660e01b8152600401602060405180830381865afa158015620002d8573d6000803e3d6000fd5b505050506040513d601f19601f82011682018060405250810190620002fe919062000a14565b9050919050565b600181815481106200031657600080fd5b906000526020600020016000915054906101000a900473ffffffffffffffffffffffffffffffffffffffff1681565b6200034f620003cf565b600073ffffffffffffffffffffffffffffffffffffffff168173ffffffffffffffffffffffffffffffffffffffff1603620003c1576040517f08c379a0000000000000000000000000000000000000000000000000000000008152600401620003b89062000abc565b60405180910390fd5b620003cc8162000454565b50565b620003d962000518565b73ffffffffffffffffffffffffffffffffffffffff16620003f962000161565b73ffffffffffffffffffffffffffffffffffffffff161462000452576040517f08c379a0000000000000000000000000000000000000000000000000000000008152600401620004499062000b2e565b60405180910390fd5b565b60008060009054906101000a900473ffffffffffffffffffffffffffffffffffffffff169050816000806101000a81548173ffffffffffffffffffffffffffffffffffffffff021916908373ffffffffffffffffffffffffffffffffffffffff1602179055508173ffffffffffffffffffffffffffffffffffffffff168173ffffffffffffffffffffffffffffffffffffffff167f8be0079c531659141344cd1fd0a4f28419497f9722a3daafe3b4186f6b6457e060405160405180910390a35050565b600033905090565b61494b8062000b5183390190565b600073ffffffffffffffffffffffffffffffffffffffff82169050919050565b60006200055b826200052e565b9050919050565b6200056d816200054e565b82525050565b60006020820190506200058a600083018462000562565b92915050565b6000604051905090565b600080fd5b600080fd5b600080fd5b600080fd5b6000601f19601f8301169050919050565b7f4e487b7100000000000000000000000000000000000000000000000000000000600052604160045260246000fd5b620005f982620005ae565b810181811067ffffffffffffffff821117156200061b576200061a620005bf565b5b80604052505050565b60006200063062000590565b90506200063e8282620005ee565b919050565b600067ffffffffffffffff821115620006615762000660620005bf565b5b6200066c82620005ae565b9050602081019050919050565b82818337600083830152505050565b60006200069f620006998462000643565b62000624565b905082815260208101848484011115620006be57620006bd620005a9565b5b620006cb84828562000679565b509392505050565b600082601f830112620006eb57620006ea620005a4565b5b8135620006fd84826020860162000688565b91505092915050565b6000819050919050565b6200071b8162000706565b81146200072757600080fd5b50565b6000813590506200073b8162000710565b92915050565b600080600080608085870312156200075e576200075d6200059a565b5b600085013567ffffffffffffffff8111156200077f576200077e6200059f565b5b6200078d87828801620006d3565b945050602085013567ffffffffffffffff811115620007b157620007b06200059f565b5b620007bf87828801620006d3565b935050604085013567ffffffffffffffff811115620007e357620007e26200059f565b5b620007f187828801620006d3565b925050606062000804878288016200072a565b91505092959194509250565b6000602082840312156200082957620008286200059a565b5b600062000839848285016200072a565b91505092915050565b6200084d8162000706565b82525050565b60006020820190506200086a600083018462000842565b92915050565b6200087b816200054e565b81146200088757600080fd5b50565b6000813590506200089b8162000870565b92915050565b600060208284031215620008ba57620008b96200059a565b5b6000620008ca848285016200088a565b91505092915050565b600081519050919050565b600082825260208201905092915050565b60005b838110156200090f578082015181840152602081019050620008f2565b60008484015250505050565b60006200092882620008d3565b620009348185620008de565b935062000946818560208601620008ef565b6200095181620005ae565b840191505092915050565b600060a08201905081810360008301526200097881886200091b565b905081810360208301526200098e81876200091b565b90508181036040830152620009a481866200091b565b9050620009b5606083018562000562565b620009c4608083018462000842565b9695505050505050565b7f4e487b7100000000000000000000000000000000000000000000000000000000600052603260045260246000fd5b60008151905062000a0e8162000710565b92915050565b60006020828403121562000a2d5762000a2c6200059a565b5b600062000a3d84828501620009fd565b91505092915050565b7f4f776e61626c653a206e6577206f776e657220697320746865207a65726f206160008201527f6464726573730000000000000000000000000000000000000000000000000000602082015250565b600062000aa4602683620008de565b915062000ab18262000a46565b604082019050919050565b6000602082019050818103600083015262000ad78162000a95565b9050919050565b7f4f776e61626c653a2063616c6c6572206973206e6f7420746865206f776e6572600082015250565b600062000b16602083620008de565b915062000b238262000ade565b602082019050919050565b6000602082019050818103600083015262000b498162000b07565b905091905056fe60806040523480156200001157600080fd5b506040516200494b3803806200494b8339818101604052810190620000379190620005e3565b846040516020016200004a91906200073b565b6040516020818303038152906040526040518060400160405280600681526020017f5449434b455400000000000000000000000000000000000000000000000000008152508160009081620000a091906200099b565b508060019081620000b291906200099b565b505050620000d5620000c96200019160201b60201c565b6200019960201b60201c565b8460089081620000e691906200099b565b508360099081620000f891906200099b565b5082600a90816200010a91906200099b565b5081600b60006101000a81548173ffffffffffffffffffffffffffffffffffffffff021916908373ffffffffffffffffffffffffffffffffffffffff16021790555080600c8190555062000186600b60009054906101000a900473ffffffffffffffffffffffffffffffffffffffff166200025f60201b60201c565b505050505062000b9d565b600033905090565b6000600760009054906101000a900473ffffffffffffffffffffffffffffffffffffffff16905081600760006101000a81548173ffffffffffffffffffffffffffffffffffffffff021916908373ffffffffffffffffffffffffffffffffffffffff1602179055508173ffffffffffffffffffffffffffffffffffffffff168173ffffffffffffffffffffffffffffffffffffffff167f8be0079c531659141344cd1fd0a4f28419497f9722a3daafe3b4186f6b6457e060405160405180910390a35050565b6200026f620002f560201b60201c565b600073ffffffffffffffffffffffffffffffffffffffff168173ffffffffffffffffffffffffffffffffffffffff1603620002e1576040517f08c379a0000000000000000000000000000000000000000000000000000000008152600401620002d89062000b09565b60405180910390fd5b620002f2816200019960201b60201c565b50565b620003056200019160201b60201c565b73ffffffffffffffffffffffffffffffffffffffff166200032b6200038660201b60201c565b73ffffffffffffffffffffffffffffffffffffffff161462000384576040517f08c379a00000000000000000000000000000000000000000000000000000000081526004016200037b9062000b7b565b60405180910390fd5b565b6000600760009054906101000a900473ffffffffffffffffffffffffffffffffffffffff16905090565b6000604051905090565b600080fd5b600080fd5b600080fd5b600080fd5b6000601f19601f8301169050919050565b7f4e487b7100000000000000000000000000000000000000000000000000000000600052604160045260246000fd5b6200041982620003ce565b810181811067ffffffffffffffff821117156200043b576200043a620003df565b5b80604052505050565b600062000450620003b0565b90506200045e82826200040e565b919050565b600067ffffffffffffffff821115620004815762000480620003df565b5b6200048c82620003ce565b9050602081019050919050565b60005b83811015620004b95780820151818401526020810190506200049c565b60008484015250505050565b6000620004dc620004d68462000463565b62000444565b905082815260208101848484011115620004fb57620004fa620003c9565b5b6200050884828562000499565b509392505050565b600082601f830112620005285762000527620003c4565b5b81516200053a848260208601620004c5565b91505092915050565b600073ffffffffffffffffffffffffffffffffffffffff82169050919050565b6000620005708262000543565b9050919050565b620005828162000563565b81146200058e57600080fd5b50565b600081519050620005a28162000577565b92915050565b6000819050919050565b620005bd81620005a8565b8114620005c957600080fd5b50565b600081519050620005dd81620005b2565b92915050565b600080600080600060a08688031215620006025762000601620003ba565b5b600086015167ffffffffffffffff811115620006235762000622620003bf565b5b620006318882890162000510565b955050602086015167ffffffffffffffff811115620006555762000654620003bf565b5b620006638882890162000510565b945050604086015167ffffffffffffffff811115620006875762000686620003bf565b5b620006958882890162000510565b9350506060620006a88882890162000591565b9250506080620006bb88828901620005cc565b9150509295509295909350565b600081519050919050565b600081905092915050565b6000620006eb82620006c8565b620006f78185620006d3565b93506200070981856020860162000499565b80840191505092915050565b7f205469636b65744e465400000000000000000000000000000000000000000000815250565b6000620007498284620006de565b9150620007568262000715565b600a8201915081905092915050565b7f4e487b7100000000000000000000000000000000000000000000000000000000600052602260045260246000fd5b60006002820490506001821680620007ad57607f821691505b602082108103620007c357620007c262000765565b5b50919050565b60008190508160005260206000209050919050565b60006020601f8301049050919050565b600082821b905092915050565b6000600883026200082d7fffffffffffffffffffffffffffffffffffffffffffffffffffffffffffffffff82620007ee565b620008398683620007ee565b95508019841693508086168417925050509392505050565b6000819050919050565b60006200087c620008766200087084620005a8565b62000851565b620005a8565b9050919050565b6000819050919050565b62000898836200085b565b620008b0620008a78262000883565b848454620007fb565b825550505050565b600090565b620008c7620008b8565b620008d48184846200088d565b505050565b5b81811015620008fc57620008f0600082620008bd565b600181019050620008da565b5050565b601f8211156200094b576200091581620007c9565b6200092084620007de565b8101602085101562000930578190505b620009486200093f85620007de565b830182620008d9565b50505b505050565b600082821c905092915050565b6000620009706000198460080262000950565b1980831691505092915050565b60006200098b83836200095d565b9150826002028217905092915050565b620009a682620006c8565b67ffffffffffffffff811115620009c257620009c1620003df565b5b620009ce825462000794565b620009db82828562000900565b600060209050601f83116001811462000a135760008415620009fe578287015190505b62000a0a85826200097d565b86555062000a7a565b601f19841662000a2386620007c9565b60005b8281101562000a4d5784890151825560018201915060208501945060208101905062000a26565b8683101562000a6d578489015162000a69601f8916826200095d565b8355505b6001600288020188555050505b505050505050565b600082825260208201905092915050565b7f4f776e61626c653a206e6577206f776e657220697320746865207a65726f206160008201527f6464726573730000000000000000000000000000000000000000000000000000602082015250565b600062000af160268362000a82565b915062000afe8262000a93565b604082019050919050565b6000602082019050818103600083015262000b248162000ae2565b9050919050565b7f4f776e61626c653a2063616c6c6572206973206e6f7420746865206f776e6572600082015250565b600062000b6360208362000a82565b915062000b708262000b2b565b602082019050919050565b6000602082019050818103600083015262000b968162000b54565b9050919050565b613d9e8062000bad6000396000f3fe60806040526004361061019c5760003560e01c80637e33b76c116100ec57806398d5fdca1161008a578063c87b56dd11610064578063c87b56dd146105a7578063e985e9c5146105e4578063f2fde38b14610621578063fb3366081461064a5761019c565b806398d5fdca1461052a578063a22cb46514610555578063b88d4fde1461057e5761019c565b8063831d14ae116100c6578063831d14ae1461048d57806388f57767146104b85780638da5cb5b146104d457806395d89b41146104ff5761019c565b80637e33b76c146103fc5780638043c9c01461042557806382615569146104505761019c565b806323b872dd116101595780636ee16e00116101335780636ee16e001461035457806370a082311461037d578063715018a6146103ba5780637514d7cb146103d15761019c565b806323b872dd146102c557806342842e0e146102ee5780636352211e146103175761019c565b806301ffc9a7146101a157806306fdde03146101de578063081812fc14610209578063095ea7b3146102465780631209b1f61461026f578063202141341461029a575b600080fd5b3480156101ad57600080fd5b506101c860048036038101906101c391906128f1565b610654565b6040516101d59190612939565b60405180910390f35b3480156101ea57600080fd5b506101f36106b5565b60405161020091906129e4565b60405180910390f35b34801561021557600080fd5b50610230600480360381019061022b9190612a3c565b610747565b60405161023d9190612aaa565b60405180910390f35b34801561025257600080fd5b5061026d60048036038101906102689190612af1565b61078d565b005b34801561027b57600080fd5b506102846108a4565b6040516102919190612b40565b60405180910390f35b3480156102a657600080fd5b506102af6108aa565b6040516102bc9190612aaa565b60405180910390f35b3480156102d157600080fd5b506102ec60048036038101906102e79190612b5b565b6108d0565b005b3480156102fa57600080fd5b5061031560048036038101906103109190612b5b565b610930565b005b34801561032357600080fd5b5061033e60048036038101906103399190612a3c565b610950565b60405161034b9190612aaa565b60405180910390f35b34801561036057600080fd5b5061037b60048036038101906103769190612a3c565b6109d6565b005b34801561038957600080fd5b506103a4600480360381019061039f9190612bae565b6109e8565b6040516103b19190612b40565b60405180910390f35b3480156103c657600080fd5b506103cf610a9f565b005b3480156103dd57600080fd5b506103e6610ab3565b6040516103f391906129e4565b60405180910390f35b34801561040857600080fd5b50610423600480360381019061041e9190612af1565b610b41565b005b34801561043157600080fd5b5061043a610d06565b60405161044791906129e4565b60405180910390f35b34801561045c57600080fd5b5061047760048036038101906104729190612af1565b610d94565b6040516104849190612b40565b60405180910390f35b34801561049957600080fd5b506104a2610dc5565b6040516104af91906129e4565b60405180910390f35b6104d260048036038101906104cd9190612af1565b610e53565b005b3480156104e057600080fd5b506104e9610fd2565b6040516104f69190612aaa565b60405180910390f35b34801561050b57600080fd5b50610514610ffc565b60405161052191906129e4565b60405180910390f35b34801561053657600080fd5b5061053f61108e565b60405161054c9190612b40565b60405180910390f35b34801561056157600080fd5b5061057c60048036038101906105779190612c07565b611098565b005b34801561058a57600080fd5b506105a560048036038101906105a09190612d7c565b6110ae565b005b3480156105b357600080fd5b506105ce60048036038101906105c99190612a3c565b611110565b6040516105db91906129e4565b60405180910390f35b3480156105f057600080fd5b5061060b60048036038101906106069190612dff565b611222565b6040516106189190612939565b60405180910390f35b34801561062d57600080fd5b5061064860048036038101906106439190612bae565b6112b6565b005b610652611339565b005b6000634906490660e01b7bffffffffffffffffffffffffffffffffffffffffffffffffffffffff1916827bffffffffffffffffffffffffffffffffffffffffffffffffffffffff191614806106ae57506106ad82611469565b5b9050919050565b6060600080546106c490612e6e565b80601f01602080910402602001604051908101604052809291908181526020018280546106f090612e6e565b801561073d5780601f106107125761010080835404028352916020019161073d565b820191906000526020600020905b81548152906001019060200180831161072057829003601f168201915b5050505050905090565b60006107528261154b565b6004600083815260200190815260200160002060009054906101000a900473ffffffffffffffffffffffffffffffffffffffff169050919050565b600061079882610950565b90508073ffffffffffffffffffffffffffffffffffffffff168373ffffffffffffffffffffffffffffffffffffffff1603610808576040517f08c379a00000000000000000000000000000000000000000000000000000000081526004016107ff90612f11565b60405180910390fd5b8073ffffffffffffffffffffffffffffffffffffffff16610827611596565b73ffffffffffffffffffffffffffffffffffffffff161480610856575061085581610850611596565b611222565b5b610895576040517f08c379a000000000000000000000000000000000000000000000000000000000815260040161088c90612fa3565b60405180910390fd5b61089f838361159e565b505050565b600c5481565b600b60009054906101000a900473ffffffffffffffffffffffffffffffffffffffff1681565b6108e16108db611596565b82611657565b610920576040517f08c379a000000000000000000000000000000000000000000000000000000000815260040161091790613035565b60405180910390fd5b61092b8383836116ec565b505050565b61094b838383604051806020016040528060008152506110ae565b505050565b60008061095c836119e5565b9050600073ffffffffffffffffffffffffffffffffffffffff168173ffffffffffffffffffffffffffffffffffffffff16036109cd576040517f08c379a00000000000000000000000000000000000000000000000000000000081526004016109c4906130a1565b60405180910390fd5b80915050919050565b6109de611a22565b80600c8190555050565b60008073ffffffffffffffffffffffffffffffffffffffff168273ffffffffffffffffffffffffffffffffffffffff1603610a58576040517f08c379a0000000000000000000000000000000000000000000000000000000008152600401610a4f90613133565b60405180910390fd5b600360008373ffffffffffffffffffffffffffffffffffffffff1673ffffffffffffffffffffffffffffffffffffffff168152602001908152602001600020549050919050565b610aa7611a22565b610ab16000611aa0565b565b60098054610ac090612e6e565b80601f0160208091040260200160405190810160405280929190818152602001828054610aec90612e6e565b8015610b395780601f10610b0e57610100808354040283529160200191610b39565b820191906000526020600020905b815481529060010190602001808311610b1c57829003601f168201915b505050505081565b80600e60008473ffffffffffffffffffffffffffffffffffffffff1673ffffffffffffffffffffffffffffffffffffffff168152602001908152602001600020805490501015610bc6576040517f08c379a0000000000000000000000000000000000000000000000000000000008152600401610bbd9061319f565b60405180910390fd5b60005b81811015610d01576000600e60008573ffffffffffffffffffffffffffffffffffffffff1673ffffffffffffffffffffffffffffffffffffffff1681526020019081526020016000206001600e60008773ffffffffffffffffffffffffffffffffffffffff1673ffffffffffffffffffffffffffffffffffffffff16815260200190815260200160002080549050610c6191906131ee565b81548110610c7257610c71613222565b5b90600052602060002001549050600e60008573ffffffffffffffffffffffffffffffffffffffff1673ffffffffffffffffffffffffffffffffffffffff168152602001908152602001600020805480610cce57610ccd613251565b5b60019003818190600052602060002001600090559055610ced81611b66565b508080610cf990613280565b915050610bc9565b505050565b60088054610d1390612e6e565b80601f0160208091040260200160405190810160405280929190818152602001828054610d3f90612e6e565b8015610d8c5780601f10610d6157610100808354040283529160200191610d8c565b820191906000526020600020905b815481529060010190602001808311610d6f57829003601f168201915b505050505081565b600e6020528160005260406000208181548110610db057600080fd5b90600052602060002001600091509150505481565b600a8054610dd290612e6e565b80601f0160208091040260200160405190810160405280929190818152602001828054610dfe90612e6e565b8015610e4b5780601f10610e2057610100808354040283529160200191610e4b565b820191906000526020600020905b815481529060010190602001808311610e2e57829003601f168201915b505050505081565b80600c54610e6191906132c8565b341015610ea3576040517f08c379a0000000000000000000000000000000000000000000000000000000008152600401610e9a90613356565b60405180910390fd5b60018114610ee6576040517f08c379a0000000000000000000000000000000000000000000000000000000008152600401610edd906133e8565b60405180910390fd5b6000600e60003373ffffffffffffffffffffffffffffffffffffffff1673ffffffffffffffffffffffffffffffffffffffff1681526020019081526020016000208054905014610f6b576040517f08c379a0000000000000000000000000000000000000000000000000000000008152600401610f629061347a565b60405180910390fd5b6000610f778383611bb9565b905080600e60008573ffffffffffffffffffffffffffffffffffffffff1673ffffffffffffffffffffffffffffffffffffffff1681526020019081526020016000209080519060200190610fcc9291906127db565b50505050565b6000600760009054906101000a900473ffffffffffffffffffffffffffffffffffffffff16905090565b60606001805461100b90612e6e565b80601f016020809104026020016040519081016040528092919081815260200182805461103790612e6e565b80156110845780601f1061105957610100808354040283529160200191611084565b820191906000526020600020905b81548152906001019060200180831161106757829003601f168201915b5050505050905090565b6000600c54905090565b6110aa6110a3611596565b8383611cdf565b5050565b6110bf6110b9611596565b83611657565b6110fe576040517f08c379a00000000000000000000000000000000000000000000000000000000081526004016110f590613035565b60405180910390fd5b61110a84848484611e4b565b50505050565b606061111b8261154b565b600060066000848152602001908152602001600020805461113b90612e6e565b80601f016020809104026020016040519081016040528092919081815260200182805461116790612e6e565b80156111b45780601f10611189576101008083540402835291602001916111b4565b820191906000526020600020905b81548152906001019060200180831161119757829003601f168201915b5050505050905060006111c5611ea7565b905060008151036111da57819250505061121d565b60008251111561120f5780826040516020016111f79291906134d6565b6040516020818303038152906040529250505061121d565b61121884611ebe565b925050505b919050565b6000600560008473ffffffffffffffffffffffffffffffffffffffff1673ffffffffffffffffffffffffffffffffffffffff16815260200190815260200160002060008373ffffffffffffffffffffffffffffffffffffffff1673ffffffffffffffffffffffffffffffffffffffff16815260200190815260200160002060009054906101000a900460ff16905092915050565b6112be611a22565b600073ffffffffffffffffffffffffffffffffffffffff168173ffffffffffffffffffffffffffffffffffffffff160361132d576040517f08c379a00000000000000000000000000000000000000000000000000000000081526004016113249061356c565b60405180910390fd5b61133681611aa0565b50565b600c5434101561137e576040517f08c379a000000000000000000000000000000000000000000000000000000000815260040161137590613356565b60405180910390fd5b6000600e60003373ffffffffffffffffffffffffffffffffffffffff1673ffffffffffffffffffffffffffffffffffffffff1681526020019081526020016000208054905014611403576040517f08c379a00000000000000000000000000000000000000000000000000000000081526004016113fa9061347a565b60405180910390fd5b6000611410336001611bb9565b905080600e60003373ffffffffffffffffffffffffffffffffffffffff1673ffffffffffffffffffffffffffffffffffffffff16815260200190815260200160002090805190602001906114659291906127db565b5050565b60007f80ac58cd000000000000000000000000000000000000000000000000000000007bffffffffffffffffffffffffffffffffffffffffffffffffffffffff1916827bffffffffffffffffffffffffffffffffffffffffffffffffffffffff1916148061153457507f5b5e139f000000000000000000000000000000000000000000000000000000007bffffffffffffffffffffffffffffffffffffffffffffffffffffffff1916827bffffffffffffffffffffffffffffffffffffffffffffffffffffffff1916145b80611544575061154382611f26565b5b9050919050565b61155481611f90565b611593576040517f08c379a000000000000000000000000000000000000000000000000000000000815260040161158a906130a1565b60405180910390fd5b50565b600033905090565b816004600083815260200190815260200160002060006101000a81548173ffffffffffffffffffffffffffffffffffffffff021916908373ffffffffffffffffffffffffffffffffffffffff160217905550808273ffffffffffffffffffffffffffffffffffffffff1661161183610950565b73ffffffffffffffffffffffffffffffffffffffff167f8c5be1e5ebec7d5bd14f71427d1e84f3dd0314c0f7b2291e5b200ac8c7c3b92560405160405180910390a45050565b60008061166383610950565b90508073ffffffffffffffffffffffffffffffffffffffff168473ffffffffffffffffffffffffffffffffffffffff1614806116a557506116a48185611222565b5b806116e357508373ffffffffffffffffffffffffffffffffffffffff166116cb84610747565b73ffffffffffffffffffffffffffffffffffffffff16145b91505092915050565b8273ffffffffffffffffffffffffffffffffffffffff1661170c82610950565b73ffffffffffffffffffffffffffffffffffffffff1614611762576040517f08c379a0000000000000000000000000000000000000000000000000000000008152600401611759906135fe565b60405180910390fd5b600073ffffffffffffffffffffffffffffffffffffffff168273ffffffffffffffffffffffffffffffffffffffff16036117d1576040517f08c379a00000000000000000000000000000000000000000000000000000000081526004016117c890613690565b60405180910390fd5b6117de8383836001611fd1565b8273ffffffffffffffffffffffffffffffffffffffff166117fe82610950565b73ffffffffffffffffffffffffffffffffffffffff1614611854576040517f08c379a000000000000000000000000000000000000000000000000000000000815260040161184b906135fe565b60405180910390fd5b6004600082815260200190815260200160002060006101000a81549073ffffffffffffffffffffffffffffffffffffffff02191690556001600360008573ffffffffffffffffffffffffffffffffffffffff1673ffffffffffffffffffffffffffffffffffffffff168152602001908152602001600020600082825403925050819055506001600360008473ffffffffffffffffffffffffffffffffffffffff1673ffffffffffffffffffffffffffffffffffffffff16815260200190815260200160002060008282540192505081905550816002600083815260200190815260200160002060006101000a81548173ffffffffffffffffffffffffffffffffffffffff021916908373ffffffffffffffffffffffffffffffffffffffff160217905550808273ffffffffffffffffffffffffffffffffffffffff168473ffffffffffffffffffffffffffffffffffffffff167fddf252ad1be2c89b69c2b068fc378daa952ba7f163c4a11628f55a4df523b3ef60405160405180910390a46119e08383836001611fd7565b505050565b60006002600083815260200190815260200160002060009054906101000a900473ffffffffffffffffffffffffffffffffffffffff169050919050565b611a2a611596565b73ffffffffffffffffffffffffffffffffffffffff16611a48610fd2565b73ffffffffffffffffffffffffffffffffffffffff1614611a9e576040517f08c379a0000000000000000000000000000000000000000000000000000000008152600401611a95906136fc565b60405180910390fd5b565b6000600760009054906101000a900473ffffffffffffffffffffffffffffffffffffffff16905081600760006101000a81548173ffffffffffffffffffffffffffffffffffffffff021916908373ffffffffffffffffffffffffffffffffffffffff1602179055508173ffffffffffffffffffffffffffffffffffffffff168173ffffffffffffffffffffffffffffffffffffffff167f8be0079c531659141344cd1fd0a4f28419497f9722a3daafe3b4186f6b6457e060405160405180910390a35050565b611b6f81611fdd565b6000600660008381526020019081526020016000208054611b8f90612e6e565b905014611bb657600660008281526020019081526020016000206000611bb59190612828565b5b50565b606060018214611bfe576040517f08c379a0000000000000000000000000000000000000000000000000000000008152600401611bf5906133e8565b60405180910390fd5b60008267ffffffffffffffff811115611c1a57611c19612c51565b5b604051908082528060200260200182016040528015611c485781602001602082028036833780820191505090505b5090506000604051806080016040528060548152602001613d1560549139905060005b84811015611cd3576000611c7f600d61212b565b9050611c8b8782612139565b611c958184612356565b611c9f600d6123fa565b80848381518110611cb357611cb2613222565b5b602002602001018181525050508080611ccb90613280565b915050611c6b565b50819250505092915050565b8173ffffffffffffffffffffffffffffffffffffffff168373ffffffffffffffffffffffffffffffffffffffff1603611d4d576040517f08c379a0000000000000000000000000000000000000000000000000000000008152600401611d4490613768565b60405180910390fd5b80600560008573ffffffffffffffffffffffffffffffffffffffff1673ffffffffffffffffffffffffffffffffffffffff16815260200190815260200160002060008473ffffffffffffffffffffffffffffffffffffffff1673ffffffffffffffffffffffffffffffffffffffff16815260200190815260200160002060006101000a81548160ff0219169083151502179055508173ffffffffffffffffffffffffffffffffffffffff168373ffffffffffffffffffffffffffffffffffffffff167f17307eab39ab6107e8899845ad3d59bd9653f200f220920489ca2b5937696c3183604051611e3e9190612939565b60405180910390a3505050565b611e568484846116ec565b611e6284848484612410565b611ea1576040517f08c379a0000000000000000000000000000000000000000000000000000000008152600401611e98906137fa565b60405180910390fd5b50505050565b606060405180602001604052806000815250905090565b6060611ec98261154b565b6000611ed3611ea7565b90506000815111611ef35760405180602001604052806000815250611f1e565b80611efd84612597565b604051602001611f0e9291906134d6565b6040516020818303038152906040525b915050919050565b60007f01ffc9a7000000000000000000000000000000000000000000000000000000007bffffffffffffffffffffffffffffffffffffffffffffffffffffffff1916827bffffffffffffffffffffffffffffffffffffffffffffffffffffffff1916149050919050565b60008073ffffffffffffffffffffffffffffffffffffffff16611fb2836119e5565b73ffffffffffffffffffffffffffffffffffffffff1614159050919050565b50505050565b50505050565b6000611fe882610950565b9050611ff8816000846001611fd1565b61200182610950565b90506004600083815260200190815260200160002060006101000a81549073ffffffffffffffffffffffffffffffffffffffff02191690556001600360008373ffffffffffffffffffffffffffffffffffffffff1673ffffffffffffffffffffffffffffffffffffffff168152602001908152602001600020600082825403925050819055506002600083815260200190815260200160002060006101000a81549073ffffffffffffffffffffffffffffffffffffffff021916905581600073ffffffffffffffffffffffffffffffffffffffff168273ffffffffffffffffffffffffffffffffffffffff167fddf252ad1be2c89b69c2b068fc378daa952ba7f163c4a11628f55a4df523b3ef60405160405180910390a4612127816000846001611fd7565b5050565b600081600001549050919050565b600073ffffffffffffffffffffffffffffffffffffffff168273ffffffffffffffffffffffffffffffffffffffff16036121a8576040517f08c379a000000000000000000000000000000000000000000000000000000000815260040161219f90613866565b60405180910390fd5b6121b181611f90565b156121f1576040517f08c379a00000000000000000000000000000000000000000000000000000000081526004016121e8906138d2565b60405180910390fd5b6121ff600083836001611fd1565b61220881611f90565b15612248576040517f08c379a000000000000000000000000000000000000000000000000000000000815260040161223f906138d2565b60405180910390fd5b6001600360008473ffffffffffffffffffffffffffffffffffffffff1673ffffffffffffffffffffffffffffffffffffffff16815260200190815260200160002060008282540192505081905550816002600083815260200190815260200160002060006101000a81548173ffffffffffffffffffffffffffffffffffffffff021916908373ffffffffffffffffffffffffffffffffffffffff160217905550808273ffffffffffffffffffffffffffffffffffffffff16600073ffffffffffffffffffffffffffffffffffffffff167fddf252ad1be2c89b69c2b068fc378daa952ba7f163c4a11628f55a4df523b3ef60405160405180910390a4612352600083836001611fd7565b5050565b61235f82611f90565b61239e576040517f08c379a000000000000000000000000000000000000000000000000000000000815260040161239590613964565b60405180910390fd5b806006600084815260200190815260200160002090816123be9190613b30565b507ff8e1a15aba9398e019f0b49df1a4fde98ee17ae345cb5f6b5e2c27f5033e8ce7826040516123ee9190612b40565b60405180910390a15050565b6001816000016000828254019250508190555050565b60006124318473ffffffffffffffffffffffffffffffffffffffff16612665565b1561258a578373ffffffffffffffffffffffffffffffffffffffff1663150b7a0261245a611596565b8786866040518563ffffffff1660e01b815260040161247c9493929190613c57565b6020604051808303816000875af19250505080156124b857506040513d601f19601f820116820180604052508101906124b59190613cb8565b60015b61253a573d80600081146124e8576040519150601f19603f3d011682016040523d82523d6000602084013e6124ed565b606091505b506000815103612532576040517f08c379a0000000000000000000000000000000000000000000000000000000008152600401612529906137fa565b60405180910390fd5b805181602001fd5b63150b7a0260e01b7bffffffffffffffffffffffffffffffffffffffffffffffffffffffff1916817bffffffffffffffffffffffffffffffffffffffffffffffffffffffff19161491505061258f565b600190505b949350505050565b6060600060016125a684612688565b01905060008167ffffffffffffffff8111156125c5576125c4612c51565b5b6040519080825280601f01601f1916602001820160405280156125f75781602001600182028036833780820191505090505b509050600082602001820190505b60011561265a578080600190039150507f3031323334353637383961626364656600000000000000000000000000000000600a86061a8153600a858161264e5761264d613ce5565b5b04945060008503612605575b819350505050919050565b6000808273ffffffffffffffffffffffffffffffffffffffff163b119050919050565b600080600090507a184f03e93ff9f4daa797ed6e38ed64bf6a1f01000000000000000083106126e6577a184f03e93ff9f4daa797ed6e38ed64bf6a1f01000000000000000083816126dc576126db613ce5565b5b0492506040810190505b6d04ee2d6d415b85acef81000000008310612723576d04ee2d6d415b85acef8100000000838161271957612718613ce5565b5b0492506020810190505b662386f26fc10000831061275257662386f26fc10000838161274857612747613ce5565b5b0492506010810190505b6305f5e100831061277b576305f5e100838161277157612770613ce5565b5b0492506008810190505b61271083106127a057612710838161279657612795613ce5565b5b0492506004810190505b606483106127c357606483816127b9576127b8613ce5565b5b0492506002810190505b600a83106127d2576001810190505b80915050919050565b828054828255906000526020600020908101928215612817579160200282015b828111156128165782518255916020019190600101906127fb565b5b5090506128249190612868565b5090565b50805461283490612e6e565b6000825580601f106128465750612865565b601f0160209004906000526020600020908101906128649190612868565b5b50565b5b80821115612881576000816000905550600101612869565b5090565b6000604051905090565b600080fd5b600080fd5b60007fffffffff0000000000000000000000000000000000000000000000000000000082169050919050565b6128ce81612899565b81146128d957600080fd5b50565b6000813590506128eb816128c5565b92915050565b6000602082840312156129075761290661288f565b5b6000612915848285016128dc565b91505092915050565b60008115159050919050565b6129338161291e565b82525050565b600060208201905061294e600083018461292a565b92915050565b600081519050919050565b600082825260208201905092915050565b60005b8381101561298e578082015181840152602081019050612973565b60008484015250505050565b6000601f19601f8301169050919050565b60006129b682612954565b6129c0818561295f565b93506129d0818560208601612970565b6129d98161299a565b840191505092915050565b600060208201905081810360008301526129fe81846129ab565b905092915050565b6000819050919050565b612a1981612a06565b8114612a2457600080fd5b50565b600081359050612a3681612a10565b92915050565b600060208284031215612a5257612a5161288f565b5b6000612a6084828501612a27565b91505092915050565b600073ffffffffffffffffffffffffffffffffffffffff82169050919050565b6000612a9482612a69565b9050919050565b612aa481612a89565b82525050565b6000602082019050612abf6000830184612a9b565b92915050565b612ace81612a89565b8114612ad957600080fd5b50565b600081359050612aeb81612ac5565b92915050565b60008060408385031215612b0857612b0761288f565b5b6000612b1685828601612adc565b9250506020612b2785828601612a27565b9150509250929050565b612b3a81612a06565b82525050565b6000602082019050612b556000830184612b31565b92915050565b600080600060608486031215612b7457612b7361288f565b5b6000612b8286828701612adc565b9350506020612b9386828701612adc565b9250506040612ba486828701612a27565b9150509250925092565b600060208284031215612bc457612bc361288f565b5b6000612bd284828501612adc565b91505092915050565b612be48161291e565b8114612bef57600080fd5b50565b600081359050612c0181612bdb565b92915050565b60008060408385031215612c1e57612c1d61288f565b5b6000612c2c85828601612adc565b9250506020612c3d85828601612bf2565b9150509250929050565b600080fd5b600080fd5b7f4e487b7100000000000000000000000000000000000000000000000000000000600052604160045260246000fd5b612c898261299a565b810181811067ffffffffffffffff82111715612ca857612ca7612c51565b5b80604052505050565b6000612cbb612885565b9050612cc78282612c80565b919050565b600067ffffffffffffffff821115612ce757612ce6612c51565b5b612cf08261299a565b9050602081019050919050565b82818337600083830152505050565b6000612d1f612d1a84612ccc565b612cb1565b905082815260208101848484011115612d3b57612d3a612c4c565b5b612d46848285612cfd565b509392505050565b600082601f830112612d6357612d62612c47565b5b8135612d73848260208601612d0c565b91505092915050565b60008060008060808587031215612d9657612d9561288f565b5b6000612da487828801612adc565b9450506020612db587828801612adc565b9350506040612dc687828801612a27565b925050606085013567ffffffffffffffff811115612de757612de6612894565b5b612df387828801612d4e565b91505092959194509250565b60008060408385031215612e1657612e1561288f565b5b6000612e2485828601612adc565b9250506020612e3585828601612adc565b9150509250929050565b7f4e487b7100000000000000000000000000000000000000000000000000000000600052602260045260246000fd5b60006002820490506001821680612e8657607f821691505b602082108103612e9957612e98612e3f565b5b50919050565b7f4552433732313a20617070726f76616c20746f2063757272656e74206f776e6560008201527f7200000000000000000000000000000000000000000000000000000000000000602082015250565b6000612efb60218361295f565b9150612f0682612e9f565b604082019050919050565b60006020820190508181036000830152612f2a81612eee565b9050919050565b7f4552433732313a20617070726f76652063616c6c6572206973206e6f7420746f60008201527f6b656e206f776e6572206f7220617070726f76656420666f7220616c6c000000602082015250565b6000612f8d603d8361295f565b9150612f9882612f31565b604082019050919050565b60006020820190508181036000830152612fbc81612f80565b9050919050565b7f4552433732313a2063616c6c6572206973206e6f7420746f6b656e206f776e6560008201527f72206f7220617070726f76656400000000000000000000000000000000000000602082015250565b600061301f602d8361295f565b915061302a82612fc3565b604082019050919050565b6000602082019050818103600083015261304e81613012565b9050919050565b7f4552433732313a20696e76616c696420746f6b656e2049440000000000000000600082015250565b600061308b60188361295f565b915061309682613055565b602082019050919050565b600060208201905081810360008301526130ba8161307e565b9050919050565b7f4552433732313a2061646472657373207a65726f206973206e6f74206120766160008201527f6c6964206f776e65720000000000000000000000000000000000000000000000602082015250565b600061311d60298361295f565b9150613128826130c1565b604082019050919050565b6000602082019050818103600083015261314c81613110565b9050919050565b7f4e6f207469656e6573207469636b65747320737566696369656e746573000000600082015250565b6000613189601d8361295f565b915061319482613153565b602082019050919050565b600060208201905081810360008301526131b88161317c565b9050919050565b7f4e487b7100000000000000000000000000000000000000000000000000000000600052601160045260246000fd5b60006131f982612a06565b915061320483612a06565b925082820390508181111561321c5761321b6131bf565b5b92915050565b7f4e487b7100000000000000000000000000000000000000000000000000000000600052603260045260246000fd5b7f4e487b7100000000000000000000000000000000000000000000000000000000600052603160045260246000fd5b600061328b82612a06565b91507fffffffffffffffffffffffffffffffffffffffffffffffffffffffffffffffff82036132bd576132bc6131bf565b5b600182019050919050565b60006132d382612a06565b91506132de83612a06565b92508282026132ec81612a06565b91508282048414831517613303576133026131bf565b5b5092915050565b7f53616c646f20696e737566696369656e74650000000000000000000000000000600082015250565b600061334060128361295f565b915061334b8261330a565b602082019050919050565b6000602082019050818103600083015261336f81613333565b9050919050565b7f4c6f2073656e74696d6f732c20736f6c6f2070756564657320636f6d7072617260008201527f20756e207469636b657400000000000000000000000000000000000000000000602082015250565b60006133d2602a8361295f565b91506133dd82613376565b604082019050919050565b60006020820190508181036000830152613401816133c5565b9050919050565b7f56617961207961207469656e657320756e207469636b65742c206e6f2065732060008201527f706f7369626c6520636f6d70726172206d617300000000000000000000000000602082015250565b600061346460338361295f565b915061346f82613408565b604082019050919050565b6000602082019050818103600083015261349381613457565b9050919050565b600081905092915050565b60006134b082612954565b6134ba818561349a565b93506134ca818560208601612970565b80840191505092915050565b60006134e282856134a5565b91506134ee82846134a5565b91508190509392505050565b7f4f776e61626c653a206e6577206f776e657220697320746865207a65726f206160008201527f6464726573730000000000000000000000000000000000000000000000000000602082015250565b600061355660268361295f565b9150613561826134fa565b604082019050919050565b6000602082019050818103600083015261358581613549565b9050919050565b7f4552433732313a207472616e736665722066726f6d20696e636f72726563742060008201527f6f776e6572000000000000000000000000000000000000000000000000000000602082015250565b60006135e860258361295f565b91506135f38261358c565b604082019050919050565b60006020820190508181036000830152613617816135db565b9050919050565b7f4552433732313a207472616e7366657220746f20746865207a65726f2061646460008201527f7265737300000000000000000000000000000000000000000000000000000000602082015250565b600061367a60248361295f565b91506136858261361e565b604082019050919050565b600060208201905081810360008301526136a98161366d565b9050919050565b7f4f776e61626c653a2063616c6c6572206973206e6f7420746865206f776e6572600082015250565b60006136e660208361295f565b91506136f1826136b0565b602082019050919050565b60006020820190508181036000830152613715816136d9565b9050919050565b7f4552433732313a20617070726f766520746f2063616c6c657200000000000000600082015250565b600061375260198361295f565b915061375d8261371c565b602082019050919050565b6000602082019050818103600083015261378181613745565b9050919050565b7f4552433732313a207472616e7366657220746f206e6f6e20455243373231526560008201527f63656976657220696d706c656d656e7465720000000000000000000000000000602082015250565b60006137e460328361295f565b91506137ef82613788565b604082019050919050565b60006020820190508181036000830152613813816137d7565b9050919050565b7f4552433732313a206d696e7420746f20746865207a65726f2061646472657373600082015250565b600061385060208361295f565b915061385b8261381a565b602082019050919050565b6000602082019050818103600083015261387f81613843565b9050919050565b7f4552433732313a20746f6b656e20616c7265616479206d696e74656400000000600082015250565b60006138bc601c8361295f565b91506138c782613886565b602082019050919050565b600060208201905081810360008301526138eb816138af565b9050919050565b7f45524337323155524953746f726167653a2055524920736574206f66206e6f6e60008201527f6578697374656e7420746f6b656e000000000000000000000000000000000000602082015250565b600061394e602e8361295f565b9150613959826138f2565b604082019050919050565b6000602082019050818103600083015261397d81613941565b9050919050565b60008190508160005260206000209050919050565b60006020601f8301049050919050565b600082821b905092915050565b6000600883026139e67fffffffffffffffffffffffffffffffffffffffffffffffffffffffffffffffff826139a9565b6139f086836139a9565b95508019841693508086168417925050509392505050565b6000819050919050565b6000613a2d613a28613a2384612a06565b613a08565b612a06565b9050919050565b6000819050919050565b613a4783613a12565b613a5b613a5382613a34565b8484546139b6565b825550505050565b600090565b613a70613a63565b613a7b818484613a3e565b505050565b5b81811015613a9f57613a94600082613a68565b600181019050613a81565b5050565b601f821115613ae457613ab581613984565b613abe84613999565b81016020851015613acd578190505b613ae1613ad985613999565b830182613a80565b50505b505050565b600082821c905092915050565b6000613b0760001984600802613ae9565b1980831691505092915050565b6000613b208383613af6565b9150826002028217905092915050565b613b3982612954565b67ffffffffffffffff811115613b5257613b51612c51565b5b613b5c8254612e6e565b613b67828285613aa3565b600060209050601f831160018114613b9a5760008415613b88578287015190505b613b928582613b14565b865550613bfa565b601f198416613ba886613984565b60005b82811015613bd057848901518255600182019150602085019450602081019050613bab565b86831015613bed5784890151613be9601f891682613af6565b8355505b6001600288020188555050505b505050505050565b600081519050919050565b600082825260208201905092915050565b6000613c2982613c02565b613c338185613c0d565b9350613c43818560208601612970565b613c4c8161299a565b840191505092915050565b6000608082019050613c6c6000830187612a9b565b613c796020830186612a9b565b613c866040830185612b31565b8181036060830152613c988184613c1e565b905095945050505050565b600081519050613cb2816128c5565b92915050565b600060208284031215613cce57613ccd61288f565b5b6000613cdc84828501613ca3565b91505092915050565b7f4e487b7100000000000000000000000000000000000000000000000000000000600052601260045260246000fdfe68747470733a2f2f626c6f636b7469636b2e696e667572612d697066732e696f2f697066732f516d5470375a646d6b3445537143444d7a5a4859384e676e4b3370557672796d71394259785a5a426e4e50566d74a2646970667358221220d05e3de4a2acb05eac17328aa1d879ff3d2e8e6bd92e529293bd346e5c1320bc64736f6c63430008130033a2646970667358221220817332d5c3afc9165def35bbe1c235e67c6f6baf94198155060ea4e826ef702264736f6c63430008130033",
  "immutableReferences": {},
  "source": "// SPDX-License-Identifier: MIT\r\npragma solidity >=0.8.0 <0.9.0;\r\n\r\nimport \"@openzeppelin/contracts/token/ERC721/extensions/ERC721URIStorage.sol\";\r\nimport \"@openzeppelin/contracts/access/Ownable.sol\";\r\nimport \"@openzeppelin/contracts/utils/Counters.sol\";\r\n\r\ncontract EventNFTManager is ERC721URIStorage, Ownable {\r\n\r\n    string public eventName;\r\n    string public eventOrganizer;\r\n    string public eventCategory;\r\n    address public eventOwner;\r\n    uint256 public ticketPrice;\r\n\r\n    constructor(\r\n        string memory _eventName,\r\n        string memory _eventOrganizer,\r\n        string memory _eventCategory,\r\n        address _owner,\r\n        uint256 _ticketPrice\r\n    ) ERC721(string.concat(_eventName,\" TicketNFT\"), \"TICKET\")  {\r\n        eventName = _eventName;\r\n        eventOrganizer = _eventOrganizer;\r\n        eventCategory = _eventCategory;\r\n        eventOwner = _owner;\r\n        ticketPrice = _ticketPrice;\r\n\r\n        transferOwnership(eventOwner);\r\n    }\r\n\r\n    function getPrice() public view returns (uint256) {\r\n        return ticketPrice;\r\n    }\r\n\r\n\r\n    using Counters for Counters.Counter;\r\n    Counters.Counter private tokenIdCounter;\r\n\r\n    \r\n    mapping(address => uint256[]) public ticketHolders;\r\n\r\n\r\n    function changeTicketPriceTest(uint _newPrice) onlyOwner public {\r\n       ticketPrice = _newPrice;\r\n    }\r\n   \r\n   function buyTickets(address _user, uint256 _amount) payable public {\r\n    //el hecho de que el propietario del tiquet lo pases por parmetro permite que tu puedas comprar tiquets para otro,\r\n    //entiendo que es el objetivo y estla permitido, de lo contrario _user debera ser msg.sender, para que restringir a que uno solo pueda comprar sus tiquets \r\n        require(msg.value >= ticketPrice * _amount, \"Saldo insuficiente\");\r\n        require(_amount == 1, \"Lo sentimos, solo puedes comprar un ticket\");\r\n        require(ticketHolders[msg.sender].length == 0, \"Vaya ya tienes un ticket, no es posible comprar mas\");\r\n        uint256[] memory tokenIds = _mintNFTs(_user, _amount);\r\n        ticketHolders[_user] = tokenIds;\r\n    }\r\n\r\n    function  buyOneTicketForMe() payable public {\r\n    //si queremos acotar a que solo puede comprar un tiquet y es para esa persona, no le dara opcin en la funcin a otras cosas \r\n        require(msg.value >= ticketPrice , \"Saldo insuficiente\");   // _amount = 1\r\n        require(ticketHolders[msg.sender].length == 0, \"Vaya ya tienes un ticket, no es posible comprar mas\");\r\n        uint256[] memory tokenIds = _mintNFTs(msg.sender, 1);\r\n        ticketHolders[msg.sender] = tokenIds;\r\n    }\r\n\r\n\r\n    function useTickets(address _user, uint256 _amount) public {\r\n        require(ticketHolders[_user].length >= _amount, \"No tienes tickets suficientes\");\r\n        \r\n        for (uint256 i = 0; i < _amount; i++) {\r\n            uint256 tokenId = ticketHolders[_user][ticketHolders[_user].length - 1];\r\n            ticketHolders[_user].pop();\r\n            _burn(tokenId);\r\n        }\r\n    }\r\n\r\n    function _mintNFTs(address _user, uint256 _amount) internal returns (uint256[] memory) {\r\n\r\n       require(_amount == 1, \"Lo sentimos, solo puedes comprar un ticket\"); \r\n        uint256[] memory newTokenIds = new uint256[](_amount);\r\n\r\n        string memory ipfsUrl = \"https://blocktick.infura-ipfs.io/ipfs/QmTp7Zdmk4ESqCDMzZHY8NgnK3pUvrymq9BYxZZBnNPVmt\";\r\n\r\n        for (uint256 i = 0; i < _amount; i++) {\r\n            uint256 tokenId = tokenIdCounter.current();\r\n            _mint(_user, tokenId);\r\n            _setTokenURI(tokenId, ipfsUrl);\r\n            tokenIdCounter.increment();\r\n            newTokenIds[i] = tokenId;\r\n        }\r\n        \r\n        return newTokenIds;\r\n    }\r\n\r\n}\r\n\r\ncontract EventFactory is Ownable{\r\n    address[] public eventsCreated;\r\n\r\n    function createEvent( string memory  _eventName, string memory  _eventOrganizer,   string memory  _eventCategory ,    uint256 _ticketPrice  ) public onlyOwner {\r\n            address eventOwner = msg.sender;\r\n            EventNFTManager newEvent = new EventNFTManager(_eventName,_eventOrganizer,_eventCategory,eventOwner,_ticketPrice);\r\n            eventsCreated.push(address(newEvent));\r\n    }\r\n\r\n    function getEventPrice(uint index) public view  returns (uint){\r\n            return EventNFTManager(eventsCreated[index]).getPrice();\r\n    }\r\n\r\n}\r\n",
  "sourcePath": "D:\\Documentos\\BLOCKCHAIN\\Doble Grado BlockChain\\Blockchain Engineering\\TFM - Enginering - SEP 2023\\BLOCKTICK ETHEREUM\\BLOCKTICK\\Ethereum-Blocktick\\contracts\\blockTick.sol",
  "compiler": {
    "name": "solc",
    "version": "0.8.19+commit.7dd6d404.Emscripten.clang"
  },
  "schemaVersion": "3.4.13",
  "updatedAt": "2023-10-12T16:10:44.052Z",
  "devdoc": {
    "kind": "dev",
    "methods": {
      "owner()": {
        "details": "Returns the address of the current owner."
      },
      "renounceOwnership()": {
        "details": "Leaves the contract without owner. It will not be possible to call `onlyOwner` functions. Can only be called by the current owner. NOTE: Renouncing ownership will leave the contract without an owner, thereby disabling any functionality that is only available to the owner."
      },
      "transferOwnership(address)": {
        "details": "Transfers ownership of the contract to a new account (`newOwner`). Can only be called by the current owner."
      }
    },
    "version": 1
  },
  "userdoc": {
    "kind": "user",
    "methods": {},
    "version": 1
  }
}