{
  "contractName": "EventFactory",
  "abi": [
    {
      "inputs": [
        {
          "internalType": "uint256",
          "name": "",
          "type": "uint256"
        }
      ],
      "name": "eventsCreated",
      "outputs": [
        {
          "internalType": "address",
          "name": "",
          "type": "address"
        }
      ],
      "stateMutability": "view",
      "type": "function"
    },
    {
      "inputs": [
        {
          "internalType": "string",
          "name": "_eventName",
          "type": "string"
        },
        {
          "internalType": "string",
          "name": "_eventOrganizer",
          "type": "string"
        },
        {
          "internalType": "string",
          "name": "_eventCategory",
          "type": "string"
        },
        {
          "internalType": "uint256",
          "name": "_ticketPrice",
          "type": "uint256"
        }
      ],
      "name": "createEvent",
      "outputs": [],
      "stateMutability": "nonpayable",
      "type": "function"
    },
    {
      "inputs": [
        {
          "internalType": "uint256",
          "name": "index",
          "type": "uint256"
        }
      ],
      "name": "getEventPrice",
      "outputs": [
        {
          "internalType": "uint256",
          "name": "",
          "type": "uint256"
        }
      ],
      "stateMutability": "view",
      "type": "function"
    },
    {
      "inputs": [],
      "name": "getAllEvents",
      "outputs": [
        {
          "internalType": "uint256",
          "name": "cantidad",
          "type": "uint256"
        },
        {
          "internalType": "address[]",
          "name": "listadoEventos",
          "type": "address[]"
        }
      ],
      "stateMutability": "view",
      "type": "function"
    },
    {
      "inputs": [],
      "name": "getLastEventCreated",
      "outputs": [
        {
          "internalType": "address",
          "name": "",
          "type": "address"
        }
      ],
      "stateMutability": "view",
      "type": "function"
    }
  ],
  "bytecode": "0x608060405234801561001057600080fd5b50615469806100206000396000f3fe60806040523480156200001157600080fd5b50600436106200005e5760003560e01c80636a4bdf361462000063578063c27a500d1462000085578063de4cd84214620000a8578063df1383a214620000c8578063e3e35a1f14620000fe575b600080fd5b6200006d62000134565b6040516200007c919062000430565b60405180910390f35b6200008f6200018f565b6040516200009f92919062000536565b60405180910390f35b620000c66004803603810190620000c0919062000711565b6200022d565b005b620000e66004803603810190620000e09190620007e0565b620002e2565b604051620000f5919062000812565b60405180910390f35b6200011c6004803603810190620001169190620007e0565b6200039d565b6040516200012b919062000430565b60405180910390f35b60008060016000805490506200014b91906200085e565b815481106200015f576200015e62000899565b5b9060005260206000200160009054906101000a900473ffffffffffffffffffffffffffffffffffffffff16905090565b600060606000805490506000808054806020026020016040519081016040528092919081815260200182805480156200021e57602002820191906000526020600020905b8160009054906101000a900473ffffffffffffffffffffffffffffffffffffffff1673ffffffffffffffffffffffffffffffffffffffff1681526020019060010190808311620001d3575b50505050509050915091509091565b6000339050600085858584866040516200024790620003dd565b6200025795949392919062000951565b604051809103906000f08015801562000274573d6000803e3d6000fd5b5090506000819080600181540180825580915050600190039060005260206000200160009091909190916101000a81548173ffffffffffffffffffffffffffffffffffffffff021916908373ffffffffffffffffffffffffffffffffffffffff160217905550505050505050565b6000808281548110620002fa57620002f962000899565b5b9060005260206000200160009054906101000a900473ffffffffffffffffffffffffffffffffffffffff1673ffffffffffffffffffffffffffffffffffffffff166398d5fdca6040518163ffffffff1660e01b8152600401602060405180830381865afa15801562000370573d6000803e3d6000fd5b505050506040513d601f19601f82011682018060405250810190620003969190620009da565b9050919050565b60008181548110620003ae57600080fd5b906000526020600020016000915054906101000a900473ffffffffffffffffffffffffffffffffffffffff1681565b614a278062000a0d83390190565b600073ffffffffffffffffffffffffffffffffffffffff82169050919050565b60006200041882620003eb565b9050919050565b6200042a816200040b565b82525050565b60006020820190506200044760008301846200041f565b92915050565b6000819050919050565b62000462816200044d565b82525050565b600081519050919050565b600082825260208201905092915050565b6000819050602082019050919050565b6200049f816200040b565b82525050565b6000620004b3838362000494565b60208301905092915050565b6000602082019050919050565b6000620004d98262000468565b620004e5818562000473565b9350620004f28362000484565b8060005b83811015620005295781516200050d8882620004a5565b97506200051a83620004bf565b925050600181019050620004f6565b5085935050505092915050565b60006040820190506200054d600083018562000457565b8181036020830152620005618184620004cc565b90509392505050565b6000604051905090565b600080fd5b600080fd5b600080fd5b600080fd5b6000601f19601f8301169050919050565b7f4e487b7100000000000000000000000000000000000000000000000000000000600052604160045260246000fd5b620005d38262000588565b810181811067ffffffffffffffff82111715620005f557620005f462000599565b5b80604052505050565b60006200060a6200056a565b9050620006188282620005c8565b919050565b600067ffffffffffffffff8211156200063b576200063a62000599565b5b620006468262000588565b9050602081019050919050565b82818337600083830152505050565b60006200067962000673846200061d565b620005fe565b90508281526020810184848401111562000698576200069762000583565b5b620006a584828562000653565b509392505050565b600082601f830112620006c557620006c46200057e565b5b8135620006d784826020860162000662565b91505092915050565b620006eb816200044d565b8114620006f757600080fd5b50565b6000813590506200070b81620006e0565b92915050565b600080600080608085870312156200072e576200072d62000574565b5b600085013567ffffffffffffffff8111156200074f576200074e62000579565b5b6200075d87828801620006ad565b945050602085013567ffffffffffffffff81111562000781576200078062000579565b5b6200078f87828801620006ad565b935050604085013567ffffffffffffffff811115620007b357620007b262000579565b5b620007c187828801620006ad565b9250506060620007d487828801620006fa565b91505092959194509250565b600060208284031215620007f957620007f862000574565b5b60006200080984828501620006fa565b91505092915050565b600060208201905062000829600083018462000457565b92915050565b7f4e487b7100000000000000000000000000000000000000000000000000000000600052601160045260246000fd5b60006200086b826200044d565b915062000878836200044d565b92508282039050818111156200089357620008926200082f565b5b92915050565b7f4e487b7100000000000000000000000000000000000000000000000000000000600052603260045260246000fd5b600081519050919050565b600082825260208201905092915050565b60005b8381101562000904578082015181840152602081019050620008e7565b60008484015250505050565b60006200091d82620008c8565b620009298185620008d3565b93506200093b818560208601620008e4565b620009468162000588565b840191505092915050565b600060a08201905081810360008301526200096d818862000910565b9050818103602083015262000983818762000910565b9050818103604083015262000999818662000910565b9050620009aa60608301856200041f565b620009b9608083018462000457565b9695505050505050565b600081519050620009d481620006e0565b92915050565b600060208284031215620009f357620009f262000574565b5b600062000a0384828501620009c3565b9150509291505056fe60806040523480156200001157600080fd5b5060405162004a2738038062004a2783398181016040528101906200003791906200045f565b846040516020016200004a9190620005b7565b6040516020818303038152906040526040518060400160405280600681526020017f5449434b455400000000000000000000000000000000000000000000000000008152508160009081620000a0919062000817565b508060019081620000b2919062000817565b505050620000d5620000c96200015e60201b60201c565b6200016660201b60201c565b8460089081620000e6919062000817565b508360099081620000f8919062000817565b5082600a90816200010a919062000817565b5081600b60006101000a81548173ffffffffffffffffffffffffffffffffffffffff021916908373ffffffffffffffffffffffffffffffffffffffff16021790555080600c819055505050505050620008fe565b600033905090565b6000600760009054906101000a900473ffffffffffffffffffffffffffffffffffffffff16905081600760006101000a81548173ffffffffffffffffffffffffffffffffffffffff021916908373ffffffffffffffffffffffffffffffffffffffff1602179055508173ffffffffffffffffffffffffffffffffffffffff168173ffffffffffffffffffffffffffffffffffffffff167f8be0079c531659141344cd1fd0a4f28419497f9722a3daafe3b4186f6b6457e060405160405180910390a35050565b6000604051905090565b600080fd5b600080fd5b600080fd5b600080fd5b6000601f19601f8301169050919050565b7f4e487b7100000000000000000000000000000000000000000000000000000000600052604160045260246000fd5b62000295826200024a565b810181811067ffffffffffffffff82111715620002b757620002b66200025b565b5b80604052505050565b6000620002cc6200022c565b9050620002da82826200028a565b919050565b600067ffffffffffffffff821115620002fd57620002fc6200025b565b5b62000308826200024a565b9050602081019050919050565b60005b838110156200033557808201518184015260208101905062000318565b60008484015250505050565b6000620003586200035284620002df565b620002c0565b90508281526020810184848401111562000377576200037662000245565b5b6200038484828562000315565b509392505050565b600082601f830112620003a457620003a362000240565b5b8151620003b684826020860162000341565b91505092915050565b600073ffffffffffffffffffffffffffffffffffffffff82169050919050565b6000620003ec82620003bf565b9050919050565b620003fe81620003df565b81146200040a57600080fd5b50565b6000815190506200041e81620003f3565b92915050565b6000819050919050565b620004398162000424565b81146200044557600080fd5b50565b60008151905062000459816200042e565b92915050565b600080600080600060a086880312156200047e576200047d62000236565b5b600086015167ffffffffffffffff8111156200049f576200049e6200023b565b5b620004ad888289016200038c565b955050602086015167ffffffffffffffff811115620004d157620004d06200023b565b5b620004df888289016200038c565b945050604086015167ffffffffffffffff8111156200050357620005026200023b565b5b62000511888289016200038c565b935050606062000524888289016200040d565b9250506080620005378882890162000448565b9150509295509295909350565b600081519050919050565b600081905092915050565b6000620005678262000544565b6200057381856200054f565b93506200058581856020860162000315565b80840191505092915050565b7f205469636b65744e465400000000000000000000000000000000000000000000815250565b6000620005c582846200055a565b9150620005d28262000591565b600a8201915081905092915050565b7f4e487b7100000000000000000000000000000000000000000000000000000000600052602260045260246000fd5b600060028204905060018216806200062957607f821691505b6020821081036200063f576200063e620005e1565b5b50919050565b60008190508160005260206000209050919050565b60006020601f8301049050919050565b600082821b905092915050565b600060088302620006a97fffffffffffffffffffffffffffffffffffffffffffffffffffffffffffffffff826200066a565b620006b586836200066a565b95508019841693508086168417925050509392505050565b6000819050919050565b6000620006f8620006f2620006ec8462000424565b620006cd565b62000424565b9050919050565b6000819050919050565b6200071483620006d7565b6200072c6200072382620006ff565b84845462000677565b825550505050565b600090565b6200074362000734565b6200075081848462000709565b505050565b5b8181101562000778576200076c60008262000739565b60018101905062000756565b5050565b601f821115620007c757620007918162000645565b6200079c846200065a565b81016020851015620007ac578190505b620007c4620007bb856200065a565b83018262000755565b50505b505050565b600082821c905092915050565b6000620007ec60001984600802620007cc565b1980831691505092915050565b6000620008078383620007d9565b9150826002028217905092915050565b620008228262000544565b67ffffffffffffffff8111156200083e576200083d6200025b565b5b6200084a825462000610565b620008578282856200077c565b600060209050601f8311600181146200088f57600084156200087a578287015190505b620008868582620007f9565b865550620008f6565b601f1984166200089f8662000645565b60005b82811015620008c957848901518255600182019150602085019450602081019050620008a2565b86831015620008e95784890151620008e5601f891682620007d9565b8355505b6001600288020188555050505b505050505050565b614119806200090e6000396000f3fe6080604052600436106101b75760003560e01c80637514d7cb116100ec57806398d5fdca1161008a578063c87b56dd11610064578063c87b56dd146105da578063e985e9c514610617578063f2fde38b14610654578063fb3366081461067d576101b7565b806398d5fdca1461055d578063a22cb46514610588578063b88d4fde146105b1576101b7565b8063831d14ae116100c6578063831d14ae146104c057806388f57767146104eb5780638da5cb5b1461050757806395d89b4114610532576101b7565b80637514d7cb1461045357806379ca7d041461047e5780638043c9c014610495576101b7565b806323b872dd116101595780636352211e116101335780636352211e146103995780636ee16e00146103d657806370a08231146103ff578063715018a61461043c576101b7565b806323b872dd1461031e57806337d9c20e1461034757806342842e0e14610370576101b7565b8063095ea7b311610195578063095ea7b3146102615780630ad182bc1461028a5780631209b1f6146102c857806320214134146102f3576101b7565b806301ffc9a7146101bc57806306fdde03146101f9578063081812fc14610224575b600080fd5b3480156101c857600080fd5b506101e360048036038101906101de9190612b7e565b610687565b6040516101f09190612bc6565b60405180910390f35b34801561020557600080fd5b5061020e6106e8565b60405161021b9190612c71565b60405180910390f35b34801561023057600080fd5b5061024b60048036038101906102469190612cc9565b61077a565b6040516102589190612d37565b60405180910390f35b34801561026d57600080fd5b5061028860048036038101906102839190612d7e565b6107c0565b005b34801561029657600080fd5b506102b160048036038101906102ac9190612dbe565b6108d7565b6040516102bf929190612eb8565b60405180910390f35b3480156102d457600080fd5b506102dd6109b8565b6040516102ea9190612ee8565b60405180910390f35b3480156102ff57600080fd5b506103086109be565b6040516103159190612d37565b60405180910390f35b34801561032a57600080fd5b5061034560048036038101906103409190612f03565b6109e4565b005b34801561035357600080fd5b5061036e60048036038101906103699190612cc9565b610a44565b005b34801561037c57600080fd5b5061039760048036038101906103929190612f03565b610c0e565b005b3480156103a557600080fd5b506103c060048036038101906103bb9190612cc9565b610c2e565b6040516103cd9190612d37565b60405180910390f35b3480156103e257600080fd5b506103fd60048036038101906103f89190612cc9565b610cb4565b005b34801561040b57600080fd5b5061042660048036038101906104219190612dbe565b610cc6565b6040516104339190612ee8565b60405180910390f35b34801561044857600080fd5b50610451610d7d565b005b34801561045f57600080fd5b50610468610d91565b6040516104759190612c71565b60405180910390f35b34801561048a57600080fd5b50610493610e1f565b005b3480156104a157600080fd5b506104aa610fca565b6040516104b79190612c71565b60405180910390f35b3480156104cc57600080fd5b506104d5611058565b6040516104e29190612c71565b60405180910390f35b61050560048036038101906105009190612d7e565b6110e6565b005b34801561051357600080fd5b5061051c61125f565b6040516105299190612d37565b60405180910390f35b34801561053e57600080fd5b50610547611289565b6040516105549190612c71565b60405180910390f35b34801561056957600080fd5b5061057261131b565b60405161057f9190612ee8565b60405180910390f35b34801561059457600080fd5b506105af60048036038101906105aa9190612f82565b611325565b005b3480156105bd57600080fd5b506105d860048036038101906105d391906130f7565b61133b565b005b3480156105e657600080fd5b5061060160048036038101906105fc9190612cc9565b61139d565b60405161060e9190612c71565b60405180910390f35b34801561062357600080fd5b5061063e6004803603810190610639919061317a565b6114af565b60405161064b9190612bc6565b60405180910390f35b34801561066057600080fd5b5061067b60048036038101906106769190612dbe565b611543565b005b6106856115c6565b005b6000634906490660e01b7bffffffffffffffffffffffffffffffffffffffffffffffffffffffff1916827bffffffffffffffffffffffffffffffffffffffffffffffffffffffff191614806106e157506106e0826116f6565b5b9050919050565b6060600080546106f7906131e9565b80601f0160208091040260200160405190810160405280929190818152602001828054610723906131e9565b80156107705780601f1061074557610100808354040283529160200191610770565b820191906000526020600020905b81548152906001019060200180831161075357829003601f168201915b5050505050905090565b6000610785826117d8565b6004600083815260200190815260200160002060009054906101000a900473ffffffffffffffffffffffffffffffffffffffff169050919050565b60006107cb82610c2e565b90508073ffffffffffffffffffffffffffffffffffffffff168373ffffffffffffffffffffffffffffffffffffffff160361083b576040517f08c379a00000000000000000000000000000000000000000000000000000000081526004016108329061328c565b60405180910390fd5b8073ffffffffffffffffffffffffffffffffffffffff1661085a611823565b73ffffffffffffffffffffffffffffffffffffffff161480610889575061088881610883611823565b6114af565b5b6108c8576040517f08c379a00000000000000000000000000000000000000000000000000000000081526004016108bf9061331e565b60405180910390fd5b6108d2838361182b565b505050565b60006060600e60008473ffffffffffffffffffffffffffffffffffffffff1673ffffffffffffffffffffffffffffffffffffffff16815260200190815260200160002080549050600e60008573ffffffffffffffffffffffffffffffffffffffff1673ffffffffffffffffffffffffffffffffffffffff168152602001908152602001600020808054806020026020016040519081016040528092919081815260200182805480156109a857602002820191906000526020600020905b815481526020019060010190808311610994575b5050505050905091509150915091565b600c5481565b600b60009054906101000a900473ffffffffffffffffffffffffffffffffffffffff1681565b6109f56109ef611823565b826118e4565b610a34576040517f08c379a0000000000000000000000000000000000000000000000000000000008152600401610a2b906133b0565b60405180910390fd5b610a3f838383611979565b505050565b600033905081600e60003373ffffffffffffffffffffffffffffffffffffffff1673ffffffffffffffffffffffffffffffffffffffff168152602001908152602001600020805490501015610ace576040517f08c379a0000000000000000000000000000000000000000000000000000000008152600401610ac59061341c565b60405180910390fd5b60005b82811015610c09576000600e60008473ffffffffffffffffffffffffffffffffffffffff1673ffffffffffffffffffffffffffffffffffffffff1681526020019081526020016000206001600e60008673ffffffffffffffffffffffffffffffffffffffff1673ffffffffffffffffffffffffffffffffffffffff16815260200190815260200160002080549050610b69919061346b565b81548110610b7a57610b7961349f565b5b90600052602060002001549050600e60008473ffffffffffffffffffffffffffffffffffffffff1673ffffffffffffffffffffffffffffffffffffffff168152602001908152602001600020805480610bd657610bd56134ce565b5b60019003818190600052602060002001600090559055610bf581611c72565b508080610c01906134fd565b915050610ad1565b505050565b610c298383836040518060200160405280600081525061133b565b505050565b600080610c3a83611cc5565b9050600073ffffffffffffffffffffffffffffffffffffffff168173ffffffffffffffffffffffffffffffffffffffff1603610cab576040517f08c379a0000000000000000000000000000000000000000000000000000000008152600401610ca290613591565b60405180910390fd5b80915050919050565b610cbc611d02565b80600c8190555050565b60008073ffffffffffffffffffffffffffffffffffffffff168273ffffffffffffffffffffffffffffffffffffffff1603610d36576040517f08c379a0000000000000000000000000000000000000000000000000000000008152600401610d2d90613623565b60405180910390fd5b600360008373ffffffffffffffffffffffffffffffffffffffff1673ffffffffffffffffffffffffffffffffffffffff168152602001908152602001600020549050919050565b610d85611d02565b610d8f6000611d80565b565b60098054610d9e906131e9565b80601f0160208091040260200160405190810160405280929190818152602001828054610dca906131e9565b8015610e175780601f10610dec57610100808354040283529160200191610e17565b820191906000526020600020905b815481529060010190602001808311610dfa57829003601f168201915b505050505081565b60003390506001600e60008373ffffffffffffffffffffffffffffffffffffffff1673ffffffffffffffffffffffffffffffffffffffff168152602001908152602001600020805490501015610eaa576040517f08c379a0000000000000000000000000000000000000000000000000000000008152600401610ea19061341c565b60405180910390fd5b6000600e60008373ffffffffffffffffffffffffffffffffffffffff1673ffffffffffffffffffffffffffffffffffffffff1681526020019081526020016000206001600e60008573ffffffffffffffffffffffffffffffffffffffff1673ffffffffffffffffffffffffffffffffffffffff16815260200190815260200160002080549050610f3a919061346b565b81548110610f4b57610f4a61349f565b5b90600052602060002001549050600e60008373ffffffffffffffffffffffffffffffffffffffff1673ffffffffffffffffffffffffffffffffffffffff168152602001908152602001600020805480610fa757610fa66134ce565b5b60019003818190600052602060002001600090559055610fc681611c72565b5050565b60088054610fd7906131e9565b80601f0160208091040260200160405190810160405280929190818152602001828054611003906131e9565b80156110505780601f1061102557610100808354040283529160200191611050565b820191906000526020600020905b81548152906001019060200180831161103357829003601f168201915b505050505081565b600a8054611065906131e9565b80601f0160208091040260200160405190810160405280929190818152602001828054611091906131e9565b80156110de5780601f106110b3576101008083540402835291602001916110de565b820191906000526020600020905b8154815290600101906020018083116110c157829003601f168201915b505050505081565b80600c546110f49190613643565b341015611136576040517f08c379a000000000000000000000000000000000000000000000000000000000815260040161112d906136d1565b60405180910390fd5b60018114611179576040517f08c379a000000000000000000000000000000000000000000000000000000000815260040161117090613763565b60405180910390fd5b6000600e60003373ffffffffffffffffffffffffffffffffffffffff1673ffffffffffffffffffffffffffffffffffffffff16815260200190815260200160002080549050146111fe576040517f08c379a00000000000000000000000000000000000000000000000000000000081526004016111f5906137f5565b60405180910390fd5b6112088282611e46565b600e60008473ffffffffffffffffffffffffffffffffffffffff1673ffffffffffffffffffffffffffffffffffffffff168152602001908152602001600020908051906020019061125a929190612a68565b505050565b6000600760009054906101000a900473ffffffffffffffffffffffffffffffffffffffff16905090565b606060018054611298906131e9565b80601f01602080910402602001604051908101604052809291908181526020018280546112c4906131e9565b80156113115780601f106112e657610100808354040283529160200191611311565b820191906000526020600020905b8154815290600101906020018083116112f457829003601f168201915b5050505050905090565b6000600c54905090565b611337611330611823565b8383611f6c565b5050565b61134c611346611823565b836118e4565b61138b576040517f08c379a0000000000000000000000000000000000000000000000000000000008152600401611382906133b0565b60405180910390fd5b611397848484846120d8565b50505050565b60606113a8826117d8565b60006006600084815260200190815260200160002080546113c8906131e9565b80601f01602080910402602001604051908101604052809291908181526020018280546113f4906131e9565b80156114415780601f1061141657610100808354040283529160200191611441565b820191906000526020600020905b81548152906001019060200180831161142457829003601f168201915b505050505090506000611452612134565b905060008151036114675781925050506114aa565b60008251111561149c578082604051602001611484929190613851565b604051602081830303815290604052925050506114aa565b6114a58461214b565b925050505b919050565b6000600560008473ffffffffffffffffffffffffffffffffffffffff1673ffffffffffffffffffffffffffffffffffffffff16815260200190815260200160002060008373ffffffffffffffffffffffffffffffffffffffff1673ffffffffffffffffffffffffffffffffffffffff16815260200190815260200160002060009054906101000a900460ff16905092915050565b61154b611d02565b600073ffffffffffffffffffffffffffffffffffffffff168173ffffffffffffffffffffffffffffffffffffffff16036115ba576040517f08c379a00000000000000000000000000000000000000000000000000000000081526004016115b1906138e7565b60405180910390fd5b6115c381611d80565b50565b600c5434101561160b576040517f08c379a0000000000000000000000000000000000000000000000000000000008152600401611602906136d1565b60405180910390fd5b6000600e60003373ffffffffffffffffffffffffffffffffffffffff1673ffffffffffffffffffffffffffffffffffffffff1681526020019081526020016000208054905014611690576040517f08c379a0000000000000000000000000000000000000000000000000000000008152600401611687906137f5565b60405180910390fd5b600061169d336001611e46565b905080600e60003373ffffffffffffffffffffffffffffffffffffffff1673ffffffffffffffffffffffffffffffffffffffff16815260200190815260200160002090805190602001906116f2929190612a68565b5050565b60007f80ac58cd000000000000000000000000000000000000000000000000000000007bffffffffffffffffffffffffffffffffffffffffffffffffffffffff1916827bffffffffffffffffffffffffffffffffffffffffffffffffffffffff191614806117c157507f5b5e139f000000000000000000000000000000000000000000000000000000007bffffffffffffffffffffffffffffffffffffffffffffffffffffffff1916827bffffffffffffffffffffffffffffffffffffffffffffffffffffffff1916145b806117d157506117d0826121b3565b5b9050919050565b6117e18161221d565b611820576040517f08c379a000000000000000000000000000000000000000000000000000000000815260040161181790613591565b60405180910390fd5b50565b600033905090565b816004600083815260200190815260200160002060006101000a81548173ffffffffffffffffffffffffffffffffffffffff021916908373ffffffffffffffffffffffffffffffffffffffff160217905550808273ffffffffffffffffffffffffffffffffffffffff1661189e83610c2e565b73ffffffffffffffffffffffffffffffffffffffff167f8c5be1e5ebec7d5bd14f71427d1e84f3dd0314c0f7b2291e5b200ac8c7c3b92560405160405180910390a45050565b6000806118f083610c2e565b90508073ffffffffffffffffffffffffffffffffffffffff168473ffffffffffffffffffffffffffffffffffffffff161480611932575061193181856114af565b5b8061197057508373ffffffffffffffffffffffffffffffffffffffff166119588461077a565b73ffffffffffffffffffffffffffffffffffffffff16145b91505092915050565b8273ffffffffffffffffffffffffffffffffffffffff1661199982610c2e565b73ffffffffffffffffffffffffffffffffffffffff16146119ef576040517f08c379a00000000000000000000000000000000000000000000000000000000081526004016119e690613979565b60405180910390fd5b600073ffffffffffffffffffffffffffffffffffffffff168273ffffffffffffffffffffffffffffffffffffffff1603611a5e576040517f08c379a0000000000000000000000000000000000000000000000000000000008152600401611a5590613a0b565b60405180910390fd5b611a6b838383600161225e565b8273ffffffffffffffffffffffffffffffffffffffff16611a8b82610c2e565b73ffffffffffffffffffffffffffffffffffffffff1614611ae1576040517f08c379a0000000000000000000000000000000000000000000000000000000008152600401611ad890613979565b60405180910390fd5b6004600082815260200190815260200160002060006101000a81549073ffffffffffffffffffffffffffffffffffffffff02191690556001600360008573ffffffffffffffffffffffffffffffffffffffff1673ffffffffffffffffffffffffffffffffffffffff168152602001908152602001600020600082825403925050819055506001600360008473ffffffffffffffffffffffffffffffffffffffff1673ffffffffffffffffffffffffffffffffffffffff16815260200190815260200160002060008282540192505081905550816002600083815260200190815260200160002060006101000a81548173ffffffffffffffffffffffffffffffffffffffff021916908373ffffffffffffffffffffffffffffffffffffffff160217905550808273ffffffffffffffffffffffffffffffffffffffff168473ffffffffffffffffffffffffffffffffffffffff167fddf252ad1be2c89b69c2b068fc378daa952ba7f163c4a11628f55a4df523b3ef60405160405180910390a4611c6d8383836001612264565b505050565b611c7b8161226a565b6000600660008381526020019081526020016000208054611c9b906131e9565b905014611cc257600660008281526020019081526020016000206000611cc19190612ab5565b5b50565b60006002600083815260200190815260200160002060009054906101000a900473ffffffffffffffffffffffffffffffffffffffff169050919050565b611d0a611823565b73ffffffffffffffffffffffffffffffffffffffff16611d2861125f565b73ffffffffffffffffffffffffffffffffffffffff1614611d7e576040517f08c379a0000000000000000000000000000000000000000000000000000000008152600401611d7590613a77565b60405180910390fd5b565b6000600760009054906101000a900473ffffffffffffffffffffffffffffffffffffffff16905081600760006101000a81548173ffffffffffffffffffffffffffffffffffffffff021916908373ffffffffffffffffffffffffffffffffffffffff1602179055508173ffffffffffffffffffffffffffffffffffffffff168173ffffffffffffffffffffffffffffffffffffffff167f8be0079c531659141344cd1fd0a4f28419497f9722a3daafe3b4186f6b6457e060405160405180910390a35050565b606060018214611e8b576040517f08c379a0000000000000000000000000000000000000000000000000000000008152600401611e8290613763565b60405180910390fd5b60008267ffffffffffffffff811115611ea757611ea6612fcc565b5b604051908082528060200260200182016040528015611ed55781602001602082028036833780820191505090505b509050600060405180608001604052806054815260200161409060549139905060005b84811015611f60576000611f0c600d6123b8565b9050611f1887826123c6565b611f2281846125e3565b611f2c600d612687565b80848381518110611f4057611f3f61349f565b5b602002602001018181525050508080611f58906134fd565b915050611ef8565b50819250505092915050565b8173ffffffffffffffffffffffffffffffffffffffff168373ffffffffffffffffffffffffffffffffffffffff1603611fda576040517f08c379a0000000000000000000000000000000000000000000000000000000008152600401611fd190613ae3565b60405180910390fd5b80600560008573ffffffffffffffffffffffffffffffffffffffff1673ffffffffffffffffffffffffffffffffffffffff16815260200190815260200160002060008473ffffffffffffffffffffffffffffffffffffffff1673ffffffffffffffffffffffffffffffffffffffff16815260200190815260200160002060006101000a81548160ff0219169083151502179055508173ffffffffffffffffffffffffffffffffffffffff168373ffffffffffffffffffffffffffffffffffffffff167f17307eab39ab6107e8899845ad3d59bd9653f200f220920489ca2b5937696c31836040516120cb9190612bc6565b60405180910390a3505050565b6120e3848484611979565b6120ef8484848461269d565b61212e576040517f08c379a000000000000000000000000000000000000000000000000000000000815260040161212590613b75565b60405180910390fd5b50505050565b606060405180602001604052806000815250905090565b6060612156826117d8565b6000612160612134565b9050600081511161218057604051806020016040528060008152506121ab565b8061218a84612824565b60405160200161219b929190613851565b6040516020818303038152906040525b915050919050565b60007f01ffc9a7000000000000000000000000000000000000000000000000000000007bffffffffffffffffffffffffffffffffffffffffffffffffffffffff1916827bffffffffffffffffffffffffffffffffffffffffffffffffffffffff1916149050919050565b60008073ffffffffffffffffffffffffffffffffffffffff1661223f83611cc5565b73ffffffffffffffffffffffffffffffffffffffff1614159050919050565b50505050565b50505050565b600061227582610c2e565b905061228581600084600161225e565b61228e82610c2e565b90506004600083815260200190815260200160002060006101000a81549073ffffffffffffffffffffffffffffffffffffffff02191690556001600360008373ffffffffffffffffffffffffffffffffffffffff1673ffffffffffffffffffffffffffffffffffffffff168152602001908152602001600020600082825403925050819055506002600083815260200190815260200160002060006101000a81549073ffffffffffffffffffffffffffffffffffffffff021916905581600073ffffffffffffffffffffffffffffffffffffffff168273ffffffffffffffffffffffffffffffffffffffff167fddf252ad1be2c89b69c2b068fc378daa952ba7f163c4a11628f55a4df523b3ef60405160405180910390a46123b4816000846001612264565b5050565b600081600001549050919050565b600073ffffffffffffffffffffffffffffffffffffffff168273ffffffffffffffffffffffffffffffffffffffff1603612435576040517f08c379a000000000000000000000000000000000000000000000000000000000815260040161242c90613be1565b60405180910390fd5b61243e8161221d565b1561247e576040517f08c379a000000000000000000000000000000000000000000000000000000000815260040161247590613c4d565b60405180910390fd5b61248c60008383600161225e565b6124958161221d565b156124d5576040517f08c379a00000000000000000000000000000000000000000000000000000000081526004016124cc90613c4d565b60405180910390fd5b6001600360008473ffffffffffffffffffffffffffffffffffffffff1673ffffffffffffffffffffffffffffffffffffffff16815260200190815260200160002060008282540192505081905550816002600083815260200190815260200160002060006101000a81548173ffffffffffffffffffffffffffffffffffffffff021916908373ffffffffffffffffffffffffffffffffffffffff160217905550808273ffffffffffffffffffffffffffffffffffffffff16600073ffffffffffffffffffffffffffffffffffffffff167fddf252ad1be2c89b69c2b068fc378daa952ba7f163c4a11628f55a4df523b3ef60405160405180910390a46125df600083836001612264565b5050565b6125ec8261221d565b61262b576040517f08c379a000000000000000000000000000000000000000000000000000000000815260040161262290613cdf565b60405180910390fd5b8060066000848152602001908152602001600020908161264b9190613eab565b507ff8e1a15aba9398e019f0b49df1a4fde98ee17ae345cb5f6b5e2c27f5033e8ce78260405161267b9190612ee8565b60405180910390a15050565b6001816000016000828254019250508190555050565b60006126be8473ffffffffffffffffffffffffffffffffffffffff166128f2565b15612817578373ffffffffffffffffffffffffffffffffffffffff1663150b7a026126e7611823565b8786866040518563ffffffff1660e01b81526004016127099493929190613fd2565b6020604051808303816000875af192505050801561274557506040513d601f19601f820116820180604052508101906127429190614033565b60015b6127c7573d8060008114612775576040519150601f19603f3d011682016040523d82523d6000602084013e61277a565b606091505b5060008151036127bf576040517f08c379a00000000000000000000000000000000000000000000000000000000081526004016127b690613b75565b60405180910390fd5b805181602001fd5b63150b7a0260e01b7bffffffffffffffffffffffffffffffffffffffffffffffffffffffff1916817bffffffffffffffffffffffffffffffffffffffffffffffffffffffff19161491505061281c565b600190505b949350505050565b60606000600161283384612915565b01905060008167ffffffffffffffff81111561285257612851612fcc565b5b6040519080825280601f01601f1916602001820160405280156128845781602001600182028036833780820191505090505b509050600082602001820190505b6001156128e7578080600190039150507f3031323334353637383961626364656600000000000000000000000000000000600a86061a8153600a85816128db576128da614060565b5b04945060008503612892575b819350505050919050565b6000808273ffffffffffffffffffffffffffffffffffffffff163b119050919050565b600080600090507a184f03e93ff9f4daa797ed6e38ed64bf6a1f0100000000000000008310612973577a184f03e93ff9f4daa797ed6e38ed64bf6a1f010000000000000000838161296957612968614060565b5b0492506040810190505b6d04ee2d6d415b85acef810000000083106129b0576d04ee2d6d415b85acef810000000083816129a6576129a5614060565b5b0492506020810190505b662386f26fc1000083106129df57662386f26fc1000083816129d5576129d4614060565b5b0492506010810190505b6305f5e1008310612a08576305f5e10083816129fe576129fd614060565b5b0492506008810190505b6127108310612a2d576127108381612a2357612a22614060565b5b0492506004810190505b60648310612a505760648381612a4657612a45614060565b5b0492506002810190505b600a8310612a5f576001810190505b80915050919050565b828054828255906000526020600020908101928215612aa4579160200282015b82811115612aa3578251825591602001919060010190612a88565b5b509050612ab19190612af5565b5090565b508054612ac1906131e9565b6000825580601f10612ad35750612af2565b601f016020900490600052602060002090810190612af19190612af5565b5b50565b5b80821115612b0e576000816000905550600101612af6565b5090565b6000604051905090565b600080fd5b600080fd5b60007fffffffff0000000000000000000000000000000000000000000000000000000082169050919050565b612b5b81612b26565b8114612b6657600080fd5b50565b600081359050612b7881612b52565b92915050565b600060208284031215612b9457612b93612b1c565b5b6000612ba284828501612b69565b91505092915050565b60008115159050919050565b612bc081612bab565b82525050565b6000602082019050612bdb6000830184612bb7565b92915050565b600081519050919050565b600082825260208201905092915050565b60005b83811015612c1b578082015181840152602081019050612c00565b60008484015250505050565b6000601f19601f8301169050919050565b6000612c4382612be1565b612c4d8185612bec565b9350612c5d818560208601612bfd565b612c6681612c27565b840191505092915050565b60006020820190508181036000830152612c8b8184612c38565b905092915050565b6000819050919050565b612ca681612c93565b8114612cb157600080fd5b50565b600081359050612cc381612c9d565b92915050565b600060208284031215612cdf57612cde612b1c565b5b6000612ced84828501612cb4565b91505092915050565b600073ffffffffffffffffffffffffffffffffffffffff82169050919050565b6000612d2182612cf6565b9050919050565b612d3181612d16565b82525050565b6000602082019050612d4c6000830184612d28565b92915050565b612d5b81612d16565b8114612d6657600080fd5b50565b600081359050612d7881612d52565b92915050565b60008060408385031215612d9557612d94612b1c565b5b6000612da385828601612d69565b9250506020612db485828601612cb4565b9150509250929050565b600060208284031215612dd457612dd3612b1c565b5b6000612de284828501612d69565b91505092915050565b612df481612c93565b82525050565b600081519050919050565b600082825260208201905092915050565b6000819050602082019050919050565b612e2f81612c93565b82525050565b6000612e418383612e26565b60208301905092915050565b6000602082019050919050565b6000612e6582612dfa565b612e6f8185612e05565b9350612e7a83612e16565b8060005b83811015612eab578151612e928882612e35565b9750612e9d83612e4d565b925050600181019050612e7e565b5085935050505092915050565b6000604082019050612ecd6000830185612deb565b8181036020830152612edf8184612e5a565b90509392505050565b6000602082019050612efd6000830184612deb565b92915050565b600080600060608486031215612f1c57612f1b612b1c565b5b6000612f2a86828701612d69565b9350506020612f3b86828701612d69565b9250506040612f4c86828701612cb4565b9150509250925092565b612f5f81612bab565b8114612f6a57600080fd5b50565b600081359050612f7c81612f56565b92915050565b60008060408385031215612f9957612f98612b1c565b5b6000612fa785828601612d69565b9250506020612fb885828601612f6d565b9150509250929050565b600080fd5b600080fd5b7f4e487b7100000000000000000000000000000000000000000000000000000000600052604160045260246000fd5b61300482612c27565b810181811067ffffffffffffffff8211171561302357613022612fcc565b5b80604052505050565b6000613036612b12565b90506130428282612ffb565b919050565b600067ffffffffffffffff82111561306257613061612fcc565b5b61306b82612c27565b9050602081019050919050565b82818337600083830152505050565b600061309a61309584613047565b61302c565b9050828152602081018484840111156130b6576130b5612fc7565b5b6130c1848285613078565b509392505050565b600082601f8301126130de576130dd612fc2565b5b81356130ee848260208601613087565b91505092915050565b6000806000806080858703121561311157613110612b1c565b5b600061311f87828801612d69565b945050602061313087828801612d69565b935050604061314187828801612cb4565b925050606085013567ffffffffffffffff81111561316257613161612b21565b5b61316e878288016130c9565b91505092959194509250565b6000806040838503121561319157613190612b1c565b5b600061319f85828601612d69565b92505060206131b085828601612d69565b9150509250929050565b7f4e487b7100000000000000000000000000000000000000000000000000000000600052602260045260246000fd5b6000600282049050600182168061320157607f821691505b602082108103613214576132136131ba565b5b50919050565b7f4552433732313a20617070726f76616c20746f2063757272656e74206f776e6560008201527f7200000000000000000000000000000000000000000000000000000000000000602082015250565b6000613276602183612bec565b91506132818261321a565b604082019050919050565b600060208201905081810360008301526132a581613269565b9050919050565b7f4552433732313a20617070726f76652063616c6c6572206973206e6f7420746f60008201527f6b656e206f776e6572206f7220617070726f76656420666f7220616c6c000000602082015250565b6000613308603d83612bec565b9150613313826132ac565b604082019050919050565b60006020820190508181036000830152613337816132fb565b9050919050565b7f4552433732313a2063616c6c6572206973206e6f7420746f6b656e206f776e6560008201527f72206f7220617070726f76656400000000000000000000000000000000000000602082015250565b600061339a602d83612bec565b91506133a58261333e565b604082019050919050565b600060208201905081810360008301526133c98161338d565b9050919050565b7f4e6f207469656e6573207469636b65747320737566696369656e746573000000600082015250565b6000613406601d83612bec565b9150613411826133d0565b602082019050919050565b60006020820190508181036000830152613435816133f9565b9050919050565b7f4e487b7100000000000000000000000000000000000000000000000000000000600052601160045260246000fd5b600061347682612c93565b915061348183612c93565b92508282039050818111156134995761349861343c565b5b92915050565b7f4e487b7100000000000000000000000000000000000000000000000000000000600052603260045260246000fd5b7f4e487b7100000000000000000000000000000000000000000000000000000000600052603160045260246000fd5b600061350882612c93565b91507fffffffffffffffffffffffffffffffffffffffffffffffffffffffffffffffff820361353a5761353961343c565b5b600182019050919050565b7f4552433732313a20696e76616c696420746f6b656e2049440000000000000000600082015250565b600061357b601883612bec565b915061358682613545565b602082019050919050565b600060208201905081810360008301526135aa8161356e565b9050919050565b7f4552433732313a2061646472657373207a65726f206973206e6f74206120766160008201527f6c6964206f776e65720000000000000000000000000000000000000000000000602082015250565b600061360d602983612bec565b9150613618826135b1565b604082019050919050565b6000602082019050818103600083015261363c81613600565b9050919050565b600061364e82612c93565b915061365983612c93565b925082820261366781612c93565b9150828204841483151761367e5761367d61343c565b5b5092915050565b7f53616c646f20696e737566696369656e74650000000000000000000000000000600082015250565b60006136bb601283612bec565b91506136c682613685565b602082019050919050565b600060208201905081810360008301526136ea816136ae565b9050919050565b7f4c6f2073656e74696d6f732c20736f6c6f2070756564657320636f6d7072617260008201527f20756e207469636b657400000000000000000000000000000000000000000000602082015250565b600061374d602a83612bec565b9150613758826136f1565b604082019050919050565b6000602082019050818103600083015261377c81613740565b9050919050565b7f56617961207961207469656e657320756e207469636b65742c206e6f2065732060008201527f706f7369626c6520636f6d70726172206d617300000000000000000000000000602082015250565b60006137df603383612bec565b91506137ea82613783565b604082019050919050565b6000602082019050818103600083015261380e816137d2565b9050919050565b600081905092915050565b600061382b82612be1565b6138358185613815565b9350613845818560208601612bfd565b80840191505092915050565b600061385d8285613820565b91506138698284613820565b91508190509392505050565b7f4f776e61626c653a206e6577206f776e657220697320746865207a65726f206160008201527f6464726573730000000000000000000000000000000000000000000000000000602082015250565b60006138d1602683612bec565b91506138dc82613875565b604082019050919050565b60006020820190508181036000830152613900816138c4565b9050919050565b7f4552433732313a207472616e736665722066726f6d20696e636f72726563742060008201527f6f776e6572000000000000000000000000000000000000000000000000000000602082015250565b6000613963602583612bec565b915061396e82613907565b604082019050919050565b6000602082019050818103600083015261399281613956565b9050919050565b7f4552433732313a207472616e7366657220746f20746865207a65726f2061646460008201527f7265737300000000000000000000000000000000000000000000000000000000602082015250565b60006139f5602483612bec565b9150613a0082613999565b604082019050919050565b60006020820190508181036000830152613a24816139e8565b9050919050565b7f4f776e61626c653a2063616c6c6572206973206e6f7420746865206f776e6572600082015250565b6000613a61602083612bec565b9150613a6c82613a2b565b602082019050919050565b60006020820190508181036000830152613a9081613a54565b9050919050565b7f4552433732313a20617070726f766520746f2063616c6c657200000000000000600082015250565b6000613acd601983612bec565b9150613ad882613a97565b602082019050919050565b60006020820190508181036000830152613afc81613ac0565b9050919050565b7f4552433732313a207472616e7366657220746f206e6f6e20455243373231526560008201527f63656976657220696d706c656d656e7465720000000000000000000000000000602082015250565b6000613b5f603283612bec565b9150613b6a82613b03565b604082019050919050565b60006020820190508181036000830152613b8e81613b52565b9050919050565b7f4552433732313a206d696e7420746f20746865207a65726f2061646472657373600082015250565b6000613bcb602083612bec565b9150613bd682613b95565b602082019050919050565b60006020820190508181036000830152613bfa81613bbe565b9050919050565b7f4552433732313a20746f6b656e20616c7265616479206d696e74656400000000600082015250565b6000613c37601c83612bec565b9150613c4282613c01565b602082019050919050565b60006020820190508181036000830152613c6681613c2a565b9050919050565b7f45524337323155524953746f726167653a2055524920736574206f66206e6f6e60008201527f6578697374656e7420746f6b656e000000000000000000000000000000000000602082015250565b6000613cc9602e83612bec565b9150613cd482613c6d565b604082019050919050565b60006020820190508181036000830152613cf881613cbc565b9050919050565b60008190508160005260206000209050919050565b60006020601f8301049050919050565b600082821b905092915050565b600060088302613d617fffffffffffffffffffffffffffffffffffffffffffffffffffffffffffffffff82613d24565b613d6b8683613d24565b95508019841693508086168417925050509392505050565b6000819050919050565b6000613da8613da3613d9e84612c93565b613d83565b612c93565b9050919050565b6000819050919050565b613dc283613d8d565b613dd6613dce82613daf565b848454613d31565b825550505050565b600090565b613deb613dde565b613df6818484613db9565b505050565b5b81811015613e1a57613e0f600082613de3565b600181019050613dfc565b5050565b601f821115613e5f57613e3081613cff565b613e3984613d14565b81016020851015613e48578190505b613e5c613e5485613d14565b830182613dfb565b50505b505050565b600082821c905092915050565b6000613e8260001984600802613e64565b1980831691505092915050565b6000613e9b8383613e71565b9150826002028217905092915050565b613eb482612be1565b67ffffffffffffffff811115613ecd57613ecc612fcc565b5b613ed782546131e9565b613ee2828285613e1e565b600060209050601f831160018114613f155760008415613f03578287015190505b613f0d8582613e8f565b865550613f75565b601f198416613f2386613cff565b60005b82811015613f4b57848901518255600182019150602085019450602081019050613f26565b86831015613f685784890151613f64601f891682613e71565b8355505b6001600288020188555050505b505050505050565b600081519050919050565b600082825260208201905092915050565b6000613fa482613f7d565b613fae8185613f88565b9350613fbe818560208601612bfd565b613fc781612c27565b840191505092915050565b6000608082019050613fe76000830187612d28565b613ff46020830186612d28565b6140016040830185612deb565b81810360608301526140138184613f99565b905095945050505050565b60008151905061402d81612b52565b92915050565b60006020828403121561404957614048612b1c565b5b60006140578482850161401e565b91505092915050565b7f4e487b7100000000000000000000000000000000000000000000000000000000600052601260045260246000fdfe68747470733a2f2f626c6f636b7469636b2e696e667572612d697066732e696f2f697066732f516d5470375a646d6b3445537143444d7a5a4859384e676e4b3370557672796d71394259785a5a426e4e50566d74a2646970667358221220aa530f2765bc70fa5271205086003b8bc545de7b71aa8cb91c8567682e56578264736f6c63430008130033a264697066735822122097686ae46c56811fb807d249738affc8e6c3b8b02e1e98fc2324dd359b5dcf4e64736f6c63430008130033",
  "immutableReferences": {},
  "source": "// SPDX-License-Identifier: MIT\r\npragma solidity >=0.8.0 <0.9.0;\r\n\r\nimport \"@openzeppelin/contracts/token/ERC721/extensions/ERC721URIStorage.sol\";\r\nimport \"@openzeppelin/contracts/access/Ownable.sol\";\r\nimport \"@openzeppelin/contracts/utils/Counters.sol\";\r\n\r\ncontract EventNFTManager is ERC721URIStorage, Ownable {\r\n\r\n    string public eventName;\r\n    string public eventOrganizer;\r\n    string public eventCategory;\r\n    address public eventOwner;\r\n    uint256 public ticketPrice;\r\n\r\n    constructor(\r\n        string memory _eventName,\r\n        string memory _eventOrganizer,\r\n        string memory _eventCategory,\r\n        address _owner,\r\n        uint256 _ticketPrice\r\n    ) ERC721(string.concat(_eventName,\" TicketNFT\"), \"TICKET\") {\r\n        eventName = _eventName;\r\n        eventOrganizer = _eventOrganizer;\r\n        eventCategory = _eventCategory;\r\n        eventOwner = _owner;\r\n        ticketPrice = _ticketPrice;\r\n    }\r\n\r\n    function getPrice() public view returns (uint256) {\r\n        return ticketPrice;\r\n    }\r\n\r\n\r\n    using Counters for Counters.Counter;\r\n    Counters.Counter private tokenIdCounter;\r\n\r\n    \r\n    mapping(address => uint256[]) internal ticketHolders;\r\n\r\n\r\n    function changeTicketPriceTest(uint _newPrice) onlyOwner public {\r\n       ticketPrice = _newPrice;\r\n    }\r\n   \r\n   function buyTickets(address _user, uint256 _amount) payable public {\r\n    //el hecho de que el propietario del tiquet lo pases por parmetro permite que tu puedas comprar tiquets para otro,\r\n    //entiendo que es el objetivo y estla permitido, de lo contrario _user debera ser msg.sender, para que restringir a que uno solo pueda comprar sus tiquets \r\n        require(msg.value >= ticketPrice * _amount, \"Saldo insuficiente\");\r\n        require(_amount == 1, \"Lo sentimos, solo puedes comprar un ticket\");\r\n        require(ticketHolders[msg.sender].length == 0, \"Vaya ya tienes un ticket, no es posible comprar mas\");\r\n        ticketHolders[_user] = _mintNFTs(_user, _amount);\r\n       \r\n    }\r\n\r\n    function  buyOneTicketForMe() payable public {\r\n    //si queremos acotar a que solo puede comprar un tiquet y es para esa persona, no le dara opcin en la funcin a otras cosas \r\n        require(msg.value >= ticketPrice , \"Saldo insuficiente\");   // _amount = 1\r\n        require(ticketHolders[msg.sender].length == 0, \"Vaya ya tienes un ticket, no es posible comprar mas\");\r\n        uint256[] memory tokenIds = _mintNFTs(msg.sender, 1);\r\n        ticketHolders[msg.sender] = tokenIds;\r\n    }\r\n\r\n    function getTickets(address owner) public view returns(uint cantidadTickets,uint256[] memory IDTickets) \r\n    {\r\n        return (ticketHolders[owner].length,ticketHolders[owner]);\r\n    }\r\n    \r\n\r\n    function useTickets(uint256 _amount) public {\r\n        address _user = msg.sender;\r\n        require(ticketHolders[msg.sender].length >= _amount, \"No tienes tickets suficientes\");\r\n        \r\n        for (uint256 i = 0; i < _amount; i++) {\r\n            uint256 tokenId = ticketHolders[_user][ticketHolders[_user].length - 1];\r\n            ticketHolders[_user].pop();\r\n            _burn(tokenId);\r\n        }\r\n    }\r\n\r\n    function useOneTicket() public {\r\n        address _user = msg.sender;\r\n        require(ticketHolders[_user].length >= 1, \"No tienes tickets suficientes\");\r\n        \r\n        uint256 tokenId = ticketHolders[_user][ticketHolders[_user].length - 1];\r\n        ticketHolders[_user].pop();\r\n        _burn(tokenId);\r\n        \r\n    }\r\n\r\n    function _mintNFTs(address _user, uint256 _amount) internal returns (uint256[] memory) {\r\n\r\n       require(_amount == 1, \"Lo sentimos, solo puedes comprar un ticket\"); \r\n        uint256[] memory newTokenIds = new uint256[](_amount);\r\n\r\n        string memory ipfsUrl = \"https://blocktick.infura-ipfs.io/ipfs/QmTp7Zdmk4ESqCDMzZHY8NgnK3pUvrymq9BYxZZBnNPVmt\";\r\n\r\n        for (uint256 i = 0; i < _amount; i++) {\r\n            uint256 tokenId = tokenIdCounter.current();\r\n            _mint(_user, tokenId);\r\n            _setTokenURI(tokenId, ipfsUrl);\r\n            tokenIdCounter.increment();\r\n            newTokenIds[i] = tokenId;\r\n        }\r\n        \r\n        return newTokenIds;\r\n    }\r\n\r\n}\r\n\r\ncontract EventFactory {\r\n    address[] public eventsCreated;\r\n\r\n    function createEvent( string memory  _eventName, string memory  _eventOrganizer,   string memory  _eventCategory ,    uint256 _ticketPrice  ) public  {\r\n            address eventOwner = msg.sender;\r\n            EventNFTManager newEvent = new EventNFTManager(_eventName,_eventOrganizer,_eventCategory,eventOwner,_ticketPrice);\r\n            eventsCreated.push(address(newEvent));\r\n    }\r\n\r\n    function getEventPrice(uint index) public view  returns (uint){\r\n            return EventNFTManager(eventsCreated[index]).getPrice();\r\n    }\r\n\r\n   \r\n    function getAllEvents() public view returns(uint cantidad, address[] memory listadoEventos) {\r\n        return (eventsCreated.length,eventsCreated);\r\n    }\r\n\r\n    function getLastEventCreated() public view returns (address) {\r\n        return eventsCreated[eventsCreated.length-1];\r\n    }\r\n\r\n}",
  "sourcePath": "D:\\Documentos\\BLOCKCHAIN\\Doble Grado BlockChain\\Blockchain Engineering\\TFM - Enginering - SEP 2023\\BLOCKTICK ETHEREUM\\BLOCKTICK\\Ethereum-Blocktick\\contracts\\blockTick.sol",
  "compiler": {
    "name": "solc",
    "version": "0.8.19+commit.7dd6d404.Emscripten.clang"
  },
  "schemaVersion": "3.4.13",
  "updatedAt": "2023-10-31T16:23:50.446Z",
  "devdoc": {
    "kind": "dev",
    "methods": {},
    "version": 1
  },
  "userdoc": {
    "kind": "user",
    "methods": {},
    "version": 1
  }
}