{
  "contractName": "Ticket",
  "abi": [
    {
      "inputs": [],
      "stateMutability": "nonpayable",
      "type": "constructor"
    },
    {
      "anonymous": false,
      "inputs": [
        {
          "indexed": true,
          "internalType": "address",
          "name": "owner",
          "type": "address"
        },
        {
          "indexed": true,
          "internalType": "address",
          "name": "approved",
          "type": "address"
        },
        {
          "indexed": true,
          "internalType": "uint256",
          "name": "tokenId",
          "type": "uint256"
        }
      ],
      "name": "Approval",
      "type": "event"
    },
    {
      "anonymous": false,
      "inputs": [
        {
          "indexed": true,
          "internalType": "address",
          "name": "owner",
          "type": "address"
        },
        {
          "indexed": true,
          "internalType": "address",
          "name": "operator",
          "type": "address"
        },
        {
          "indexed": false,
          "internalType": "bool",
          "name": "approved",
          "type": "bool"
        }
      ],
      "name": "ApprovalForAll",
      "type": "event"
    },
    {
      "anonymous": false,
      "inputs": [
        {
          "indexed": false,
          "internalType": "uint256",
          "name": "_fromTokenId",
          "type": "uint256"
        },
        {
          "indexed": false,
          "internalType": "uint256",
          "name": "_toTokenId",
          "type": "uint256"
        }
      ],
      "name": "BatchMetadataUpdate",
      "type": "event"
    },
    {
      "anonymous": false,
      "inputs": [
        {
          "indexed": false,
          "internalType": "uint256",
          "name": "_tokenId",
          "type": "uint256"
        }
      ],
      "name": "MetadataUpdate",
      "type": "event"
    },
    {
      "anonymous": false,
      "inputs": [
        {
          "indexed": true,
          "internalType": "address",
          "name": "previousOwner",
          "type": "address"
        },
        {
          "indexed": true,
          "internalType": "address",
          "name": "newOwner",
          "type": "address"
        }
      ],
      "name": "OwnershipTransferred",
      "type": "event"
    },
    {
      "anonymous": false,
      "inputs": [
        {
          "indexed": true,
          "internalType": "address",
          "name": "from",
          "type": "address"
        },
        {
          "indexed": true,
          "internalType": "address",
          "name": "to",
          "type": "address"
        },
        {
          "indexed": true,
          "internalType": "uint256",
          "name": "tokenId",
          "type": "uint256"
        }
      ],
      "name": "Transfer",
      "type": "event"
    },
    {
      "inputs": [
        {
          "internalType": "address",
          "name": "to",
          "type": "address"
        },
        {
          "internalType": "uint256",
          "name": "tokenId",
          "type": "uint256"
        }
      ],
      "name": "approve",
      "outputs": [],
      "stateMutability": "nonpayable",
      "type": "function"
    },
    {
      "inputs": [
        {
          "internalType": "address",
          "name": "owner",
          "type": "address"
        }
      ],
      "name": "balanceOf",
      "outputs": [
        {
          "internalType": "uint256",
          "name": "",
          "type": "uint256"
        }
      ],
      "stateMutability": "view",
      "type": "function",
      "constant": true
    },
    {
      "inputs": [
        {
          "internalType": "uint256",
          "name": "tokenId",
          "type": "uint256"
        }
      ],
      "name": "getApproved",
      "outputs": [
        {
          "internalType": "address",
          "name": "",
          "type": "address"
        }
      ],
      "stateMutability": "view",
      "type": "function",
      "constant": true
    },
    {
      "inputs": [
        {
          "internalType": "address",
          "name": "owner",
          "type": "address"
        },
        {
          "internalType": "address",
          "name": "operator",
          "type": "address"
        }
      ],
      "name": "isApprovedForAll",
      "outputs": [
        {
          "internalType": "bool",
          "name": "",
          "type": "bool"
        }
      ],
      "stateMutability": "view",
      "type": "function",
      "constant": true
    },
    {
      "inputs": [],
      "name": "name",
      "outputs": [
        {
          "internalType": "string",
          "name": "",
          "type": "string"
        }
      ],
      "stateMutability": "view",
      "type": "function",
      "constant": true
    },
    {
      "inputs": [],
      "name": "owner",
      "outputs": [
        {
          "internalType": "address",
          "name": "",
          "type": "address"
        }
      ],
      "stateMutability": "view",
      "type": "function",
      "constant": true
    },
    {
      "inputs": [
        {
          "internalType": "uint256",
          "name": "tokenId",
          "type": "uint256"
        }
      ],
      "name": "ownerOf",
      "outputs": [
        {
          "internalType": "address",
          "name": "",
          "type": "address"
        }
      ],
      "stateMutability": "view",
      "type": "function",
      "constant": true
    },
    {
      "inputs": [],
      "name": "renounceOwnership",
      "outputs": [],
      "stateMutability": "nonpayable",
      "type": "function"
    },
    {
      "inputs": [
        {
          "internalType": "address",
          "name": "from",
          "type": "address"
        },
        {
          "internalType": "address",
          "name": "to",
          "type": "address"
        },
        {
          "internalType": "uint256",
          "name": "tokenId",
          "type": "uint256"
        }
      ],
      "name": "safeTransferFrom",
      "outputs": [],
      "stateMutability": "nonpayable",
      "type": "function"
    },
    {
      "inputs": [
        {
          "internalType": "address",
          "name": "from",
          "type": "address"
        },
        {
          "internalType": "address",
          "name": "to",
          "type": "address"
        },
        {
          "internalType": "uint256",
          "name": "tokenId",
          "type": "uint256"
        },
        {
          "internalType": "bytes",
          "name": "data",
          "type": "bytes"
        }
      ],
      "name": "safeTransferFrom",
      "outputs": [],
      "stateMutability": "nonpayable",
      "type": "function"
    },
    {
      "inputs": [
        {
          "internalType": "address",
          "name": "operator",
          "type": "address"
        },
        {
          "internalType": "bool",
          "name": "approved",
          "type": "bool"
        }
      ],
      "name": "setApprovalForAll",
      "outputs": [],
      "stateMutability": "nonpayable",
      "type": "function"
    },
    {
      "inputs": [
        {
          "internalType": "bytes4",
          "name": "interfaceId",
          "type": "bytes4"
        }
      ],
      "name": "supportsInterface",
      "outputs": [
        {
          "internalType": "bool",
          "name": "",
          "type": "bool"
        }
      ],
      "stateMutability": "view",
      "type": "function",
      "constant": true
    },
    {
      "inputs": [],
      "name": "symbol",
      "outputs": [
        {
          "internalType": "string",
          "name": "",
          "type": "string"
        }
      ],
      "stateMutability": "view",
      "type": "function",
      "constant": true
    },
    {
      "inputs": [
        {
          "internalType": "address",
          "name": "",
          "type": "address"
        },
        {
          "internalType": "uint256",
          "name": "",
          "type": "uint256"
        }
      ],
      "name": "ticketHolders",
      "outputs": [
        {
          "internalType": "uint256",
          "name": "",
          "type": "uint256"
        }
      ],
      "stateMutability": "view",
      "type": "function",
      "constant": true
    },
    {
      "inputs": [],
      "name": "ticketPrice",
      "outputs": [
        {
          "internalType": "uint256",
          "name": "",
          "type": "uint256"
        }
      ],
      "stateMutability": "view",
      "type": "function",
      "constant": true
    },
    {
      "inputs": [
        {
          "internalType": "uint256",
          "name": "tokenId",
          "type": "uint256"
        }
      ],
      "name": "tokenURI",
      "outputs": [
        {
          "internalType": "string",
          "name": "",
          "type": "string"
        }
      ],
      "stateMutability": "view",
      "type": "function",
      "constant": true
    },
    {
      "inputs": [
        {
          "internalType": "address",
          "name": "from",
          "type": "address"
        },
        {
          "internalType": "address",
          "name": "to",
          "type": "address"
        },
        {
          "internalType": "uint256",
          "name": "tokenId",
          "type": "uint256"
        }
      ],
      "name": "transferFrom",
      "outputs": [],
      "stateMutability": "nonpayable",
      "type": "function"
    },
    {
      "inputs": [
        {
          "internalType": "address",
          "name": "newOwner",
          "type": "address"
        }
      ],
      "name": "transferOwnership",
      "outputs": [],
      "stateMutability": "nonpayable",
      "type": "function"
    },
    {
      "inputs": [
        {
          "internalType": "address",
          "name": "",
          "type": "address"
        },
        {
          "internalType": "uint256",
          "name": "_amount",
          "type": "uint256"
        }
      ],
      "name": "buyTickets",
      "outputs": [],
      "stateMutability": "payable",
      "type": "function",
      "payable": true
    },
    {
      "inputs": [
        {
          "internalType": "address",
          "name": "_user",
          "type": "address"
        },
        {
          "internalType": "uint256",
          "name": "_amount",
          "type": "uint256"
        }
      ],
      "name": "useTickets",
      "outputs": [],
      "stateMutability": "nonpayable",
      "type": "function"
    }
  ],
  "bytecode": "0x608060405260016009553480156200001657600080fd5b506040518060400160405280600c81526020017f426c6f636b7469636b4e465400000000000000000000000000000000000000008152506040518060400160405280600381526020017f424b540000000000000000000000000000000000000000000000000000000000815250816000908162000094919062000417565b508060019081620000a6919062000417565b505050620000c9620000bd620000cf60201b60201c565b620000d760201b60201c565b620004fe565b600033905090565b6000600760009054906101000a900473ffffffffffffffffffffffffffffffffffffffff16905081600760006101000a81548173ffffffffffffffffffffffffffffffffffffffff021916908373ffffffffffffffffffffffffffffffffffffffff1602179055508173ffffffffffffffffffffffffffffffffffffffff168173ffffffffffffffffffffffffffffffffffffffff167f8be0079c531659141344cd1fd0a4f28419497f9722a3daafe3b4186f6b6457e060405160405180910390a35050565b600081519050919050565b7f4e487b7100000000000000000000000000000000000000000000000000000000600052604160045260246000fd5b7f4e487b7100000000000000000000000000000000000000000000000000000000600052602260045260246000fd5b600060028204905060018216806200021f57607f821691505b602082108103620002355762000234620001d7565b5b50919050565b60008190508160005260206000209050919050565b60006020601f8301049050919050565b600082821b905092915050565b6000600883026200029f7fffffffffffffffffffffffffffffffffffffffffffffffffffffffffffffffff8262000260565b620002ab868362000260565b95508019841693508086168417925050509392505050565b6000819050919050565b6000819050919050565b6000620002f8620002f2620002ec84620002c3565b620002cd565b620002c3565b9050919050565b6000819050919050565b6200031483620002d7565b6200032c6200032382620002ff565b8484546200026d565b825550505050565b600090565b6200034362000334565b6200035081848462000309565b505050565b5b8181101562000378576200036c60008262000339565b60018101905062000356565b5050565b601f821115620003c75762000391816200023b565b6200039c8462000250565b81016020851015620003ac578190505b620003c4620003bb8562000250565b83018262000355565b50505b505050565b600082821c905092915050565b6000620003ec60001984600802620003cc565b1980831691505092915050565b6000620004078383620003d9565b9150826002028217905092915050565b62000422826200019d565b67ffffffffffffffff8111156200043e576200043d620001a8565b5b6200044a825462000206565b620004578282856200037c565b600060209050601f8311600181146200048f57600084156200047a578287015190505b620004868582620003f9565b865550620004f6565b601f1984166200049f866200023b565b60005b82811015620004c957848901518255600182019150602085019450602081019050620004a2565b86831015620004e95784890151620004e5601f891682620003d9565b8355505b6001600288020188555050505b505050505050565b6138fb806200050e6000396000f3fe60806040526004361061011f5760003560e01c80637e33b76c116100a0578063a22cb46511610064578063a22cb465146103d8578063b88d4fde14610401578063c87b56dd1461042a578063e985e9c514610467578063f2fde38b146104a45761011f565b80637e33b76c14610300578063826155691461032957806388f57767146103665780638da5cb5b1461038257806395d89b41146103ad5761011f565b806323b872dd116100e757806323b872dd1461021d57806342842e0e146102465780636352211e1461026f57806370a08231146102ac578063715018a6146102e95761011f565b806301ffc9a71461012457806306fdde0314610161578063081812fc1461018c578063095ea7b3146101c95780631209b1f6146101f2575b600080fd5b34801561013057600080fd5b5061014b6004803603810190610146919061244e565b6104cd565b6040516101589190612496565b60405180910390f35b34801561016d57600080fd5b5061017661052e565b6040516101839190612541565b60405180910390f35b34801561019857600080fd5b506101b360048036038101906101ae9190612599565b6105c0565b6040516101c09190612607565b60405180910390f35b3480156101d557600080fd5b506101f060048036038101906101eb919061264e565b610606565b005b3480156101fe57600080fd5b5061020761071d565b604051610214919061269d565b60405180910390f35b34801561022957600080fd5b50610244600480360381019061023f91906126b8565b610723565b005b34801561025257600080fd5b5061026d600480360381019061026891906126b8565b610783565b005b34801561027b57600080fd5b5061029660048036038101906102919190612599565b6107a3565b6040516102a39190612607565b60405180910390f35b3480156102b857600080fd5b506102d360048036038101906102ce919061270b565b610829565b6040516102e0919061269d565b60405180910390f35b3480156102f557600080fd5b506102fe6108e0565b005b34801561030c57600080fd5b506103276004803603810190610322919061264e565b6108f4565b005b34801561033557600080fd5b50610350600480360381019061034b919061264e565b610ab9565b60405161035d919061269d565b60405180910390f35b610380600480360381019061037b919061264e565b610aea565b005b34801561038e57600080fd5b50610397610c69565b6040516103a49190612607565b60405180910390f35b3480156103b957600080fd5b506103c2610c93565b6040516103cf9190612541565b60405180910390f35b3480156103e457600080fd5b506103ff60048036038101906103fa9190612764565b610d25565b005b34801561040d57600080fd5b50610428600480360381019061042391906128d9565b610d3b565b005b34801561043657600080fd5b50610451600480360381019061044c9190612599565b610d9d565b60405161045e9190612541565b60405180910390f35b34801561047357600080fd5b5061048e6004803603810190610489919061295c565b610eaf565b60405161049b9190612496565b60405180910390f35b3480156104b057600080fd5b506104cb60048036038101906104c6919061270b565b610f43565b005b6000634906490660e01b7bffffffffffffffffffffffffffffffffffffffffffffffffffffffff1916827bffffffffffffffffffffffffffffffffffffffffffffffffffffffff19161480610527575061052682610fc6565b5b9050919050565b60606000805461053d906129cb565b80601f0160208091040260200160405190810160405280929190818152602001828054610569906129cb565b80156105b65780601f1061058b576101008083540402835291602001916105b6565b820191906000526020600020905b81548152906001019060200180831161059957829003601f168201915b5050505050905090565b60006105cb826110a8565b6004600083815260200190815260200160002060009054906101000a900473ffffffffffffffffffffffffffffffffffffffff169050919050565b6000610611826107a3565b90508073ffffffffffffffffffffffffffffffffffffffff168373ffffffffffffffffffffffffffffffffffffffff1603610681576040517f08c379a000000000000000000000000000000000000000000000000000000000815260040161067890612a6e565b60405180910390fd5b8073ffffffffffffffffffffffffffffffffffffffff166106a06110f3565b73ffffffffffffffffffffffffffffffffffffffff1614806106cf57506106ce816106c96110f3565b610eaf565b5b61070e576040517f08c379a000000000000000000000000000000000000000000000000000000000815260040161070590612b00565b60405180910390fd5b61071883836110fb565b505050565b60095481565b61073461072e6110f3565b826111b4565b610773576040517f08c379a000000000000000000000000000000000000000000000000000000000815260040161076a90612b92565b60405180910390fd5b61077e838383611249565b505050565b61079e83838360405180602001604052806000815250610d3b565b505050565b6000806107af83611542565b9050600073ffffffffffffffffffffffffffffffffffffffff168173ffffffffffffffffffffffffffffffffffffffff1603610820576040517f08c379a000000000000000000000000000000000000000000000000000000000815260040161081790612bfe565b60405180910390fd5b80915050919050565b60008073ffffffffffffffffffffffffffffffffffffffff168273ffffffffffffffffffffffffffffffffffffffff1603610899576040517f08c379a000000000000000000000000000000000000000000000000000000000815260040161089090612c90565b60405180910390fd5b600360008373ffffffffffffffffffffffffffffffffffffffff1673ffffffffffffffffffffffffffffffffffffffff168152602001908152602001600020549050919050565b6108e861157f565b6108f260006115fd565b565b80600a60003373ffffffffffffffffffffffffffffffffffffffff1673ffffffffffffffffffffffffffffffffffffffff168152602001908152602001600020805490501015610979576040517f08c379a000000000000000000000000000000000000000000000000000000000815260040161097090612cfc565b60405180910390fd5b60005b81811015610ab4576000600a60008573ffffffffffffffffffffffffffffffffffffffff1673ffffffffffffffffffffffffffffffffffffffff1681526020019081526020016000206001600a60008773ffffffffffffffffffffffffffffffffffffffff1673ffffffffffffffffffffffffffffffffffffffff16815260200190815260200160002080549050610a149190612d4b565b81548110610a2557610a24612d7f565b5b90600052602060002001549050600a60003373ffffffffffffffffffffffffffffffffffffffff1673ffffffffffffffffffffffffffffffffffffffff168152602001908152602001600020805480610a8157610a80612dae565b5b60019003818190600052602060002001600090559055610aa0816116c3565b508080610aac90612ddd565b91505061097c565b505050565b600a6020528160005260406000208181548110610ad557600080fd5b90600052602060002001600091509150505481565b80600954610af89190612e25565b341015610b3a576040517f08c379a0000000000000000000000000000000000000000000000000000000008152600401610b3190612eb3565b60405180910390fd5b60018114610b7d576040517f08c379a0000000000000000000000000000000000000000000000000000000008152600401610b7490612f45565b60405180910390fd5b6000600a60003373ffffffffffffffffffffffffffffffffffffffff1673ffffffffffffffffffffffffffffffffffffffff1681526020019081526020016000208054905014610c02576040517f08c379a0000000000000000000000000000000000000000000000000000000008152600401610bf990612fd7565b60405180910390fd5b6000610c0e3383611716565b905080600a60003373ffffffffffffffffffffffffffffffffffffffff1673ffffffffffffffffffffffffffffffffffffffff1681526020019081526020016000209080519060200190610c63929190612338565b50505050565b6000600760009054906101000a900473ffffffffffffffffffffffffffffffffffffffff16905090565b606060018054610ca2906129cb565b80601f0160208091040260200160405190810160405280929190818152602001828054610cce906129cb565b8015610d1b5780601f10610cf057610100808354040283529160200191610d1b565b820191906000526020600020905b815481529060010190602001808311610cfe57829003601f168201915b5050505050905090565b610d37610d306110f3565b838361183c565b5050565b610d4c610d466110f3565b836111b4565b610d8b576040517f08c379a0000000000000000000000000000000000000000000000000000000008152600401610d8290612b92565b60405180910390fd5b610d97848484846119a8565b50505050565b6060610da8826110a8565b6000600660008481526020019081526020016000208054610dc8906129cb565b80601f0160208091040260200160405190810160405280929190818152602001828054610df4906129cb565b8015610e415780601f10610e1657610100808354040283529160200191610e41565b820191906000526020600020905b815481529060010190602001808311610e2457829003601f168201915b505050505090506000610e52611a04565b90506000815103610e67578192505050610eaa565b600082511115610e9c578082604051602001610e84929190613033565b60405160208183030381529060405292505050610eaa565b610ea584611a1b565b925050505b919050565b6000600560008473ffffffffffffffffffffffffffffffffffffffff1673ffffffffffffffffffffffffffffffffffffffff16815260200190815260200160002060008373ffffffffffffffffffffffffffffffffffffffff1673ffffffffffffffffffffffffffffffffffffffff16815260200190815260200160002060009054906101000a900460ff16905092915050565b610f4b61157f565b600073ffffffffffffffffffffffffffffffffffffffff168173ffffffffffffffffffffffffffffffffffffffff1603610fba576040517f08c379a0000000000000000000000000000000000000000000000000000000008152600401610fb1906130c9565b60405180910390fd5b610fc3816115fd565b50565b60007f80ac58cd000000000000000000000000000000000000000000000000000000007bffffffffffffffffffffffffffffffffffffffffffffffffffffffff1916827bffffffffffffffffffffffffffffffffffffffffffffffffffffffff1916148061109157507f5b5e139f000000000000000000000000000000000000000000000000000000007bffffffffffffffffffffffffffffffffffffffffffffffffffffffff1916827bffffffffffffffffffffffffffffffffffffffffffffffffffffffff1916145b806110a157506110a082611a83565b5b9050919050565b6110b181611aed565b6110f0576040517f08c379a00000000000000000000000000000000000000000000000000000000081526004016110e790612bfe565b60405180910390fd5b50565b600033905090565b816004600083815260200190815260200160002060006101000a81548173ffffffffffffffffffffffffffffffffffffffff021916908373ffffffffffffffffffffffffffffffffffffffff160217905550808273ffffffffffffffffffffffffffffffffffffffff1661116e836107a3565b73ffffffffffffffffffffffffffffffffffffffff167f8c5be1e5ebec7d5bd14f71427d1e84f3dd0314c0f7b2291e5b200ac8c7c3b92560405160405180910390a45050565b6000806111c0836107a3565b90508073ffffffffffffffffffffffffffffffffffffffff168473ffffffffffffffffffffffffffffffffffffffff16148061120257506112018185610eaf565b5b8061124057508373ffffffffffffffffffffffffffffffffffffffff16611228846105c0565b73ffffffffffffffffffffffffffffffffffffffff16145b91505092915050565b8273ffffffffffffffffffffffffffffffffffffffff16611269826107a3565b73ffffffffffffffffffffffffffffffffffffffff16146112bf576040517f08c379a00000000000000000000000000000000000000000000000000000000081526004016112b69061315b565b60405180910390fd5b600073ffffffffffffffffffffffffffffffffffffffff168273ffffffffffffffffffffffffffffffffffffffff160361132e576040517f08c379a0000000000000000000000000000000000000000000000000000000008152600401611325906131ed565b60405180910390fd5b61133b8383836001611b2e565b8273ffffffffffffffffffffffffffffffffffffffff1661135b826107a3565b73ffffffffffffffffffffffffffffffffffffffff16146113b1576040517f08c379a00000000000000000000000000000000000000000000000000000000081526004016113a89061315b565b60405180910390fd5b6004600082815260200190815260200160002060006101000a81549073ffffffffffffffffffffffffffffffffffffffff02191690556001600360008573ffffffffffffffffffffffffffffffffffffffff1673ffffffffffffffffffffffffffffffffffffffff168152602001908152602001600020600082825403925050819055506001600360008473ffffffffffffffffffffffffffffffffffffffff1673ffffffffffffffffffffffffffffffffffffffff16815260200190815260200160002060008282540192505081905550816002600083815260200190815260200160002060006101000a81548173ffffffffffffffffffffffffffffffffffffffff021916908373ffffffffffffffffffffffffffffffffffffffff160217905550808273ffffffffffffffffffffffffffffffffffffffff168473ffffffffffffffffffffffffffffffffffffffff167fddf252ad1be2c89b69c2b068fc378daa952ba7f163c4a11628f55a4df523b3ef60405160405180910390a461153d8383836001611b34565b505050565b60006002600083815260200190815260200160002060009054906101000a900473ffffffffffffffffffffffffffffffffffffffff169050919050565b6115876110f3565b73ffffffffffffffffffffffffffffffffffffffff166115a5610c69565b73ffffffffffffffffffffffffffffffffffffffff16146115fb576040517f08c379a00000000000000000000000000000000000000000000000000000000081526004016115f290613259565b60405180910390fd5b565b6000600760009054906101000a900473ffffffffffffffffffffffffffffffffffffffff16905081600760006101000a81548173ffffffffffffffffffffffffffffffffffffffff021916908373ffffffffffffffffffffffffffffffffffffffff1602179055508173ffffffffffffffffffffffffffffffffffffffff168173ffffffffffffffffffffffffffffffffffffffff167f8be0079c531659141344cd1fd0a4f28419497f9722a3daafe3b4186f6b6457e060405160405180910390a35050565b6116cc81611b3a565b60006006600083815260200190815260200160002080546116ec906129cb565b905014611713576006600082815260200190815260200160002060006117129190612385565b5b50565b60606001821461175b576040517f08c379a000000000000000000000000000000000000000000000000000000000815260040161175290612f45565b60405180910390fd5b60008267ffffffffffffffff811115611777576117766127ae565b5b6040519080825280602002602001820160405280156117a55781602001602082028036833780820191505090505b509050600060405180608001604052806054815260200161387260549139905060005b848110156118305760006117dc6008611c88565b90506117e83382611c96565b6117f28184611eb3565b6117fc6008611f57565b808483815181106118105761180f612d7f565b5b60200260200101818152505050808061182890612ddd565b9150506117c8565b50819250505092915050565b8173ffffffffffffffffffffffffffffffffffffffff168373ffffffffffffffffffffffffffffffffffffffff16036118aa576040517f08c379a00000000000000000000000000000000000000000000000000000000081526004016118a1906132c5565b60405180910390fd5b80600560008573ffffffffffffffffffffffffffffffffffffffff1673ffffffffffffffffffffffffffffffffffffffff16815260200190815260200160002060008473ffffffffffffffffffffffffffffffffffffffff1673ffffffffffffffffffffffffffffffffffffffff16815260200190815260200160002060006101000a81548160ff0219169083151502179055508173ffffffffffffffffffffffffffffffffffffffff168373ffffffffffffffffffffffffffffffffffffffff167f17307eab39ab6107e8899845ad3d59bd9653f200f220920489ca2b5937696c318360405161199b9190612496565b60405180910390a3505050565b6119b3848484611249565b6119bf84848484611f6d565b6119fe576040517f08c379a00000000000000000000000000000000000000000000000000000000081526004016119f590613357565b60405180910390fd5b50505050565b606060405180602001604052806000815250905090565b6060611a26826110a8565b6000611a30611a04565b90506000815111611a505760405180602001604052806000815250611a7b565b80611a5a846120f4565b604051602001611a6b929190613033565b6040516020818303038152906040525b915050919050565b60007f01ffc9a7000000000000000000000000000000000000000000000000000000007bffffffffffffffffffffffffffffffffffffffffffffffffffffffff1916827bffffffffffffffffffffffffffffffffffffffffffffffffffffffff1916149050919050565b60008073ffffffffffffffffffffffffffffffffffffffff16611b0f83611542565b73ffffffffffffffffffffffffffffffffffffffff1614159050919050565b50505050565b50505050565b6000611b45826107a3565b9050611b55816000846001611b2e565b611b5e826107a3565b90506004600083815260200190815260200160002060006101000a81549073ffffffffffffffffffffffffffffffffffffffff02191690556001600360008373ffffffffffffffffffffffffffffffffffffffff1673ffffffffffffffffffffffffffffffffffffffff168152602001908152602001600020600082825403925050819055506002600083815260200190815260200160002060006101000a81549073ffffffffffffffffffffffffffffffffffffffff021916905581600073ffffffffffffffffffffffffffffffffffffffff168273ffffffffffffffffffffffffffffffffffffffff167fddf252ad1be2c89b69c2b068fc378daa952ba7f163c4a11628f55a4df523b3ef60405160405180910390a4611c84816000846001611b34565b5050565b600081600001549050919050565b600073ffffffffffffffffffffffffffffffffffffffff168273ffffffffffffffffffffffffffffffffffffffff1603611d05576040517f08c379a0000000000000000000000000000000000000000000000000000000008152600401611cfc906133c3565b60405180910390fd5b611d0e81611aed565b15611d4e576040517f08c379a0000000000000000000000000000000000000000000000000000000008152600401611d459061342f565b60405180910390fd5b611d5c600083836001611b2e565b611d6581611aed565b15611da5576040517f08c379a0000000000000000000000000000000000000000000000000000000008152600401611d9c9061342f565b60405180910390fd5b6001600360008473ffffffffffffffffffffffffffffffffffffffff1673ffffffffffffffffffffffffffffffffffffffff16815260200190815260200160002060008282540192505081905550816002600083815260200190815260200160002060006101000a81548173ffffffffffffffffffffffffffffffffffffffff021916908373ffffffffffffffffffffffffffffffffffffffff160217905550808273ffffffffffffffffffffffffffffffffffffffff16600073ffffffffffffffffffffffffffffffffffffffff167fddf252ad1be2c89b69c2b068fc378daa952ba7f163c4a11628f55a4df523b3ef60405160405180910390a4611eaf600083836001611b34565b5050565b611ebc82611aed565b611efb576040517f08c379a0000000000000000000000000000000000000000000000000000000008152600401611ef2906134c1565b60405180910390fd5b80600660008481526020019081526020016000209081611f1b919061368d565b507ff8e1a15aba9398e019f0b49df1a4fde98ee17ae345cb5f6b5e2c27f5033e8ce782604051611f4b919061269d565b60405180910390a15050565b6001816000016000828254019250508190555050565b6000611f8e8473ffffffffffffffffffffffffffffffffffffffff166121c2565b156120e7578373ffffffffffffffffffffffffffffffffffffffff1663150b7a02611fb76110f3565b8786866040518563ffffffff1660e01b8152600401611fd994939291906137b4565b6020604051808303816000875af192505050801561201557506040513d601f19601f820116820180604052508101906120129190613815565b60015b612097573d8060008114612045576040519150601f19603f3d011682016040523d82523d6000602084013e61204a565b606091505b50600081510361208f576040517f08c379a000000000000000000000000000000000000000000000000000000000815260040161208690613357565b60405180910390fd5b805181602001fd5b63150b7a0260e01b7bffffffffffffffffffffffffffffffffffffffffffffffffffffffff1916817bffffffffffffffffffffffffffffffffffffffffffffffffffffffff1916149150506120ec565b600190505b949350505050565b606060006001612103846121e5565b01905060008167ffffffffffffffff811115612122576121216127ae565b5b6040519080825280601f01601f1916602001820160405280156121545781602001600182028036833780820191505090505b509050600082602001820190505b6001156121b7578080600190039150507f3031323334353637383961626364656600000000000000000000000000000000600a86061a8153600a85816121ab576121aa613842565b5b04945060008503612162575b819350505050919050565b6000808273ffffffffffffffffffffffffffffffffffffffff163b119050919050565b600080600090507a184f03e93ff9f4daa797ed6e38ed64bf6a1f0100000000000000008310612243577a184f03e93ff9f4daa797ed6e38ed64bf6a1f010000000000000000838161223957612238613842565b5b0492506040810190505b6d04ee2d6d415b85acef81000000008310612280576d04ee2d6d415b85acef8100000000838161227657612275613842565b5b0492506020810190505b662386f26fc1000083106122af57662386f26fc1000083816122a5576122a4613842565b5b0492506010810190505b6305f5e10083106122d8576305f5e10083816122ce576122cd613842565b5b0492506008810190505b61271083106122fd5761271083816122f3576122f2613842565b5b0492506004810190505b60648310612320576064838161231657612315613842565b5b0492506002810190505b600a831061232f576001810190505b80915050919050565b828054828255906000526020600020908101928215612374579160200282015b82811115612373578251825591602001919060010190612358565b5b50905061238191906123c5565b5090565b508054612391906129cb565b6000825580601f106123a357506123c2565b601f0160209004906000526020600020908101906123c191906123c5565b5b50565b5b808211156123de5760008160009055506001016123c6565b5090565b6000604051905090565b600080fd5b600080fd5b60007fffffffff0000000000000000000000000000000000000000000000000000000082169050919050565b61242b816123f6565b811461243657600080fd5b50565b60008135905061244881612422565b92915050565b600060208284031215612464576124636123ec565b5b600061247284828501612439565b91505092915050565b60008115159050919050565b6124908161247b565b82525050565b60006020820190506124ab6000830184612487565b92915050565b600081519050919050565b600082825260208201905092915050565b60005b838110156124eb5780820151818401526020810190506124d0565b60008484015250505050565b6000601f19601f8301169050919050565b6000612513826124b1565b61251d81856124bc565b935061252d8185602086016124cd565b612536816124f7565b840191505092915050565b6000602082019050818103600083015261255b8184612508565b905092915050565b6000819050919050565b61257681612563565b811461258157600080fd5b50565b6000813590506125938161256d565b92915050565b6000602082840312156125af576125ae6123ec565b5b60006125bd84828501612584565b91505092915050565b600073ffffffffffffffffffffffffffffffffffffffff82169050919050565b60006125f1826125c6565b9050919050565b612601816125e6565b82525050565b600060208201905061261c60008301846125f8565b92915050565b61262b816125e6565b811461263657600080fd5b50565b60008135905061264881612622565b92915050565b60008060408385031215612665576126646123ec565b5b600061267385828601612639565b925050602061268485828601612584565b9150509250929050565b61269781612563565b82525050565b60006020820190506126b2600083018461268e565b92915050565b6000806000606084860312156126d1576126d06123ec565b5b60006126df86828701612639565b93505060206126f086828701612639565b925050604061270186828701612584565b9150509250925092565b600060208284031215612721576127206123ec565b5b600061272f84828501612639565b91505092915050565b6127418161247b565b811461274c57600080fd5b50565b60008135905061275e81612738565b92915050565b6000806040838503121561277b5761277a6123ec565b5b600061278985828601612639565b925050602061279a8582860161274f565b9150509250929050565b600080fd5b600080fd5b7f4e487b7100000000000000000000000000000000000000000000000000000000600052604160045260246000fd5b6127e6826124f7565b810181811067ffffffffffffffff82111715612805576128046127ae565b5b80604052505050565b60006128186123e2565b905061282482826127dd565b919050565b600067ffffffffffffffff821115612844576128436127ae565b5b61284d826124f7565b9050602081019050919050565b82818337600083830152505050565b600061287c61287784612829565b61280e565b905082815260208101848484011115612898576128976127a9565b5b6128a384828561285a565b509392505050565b600082601f8301126128c0576128bf6127a4565b5b81356128d0848260208601612869565b91505092915050565b600080600080608085870312156128f3576128f26123ec565b5b600061290187828801612639565b945050602061291287828801612639565b935050604061292387828801612584565b925050606085013567ffffffffffffffff811115612944576129436123f1565b5b612950878288016128ab565b91505092959194509250565b60008060408385031215612973576129726123ec565b5b600061298185828601612639565b925050602061299285828601612639565b9150509250929050565b7f4e487b7100000000000000000000000000000000000000000000000000000000600052602260045260246000fd5b600060028204905060018216806129e357607f821691505b6020821081036129f6576129f561299c565b5b50919050565b7f4552433732313a20617070726f76616c20746f2063757272656e74206f776e6560008201527f7200000000000000000000000000000000000000000000000000000000000000602082015250565b6000612a586021836124bc565b9150612a63826129fc565b604082019050919050565b60006020820190508181036000830152612a8781612a4b565b9050919050565b7f4552433732313a20617070726f76652063616c6c6572206973206e6f7420746f60008201527f6b656e206f776e6572206f7220617070726f76656420666f7220616c6c000000602082015250565b6000612aea603d836124bc565b9150612af582612a8e565b604082019050919050565b60006020820190508181036000830152612b1981612add565b9050919050565b7f4552433732313a2063616c6c6572206973206e6f7420746f6b656e206f776e6560008201527f72206f7220617070726f76656400000000000000000000000000000000000000602082015250565b6000612b7c602d836124bc565b9150612b8782612b20565b604082019050919050565b60006020820190508181036000830152612bab81612b6f565b9050919050565b7f4552433732313a20696e76616c696420746f6b656e2049440000000000000000600082015250565b6000612be86018836124bc565b9150612bf382612bb2565b602082019050919050565b60006020820190508181036000830152612c1781612bdb565b9050919050565b7f4552433732313a2061646472657373207a65726f206973206e6f74206120766160008201527f6c6964206f776e65720000000000000000000000000000000000000000000000602082015250565b6000612c7a6029836124bc565b9150612c8582612c1e565b604082019050919050565b60006020820190508181036000830152612ca981612c6d565b9050919050565b7f4e6f207469656e6573207469636b65747320737566696369656e746573000000600082015250565b6000612ce6601d836124bc565b9150612cf182612cb0565b602082019050919050565b60006020820190508181036000830152612d1581612cd9565b9050919050565b7f4e487b7100000000000000000000000000000000000000000000000000000000600052601160045260246000fd5b6000612d5682612563565b9150612d6183612563565b9250828203905081811115612d7957612d78612d1c565b5b92915050565b7f4e487b7100000000000000000000000000000000000000000000000000000000600052603260045260246000fd5b7f4e487b7100000000000000000000000000000000000000000000000000000000600052603160045260246000fd5b6000612de882612563565b91507fffffffffffffffffffffffffffffffffffffffffffffffffffffffffffffffff8203612e1a57612e19612d1c565b5b600182019050919050565b6000612e3082612563565b9150612e3b83612563565b9250828202612e4981612563565b91508282048414831517612e6057612e5f612d1c565b5b5092915050565b7f53616c646f20696e737566696369656e74650000000000000000000000000000600082015250565b6000612e9d6012836124bc565b9150612ea882612e67565b602082019050919050565b60006020820190508181036000830152612ecc81612e90565b9050919050565b7f4c6f2073656e74696d6f732c20736f6c6f2070756564657320636f6d7072617260008201527f20756e207469636b657400000000000000000000000000000000000000000000602082015250565b6000612f2f602a836124bc565b9150612f3a82612ed3565b604082019050919050565b60006020820190508181036000830152612f5e81612f22565b9050919050565b7f56617961207961207469656e657320756e207469636b65742c206e6f2065732060008201527f706f7369626c6520636f6d70726172206d617300000000000000000000000000602082015250565b6000612fc16033836124bc565b9150612fcc82612f65565b604082019050919050565b60006020820190508181036000830152612ff081612fb4565b9050919050565b600081905092915050565b600061300d826124b1565b6130178185612ff7565b93506130278185602086016124cd565b80840191505092915050565b600061303f8285613002565b915061304b8284613002565b91508190509392505050565b7f4f776e61626c653a206e6577206f776e657220697320746865207a65726f206160008201527f6464726573730000000000000000000000000000000000000000000000000000602082015250565b60006130b36026836124bc565b91506130be82613057565b604082019050919050565b600060208201905081810360008301526130e2816130a6565b9050919050565b7f4552433732313a207472616e736665722066726f6d20696e636f72726563742060008201527f6f776e6572000000000000000000000000000000000000000000000000000000602082015250565b60006131456025836124bc565b9150613150826130e9565b604082019050919050565b6000602082019050818103600083015261317481613138565b9050919050565b7f4552433732313a207472616e7366657220746f20746865207a65726f2061646460008201527f7265737300000000000000000000000000000000000000000000000000000000602082015250565b60006131d76024836124bc565b91506131e28261317b565b604082019050919050565b60006020820190508181036000830152613206816131ca565b9050919050565b7f4f776e61626c653a2063616c6c6572206973206e6f7420746865206f776e6572600082015250565b60006132436020836124bc565b915061324e8261320d565b602082019050919050565b6000602082019050818103600083015261327281613236565b9050919050565b7f4552433732313a20617070726f766520746f2063616c6c657200000000000000600082015250565b60006132af6019836124bc565b91506132ba82613279565b602082019050919050565b600060208201905081810360008301526132de816132a2565b9050919050565b7f4552433732313a207472616e7366657220746f206e6f6e20455243373231526560008201527f63656976657220696d706c656d656e7465720000000000000000000000000000602082015250565b60006133416032836124bc565b915061334c826132e5565b604082019050919050565b6000602082019050818103600083015261337081613334565b9050919050565b7f4552433732313a206d696e7420746f20746865207a65726f2061646472657373600082015250565b60006133ad6020836124bc565b91506133b882613377565b602082019050919050565b600060208201905081810360008301526133dc816133a0565b9050919050565b7f4552433732313a20746f6b656e20616c7265616479206d696e74656400000000600082015250565b6000613419601c836124bc565b9150613424826133e3565b602082019050919050565b600060208201905081810360008301526134488161340c565b9050919050565b7f45524337323155524953746f726167653a2055524920736574206f66206e6f6e60008201527f6578697374656e7420746f6b656e000000000000000000000000000000000000602082015250565b60006134ab602e836124bc565b91506134b68261344f565b604082019050919050565b600060208201905081810360008301526134da8161349e565b9050919050565b60008190508160005260206000209050919050565b60006020601f8301049050919050565b600082821b905092915050565b6000600883026135437fffffffffffffffffffffffffffffffffffffffffffffffffffffffffffffffff82613506565b61354d8683613506565b95508019841693508086168417925050509392505050565b6000819050919050565b600061358a61358561358084612563565b613565565b612563565b9050919050565b6000819050919050565b6135a48361356f565b6135b86135b082613591565b848454613513565b825550505050565b600090565b6135cd6135c0565b6135d881848461359b565b505050565b5b818110156135fc576135f16000826135c5565b6001810190506135de565b5050565b601f82111561364157613612816134e1565b61361b846134f6565b8101602085101561362a578190505b61363e613636856134f6565b8301826135dd565b50505b505050565b600082821c905092915050565b600061366460001984600802613646565b1980831691505092915050565b600061367d8383613653565b9150826002028217905092915050565b613696826124b1565b67ffffffffffffffff8111156136af576136ae6127ae565b5b6136b982546129cb565b6136c4828285613600565b600060209050601f8311600181146136f757600084156136e5578287015190505b6136ef8582613671565b865550613757565b601f198416613705866134e1565b60005b8281101561372d57848901518255600182019150602085019450602081019050613708565b8683101561374a5784890151613746601f891682613653565b8355505b6001600288020188555050505b505050505050565b600081519050919050565b600082825260208201905092915050565b60006137868261375f565b613790818561376a565b93506137a08185602086016124cd565b6137a9816124f7565b840191505092915050565b60006080820190506137c960008301876125f8565b6137d660208301866125f8565b6137e3604083018561268e565b81810360608301526137f5818461377b565b905095945050505050565b60008151905061380f81612422565b92915050565b60006020828403121561382b5761382a6123ec565b5b600061383984828501613800565b91505092915050565b7f4e487b7100000000000000000000000000000000000000000000000000000000600052601260045260246000fdfe68747470733a2f2f626c6f636b7469636b2e696e667572612d697066732e696f2f697066732f516d5470375a646d6b3445537143444d7a5a4859384e676e4b3370557672796d71394259785a5a426e4e50566d74a2646970667358221220954e9156ee835faee0e15aa0664f097590d0625f3a8e7c6578e5a7ac4e0a7bb864736f6c63430008130033",
  "immutableReferences": {},
  "source": "// SPDX-License-Identifier: MIT\r\npragma solidity >=0.8.0 <0.9.0;\r\n\r\nimport \"@openzeppelin/contracts/token/ERC721/extensions/ERC721URIStorage.sol\";\r\nimport \"@openzeppelin/contracts/access/Ownable.sol\";\r\nimport \"@openzeppelin/contracts/utils/Counters.sol\";\r\n\r\ncontract Ticket is ERC721URIStorage, Ownable {\r\n    using Counters for Counters.Counter;\r\n    Counters.Counter private tokenIdCounter;\r\n\r\n    uint256 public ticketPrice = 0.000000000000000001 ether; //1 wei\r\n    mapping(address => uint256[]) public ticketHolders;\r\n\r\n    constructor() ERC721(\"BlocktickNFT\", \"BKT\") {\r\n    }\r\n\r\n    function buyTickets(address, uint256 _amount) payable public {\r\n        require(msg.value >= ticketPrice * _amount, \"Saldo insuficiente\");\r\n        require(_amount == 1, \"Lo sentimos, solo puedes comprar un ticket\");\r\n        require(ticketHolders[msg.sender].length == 0, \"Vaya ya tienes un ticket, no es posible comprar mas\");\r\n        uint256[] memory tokenIds = _mintNFTs(msg.sender, _amount);\r\n        ticketHolders[msg.sender] = tokenIds;\r\n    }\r\n\r\n    function useTickets(address _user, uint256 _amount) public {\r\n        require(ticketHolders[msg.sender].length >= _amount, \"No tienes tickets suficientes\");\r\n        \r\n        for (uint256 i = 0; i < _amount; i++) {\r\n            uint256 tokenId = ticketHolders[_user][ticketHolders[_user].length - 1];\r\n            ticketHolders[msg.sender].pop();\r\n            _burn(tokenId);\r\n        }\r\n    }\r\n\r\n\r\n    function _mintNFTs(address, uint256 _amount) internal returns (uint256[] memory) {\r\n        require(_amount == 1, \"Lo sentimos, solo puedes comprar un ticket\"); \r\n        uint256[] memory newTokenIds = new uint256[](_amount);\r\n\r\n        string memory ipfsUrl = \"https://blocktick.infura-ipfs.io/ipfs/QmTp7Zdmk4ESqCDMzZHY8NgnK3pUvrymq9BYxZZBnNPVmt\";\r\n\r\n        for (uint256 i = 0; i < _amount; i++) {\r\n            uint256 tokenId = tokenIdCounter.current();\r\n            _mint(msg.sender, tokenId);\r\n            //_setTokenURI(tokenId, string(abi.encodePacked(tokenId)));\r\n            _setTokenURI(tokenId, ipfsUrl);\r\n            tokenIdCounter.increment();\r\n            newTokenIds[i] = tokenId;\r\n        }\r\n        \r\n        return newTokenIds;\r\n    }\r\n}\r\n\r\ncontract TicketAsset {\r\n    string public eventName;\r\n    string public eventOrganizer;\r\n    string public eventCategory;\r\n    address public eventOwner;\r\n    uint256 public price;\r\n\r\n    constructor(\r\n        string memory _eventName,\r\n        string memory _eventOrganizer,\r\n        string memory _eventCategory,\r\n        address _owner,\r\n        uint256 _price\r\n    ) {\r\n        eventName = _eventName;\r\n        eventOrganizer = _eventOrganizer;\r\n        eventCategory = _eventCategory;\r\n        eventOwner = _owner;\r\n        price = _price;\r\n    }\r\n\r\n    function buyTicket() public payable returns (bool) {\r\n        require(msg.value == price, \"Invalid payment\");\r\n        payable(eventOwner).transfer(msg.value);\r\n        eventOwner = msg.sender;\r\n        return true;\r\n    }\r\n\r\n    function getPrice() public view returns (uint256) {\r\n        return price;\r\n    }\r\n}\r\n",
  "sourcePath": "D:\\Documentos\\BLOCKCHAIN\\Doble Grado BlockChain\\Blockchain Engineering\\TFM - Enginering - SEP 2023\\BLOCKTICK ETHEREUM\\BLOCKTICK\\Ethereum-Blocktick\\contracts\\blockTick.sol",
  "compiler": {
    "name": "solc",
    "version": "0.8.19+commit.7dd6d404.Emscripten.clang"
  },
  "schemaVersion": "3.4.13",
  "updatedAt": "2023-09-02T22:09:17.534Z",
  "networkType": "ethereum",
  "devdoc": {
    "events": {
      "Approval(address,address,uint256)": {
        "details": "Emitted when `owner` enables `approved` to manage the `tokenId` token."
      },
      "ApprovalForAll(address,address,bool)": {
        "details": "Emitted when `owner` enables or disables (`approved`) `operator` to manage all of its assets."
      },
      "BatchMetadataUpdate(uint256,uint256)": {
        "details": "This event emits when the metadata of a range of tokens is changed. So that the third-party platforms such as NFT market could timely update the images and related attributes of the NFTs."
      },
      "MetadataUpdate(uint256)": {
        "details": "This event emits when the metadata of a token is changed. So that the third-party platforms such as NFT market could timely update the images and related attributes of the NFT."
      },
      "Transfer(address,address,uint256)": {
        "details": "Emitted when `tokenId` token is transferred from `from` to `to`."
      }
    },
    "kind": "dev",
    "methods": {
      "approve(address,uint256)": {
        "details": "See {IERC721-approve}."
      },
      "balanceOf(address)": {
        "details": "See {IERC721-balanceOf}."
      },
      "getApproved(uint256)": {
        "details": "See {IERC721-getApproved}."
      },
      "isApprovedForAll(address,address)": {
        "details": "See {IERC721-isApprovedForAll}."
      },
      "name()": {
        "details": "See {IERC721Metadata-name}."
      },
      "owner()": {
        "details": "Returns the address of the current owner."
      },
      "ownerOf(uint256)": {
        "details": "See {IERC721-ownerOf}."
      },
      "renounceOwnership()": {
        "details": "Leaves the contract without owner. It will not be possible to call `onlyOwner` functions. Can only be called by the current owner. NOTE: Renouncing ownership will leave the contract without an owner, thereby disabling any functionality that is only available to the owner."
      },
      "safeTransferFrom(address,address,uint256)": {
        "details": "See {IERC721-safeTransferFrom}."
      },
      "safeTransferFrom(address,address,uint256,bytes)": {
        "details": "See {IERC721-safeTransferFrom}."
      },
      "setApprovalForAll(address,bool)": {
        "details": "See {IERC721-setApprovalForAll}."
      },
      "supportsInterface(bytes4)": {
        "details": "See {IERC165-supportsInterface}"
      },
      "symbol()": {
        "details": "See {IERC721Metadata-symbol}."
      },
      "tokenURI(uint256)": {
        "details": "See {IERC721Metadata-tokenURI}."
      },
      "transferFrom(address,address,uint256)": {
        "details": "See {IERC721-transferFrom}."
      },
      "transferOwnership(address)": {
        "details": "Transfers ownership of the contract to a new account (`newOwner`). Can only be called by the current owner."
      }
    },
    "version": 1
  },
  "userdoc": {
    "kind": "user",
    "methods": {},
    "version": 1
  }
}