{
  "contractName": "Ticket",
  "abi": [
    {
      "inputs": [],
      "stateMutability": "nonpayable",
      "type": "constructor"
    },
    {
      "anonymous": false,
      "inputs": [
        {
          "indexed": true,
          "internalType": "address",
          "name": "owner",
          "type": "address"
        },
        {
          "indexed": true,
          "internalType": "address",
          "name": "approved",
          "type": "address"
        },
        {
          "indexed": true,
          "internalType": "uint256",
          "name": "tokenId",
          "type": "uint256"
        }
      ],
      "name": "Approval",
      "type": "event"
    },
    {
      "anonymous": false,
      "inputs": [
        {
          "indexed": true,
          "internalType": "address",
          "name": "owner",
          "type": "address"
        },
        {
          "indexed": true,
          "internalType": "address",
          "name": "operator",
          "type": "address"
        },
        {
          "indexed": false,
          "internalType": "bool",
          "name": "approved",
          "type": "bool"
        }
      ],
      "name": "ApprovalForAll",
      "type": "event"
    },
    {
      "anonymous": false,
      "inputs": [
        {
          "indexed": false,
          "internalType": "uint256",
          "name": "_fromTokenId",
          "type": "uint256"
        },
        {
          "indexed": false,
          "internalType": "uint256",
          "name": "_toTokenId",
          "type": "uint256"
        }
      ],
      "name": "BatchMetadataUpdate",
      "type": "event"
    },
    {
      "anonymous": false,
      "inputs": [
        {
          "indexed": false,
          "internalType": "uint256",
          "name": "_tokenId",
          "type": "uint256"
        }
      ],
      "name": "MetadataUpdate",
      "type": "event"
    },
    {
      "anonymous": false,
      "inputs": [
        {
          "indexed": true,
          "internalType": "address",
          "name": "previousOwner",
          "type": "address"
        },
        {
          "indexed": true,
          "internalType": "address",
          "name": "newOwner",
          "type": "address"
        }
      ],
      "name": "OwnershipTransferred",
      "type": "event"
    },
    {
      "anonymous": false,
      "inputs": [
        {
          "indexed": true,
          "internalType": "address",
          "name": "from",
          "type": "address"
        },
        {
          "indexed": true,
          "internalType": "address",
          "name": "to",
          "type": "address"
        },
        {
          "indexed": true,
          "internalType": "uint256",
          "name": "tokenId",
          "type": "uint256"
        }
      ],
      "name": "Transfer",
      "type": "event"
    },
    {
      "inputs": [
        {
          "internalType": "address",
          "name": "to",
          "type": "address"
        },
        {
          "internalType": "uint256",
          "name": "tokenId",
          "type": "uint256"
        }
      ],
      "name": "approve",
      "outputs": [],
      "stateMutability": "nonpayable",
      "type": "function"
    },
    {
      "inputs": [
        {
          "internalType": "address",
          "name": "owner",
          "type": "address"
        }
      ],
      "name": "balanceOf",
      "outputs": [
        {
          "internalType": "uint256",
          "name": "",
          "type": "uint256"
        }
      ],
      "stateMutability": "view",
      "type": "function"
    },
    {
      "inputs": [
        {
          "internalType": "uint256",
          "name": "tokenId",
          "type": "uint256"
        }
      ],
      "name": "getApproved",
      "outputs": [
        {
          "internalType": "address",
          "name": "",
          "type": "address"
        }
      ],
      "stateMutability": "view",
      "type": "function"
    },
    {
      "inputs": [
        {
          "internalType": "address",
          "name": "owner",
          "type": "address"
        },
        {
          "internalType": "address",
          "name": "operator",
          "type": "address"
        }
      ],
      "name": "isApprovedForAll",
      "outputs": [
        {
          "internalType": "bool",
          "name": "",
          "type": "bool"
        }
      ],
      "stateMutability": "view",
      "type": "function"
    },
    {
      "inputs": [],
      "name": "name",
      "outputs": [
        {
          "internalType": "string",
          "name": "",
          "type": "string"
        }
      ],
      "stateMutability": "view",
      "type": "function"
    },
    {
      "inputs": [],
      "name": "owner",
      "outputs": [
        {
          "internalType": "address",
          "name": "",
          "type": "address"
        }
      ],
      "stateMutability": "view",
      "type": "function"
    },
    {
      "inputs": [
        {
          "internalType": "uint256",
          "name": "tokenId",
          "type": "uint256"
        }
      ],
      "name": "ownerOf",
      "outputs": [
        {
          "internalType": "address",
          "name": "",
          "type": "address"
        }
      ],
      "stateMutability": "view",
      "type": "function"
    },
    {
      "inputs": [],
      "name": "renounceOwnership",
      "outputs": [],
      "stateMutability": "nonpayable",
      "type": "function"
    },
    {
      "inputs": [
        {
          "internalType": "address",
          "name": "from",
          "type": "address"
        },
        {
          "internalType": "address",
          "name": "to",
          "type": "address"
        },
        {
          "internalType": "uint256",
          "name": "tokenId",
          "type": "uint256"
        }
      ],
      "name": "safeTransferFrom",
      "outputs": [],
      "stateMutability": "nonpayable",
      "type": "function"
    },
    {
      "inputs": [
        {
          "internalType": "address",
          "name": "from",
          "type": "address"
        },
        {
          "internalType": "address",
          "name": "to",
          "type": "address"
        },
        {
          "internalType": "uint256",
          "name": "tokenId",
          "type": "uint256"
        },
        {
          "internalType": "bytes",
          "name": "data",
          "type": "bytes"
        }
      ],
      "name": "safeTransferFrom",
      "outputs": [],
      "stateMutability": "nonpayable",
      "type": "function"
    },
    {
      "inputs": [
        {
          "internalType": "address",
          "name": "operator",
          "type": "address"
        },
        {
          "internalType": "bool",
          "name": "approved",
          "type": "bool"
        }
      ],
      "name": "setApprovalForAll",
      "outputs": [],
      "stateMutability": "nonpayable",
      "type": "function"
    },
    {
      "inputs": [
        {
          "internalType": "bytes4",
          "name": "interfaceId",
          "type": "bytes4"
        }
      ],
      "name": "supportsInterface",
      "outputs": [
        {
          "internalType": "bool",
          "name": "",
          "type": "bool"
        }
      ],
      "stateMutability": "view",
      "type": "function"
    },
    {
      "inputs": [],
      "name": "symbol",
      "outputs": [
        {
          "internalType": "string",
          "name": "",
          "type": "string"
        }
      ],
      "stateMutability": "view",
      "type": "function"
    },
    {
      "inputs": [
        {
          "internalType": "address",
          "name": "",
          "type": "address"
        },
        {
          "internalType": "uint256",
          "name": "",
          "type": "uint256"
        }
      ],
      "name": "ticketHolders",
      "outputs": [
        {
          "internalType": "uint256",
          "name": "",
          "type": "uint256"
        }
      ],
      "stateMutability": "view",
      "type": "function"
    },
    {
      "inputs": [],
      "name": "ticketPrice",
      "outputs": [
        {
          "internalType": "uint256",
          "name": "",
          "type": "uint256"
        }
      ],
      "stateMutability": "view",
      "type": "function"
    },
    {
      "inputs": [
        {
          "internalType": "uint256",
          "name": "tokenId",
          "type": "uint256"
        }
      ],
      "name": "tokenURI",
      "outputs": [
        {
          "internalType": "string",
          "name": "",
          "type": "string"
        }
      ],
      "stateMutability": "view",
      "type": "function"
    },
    {
      "inputs": [
        {
          "internalType": "address",
          "name": "from",
          "type": "address"
        },
        {
          "internalType": "address",
          "name": "to",
          "type": "address"
        },
        {
          "internalType": "uint256",
          "name": "tokenId",
          "type": "uint256"
        }
      ],
      "name": "transferFrom",
      "outputs": [],
      "stateMutability": "nonpayable",
      "type": "function"
    },
    {
      "inputs": [
        {
          "internalType": "address",
          "name": "newOwner",
          "type": "address"
        }
      ],
      "name": "transferOwnership",
      "outputs": [],
      "stateMutability": "nonpayable",
      "type": "function"
    },
    {
      "inputs": [
        {
          "internalType": "address",
          "name": "_user",
          "type": "address"
        },
        {
          "internalType": "uint256",
          "name": "_amount",
          "type": "uint256"
        }
      ],
      "name": "buyTickets",
      "outputs": [],
      "stateMutability": "payable",
      "type": "function"
    },
    {
      "inputs": [
        {
          "internalType": "address",
          "name": "_user",
          "type": "address"
        },
        {
          "internalType": "uint256",
          "name": "_amount",
          "type": "uint256"
        }
      ],
      "name": "useTickets",
      "outputs": [],
      "stateMutability": "nonpayable",
      "type": "function"
    }
  ],
  "bytecode": "0x6080604052670de0b6b3a76400006009553480156200001d57600080fd5b506040518060400160405280600981526020017f5469636b65744e465400000000000000000000000000000000000000000000008152506040518060400160405280600681526020017f5449434b4554000000000000000000000000000000000000000000000000000081525081600090816200009b91906200041e565b508060019081620000ad91906200041e565b505050620000d0620000c4620000d660201b60201c565b620000de60201b60201c565b62000505565b600033905090565b6000600760009054906101000a900473ffffffffffffffffffffffffffffffffffffffff16905081600760006101000a81548173ffffffffffffffffffffffffffffffffffffffff021916908373ffffffffffffffffffffffffffffffffffffffff1602179055508173ffffffffffffffffffffffffffffffffffffffff168173ffffffffffffffffffffffffffffffffffffffff167f8be0079c531659141344cd1fd0a4f28419497f9722a3daafe3b4186f6b6457e060405160405180910390a35050565b600081519050919050565b7f4e487b7100000000000000000000000000000000000000000000000000000000600052604160045260246000fd5b7f4e487b7100000000000000000000000000000000000000000000000000000000600052602260045260246000fd5b600060028204905060018216806200022657607f821691505b6020821081036200023c576200023b620001de565b5b50919050565b60008190508160005260206000209050919050565b60006020601f8301049050919050565b600082821b905092915050565b600060088302620002a67fffffffffffffffffffffffffffffffffffffffffffffffffffffffffffffffff8262000267565b620002b2868362000267565b95508019841693508086168417925050509392505050565b6000819050919050565b6000819050919050565b6000620002ff620002f9620002f384620002ca565b620002d4565b620002ca565b9050919050565b6000819050919050565b6200031b83620002de565b620003336200032a8262000306565b84845462000274565b825550505050565b600090565b6200034a6200033b565b6200035781848462000310565b505050565b5b818110156200037f576200037360008262000340565b6001810190506200035d565b5050565b601f821115620003ce57620003988162000242565b620003a38462000257565b81016020851015620003b3578190505b620003cb620003c28562000257565b8301826200035c565b50505b505050565b600082821c905092915050565b6000620003f360001984600802620003d3565b1980831691505092915050565b60006200040e8383620003e0565b9150826002028217905092915050565b6200042982620001a4565b67ffffffffffffffff811115620004455762000444620001af565b5b6200045182546200020d565b6200045e82828562000383565b600060209050601f83116001811462000496576000841562000481578287015190505b6200048d858262000400565b865550620004fd565b601f198416620004a68662000242565b60005b82811015620004d057848901518255600182019150602085019450602081019050620004a9565b86831015620004f05784890151620004ec601f891682620003e0565b8355505b6001600288020188555050505b505050505050565b6138e480620005156000396000f3fe60806040526004361061011f5760003560e01c80637e33b76c116100a0578063a22cb46511610064578063a22cb465146103d8578063b88d4fde14610401578063c87b56dd1461042a578063e985e9c514610467578063f2fde38b146104a45761011f565b80637e33b76c14610300578063826155691461032957806388f57767146103665780638da5cb5b1461038257806395d89b41146103ad5761011f565b806323b872dd116100e757806323b872dd1461021d57806342842e0e146102465780636352211e1461026f57806370a08231146102ac578063715018a6146102e95761011f565b806301ffc9a71461012457806306fdde0314610161578063081812fc1461018c578063095ea7b3146101c95780631209b1f6146101f2575b600080fd5b34801561013057600080fd5b5061014b6004803603810190610146919061244f565b6104cd565b6040516101589190612497565b60405180910390f35b34801561016d57600080fd5b5061017661052e565b6040516101839190612542565b60405180910390f35b34801561019857600080fd5b506101b360048036038101906101ae919061259a565b6105c0565b6040516101c09190612608565b60405180910390f35b3480156101d557600080fd5b506101f060048036038101906101eb919061264f565b610606565b005b3480156101fe57600080fd5b5061020761071d565b604051610214919061269e565b60405180910390f35b34801561022957600080fd5b50610244600480360381019061023f91906126b9565b610723565b005b34801561025257600080fd5b5061026d600480360381019061026891906126b9565b610783565b005b34801561027b57600080fd5b506102966004803603810190610291919061259a565b6107a3565b6040516102a39190612608565b60405180910390f35b3480156102b857600080fd5b506102d360048036038101906102ce919061270c565b610829565b6040516102e0919061269e565b60405180910390f35b3480156102f557600080fd5b506102fe6108e0565b005b34801561030c57600080fd5b506103276004803603810190610322919061264f565b6108f4565b005b34801561033557600080fd5b50610350600480360381019061034b919061264f565b610ab9565b60405161035d919061269e565b60405180910390f35b610380600480360381019061037b919061264f565b610aea565b005b34801561038e57600080fd5b50610397610c69565b6040516103a49190612608565b60405180910390f35b3480156103b957600080fd5b506103c2610c93565b6040516103cf9190612542565b60405180910390f35b3480156103e457600080fd5b506103ff60048036038101906103fa9190612765565b610d25565b005b34801561040d57600080fd5b50610428600480360381019061042391906128da565b610d3b565b005b34801561043657600080fd5b50610451600480360381019061044c919061259a565b610d9d565b60405161045e9190612542565b60405180910390f35b34801561047357600080fd5b5061048e6004803603810190610489919061295d565b610eaf565b60405161049b9190612497565b60405180910390f35b3480156104b057600080fd5b506104cb60048036038101906104c6919061270c565b610f43565b005b6000634906490660e01b7bffffffffffffffffffffffffffffffffffffffffffffffffffffffff1916827bffffffffffffffffffffffffffffffffffffffffffffffffffffffff19161480610527575061052682610fc6565b5b9050919050565b60606000805461053d906129cc565b80601f0160208091040260200160405190810160405280929190818152602001828054610569906129cc565b80156105b65780601f1061058b576101008083540402835291602001916105b6565b820191906000526020600020905b81548152906001019060200180831161059957829003601f168201915b5050505050905090565b60006105cb826110a8565b6004600083815260200190815260200160002060009054906101000a900473ffffffffffffffffffffffffffffffffffffffff169050919050565b6000610611826107a3565b90508073ffffffffffffffffffffffffffffffffffffffff168373ffffffffffffffffffffffffffffffffffffffff1603610681576040517f08c379a000000000000000000000000000000000000000000000000000000000815260040161067890612a6f565b60405180910390fd5b8073ffffffffffffffffffffffffffffffffffffffff166106a06110f3565b73ffffffffffffffffffffffffffffffffffffffff1614806106cf57506106ce816106c96110f3565b610eaf565b5b61070e576040517f08c379a000000000000000000000000000000000000000000000000000000000815260040161070590612b01565b60405180910390fd5b61071883836110fb565b505050565b60095481565b61073461072e6110f3565b826111b4565b610773576040517f08c379a000000000000000000000000000000000000000000000000000000000815260040161076a90612b93565b60405180910390fd5b61077e838383611249565b505050565b61079e83838360405180602001604052806000815250610d3b565b505050565b6000806107af83611542565b9050600073ffffffffffffffffffffffffffffffffffffffff168173ffffffffffffffffffffffffffffffffffffffff1603610820576040517f08c379a000000000000000000000000000000000000000000000000000000000815260040161081790612bff565b60405180910390fd5b80915050919050565b60008073ffffffffffffffffffffffffffffffffffffffff168273ffffffffffffffffffffffffffffffffffffffff1603610899576040517f08c379a000000000000000000000000000000000000000000000000000000000815260040161089090612c91565b60405180910390fd5b600360008373ffffffffffffffffffffffffffffffffffffffff1673ffffffffffffffffffffffffffffffffffffffff168152602001908152602001600020549050919050565b6108e861157f565b6108f260006115fd565b565b80600a60008473ffffffffffffffffffffffffffffffffffffffff1673ffffffffffffffffffffffffffffffffffffffff168152602001908152602001600020805490501015610979576040517f08c379a000000000000000000000000000000000000000000000000000000000815260040161097090612cfd565b60405180910390fd5b60005b81811015610ab4576000600a60008573ffffffffffffffffffffffffffffffffffffffff1673ffffffffffffffffffffffffffffffffffffffff1681526020019081526020016000206001600a60008773ffffffffffffffffffffffffffffffffffffffff1673ffffffffffffffffffffffffffffffffffffffff16815260200190815260200160002080549050610a149190612d4c565b81548110610a2557610a24612d80565b5b90600052602060002001549050600a60008573ffffffffffffffffffffffffffffffffffffffff1673ffffffffffffffffffffffffffffffffffffffff168152602001908152602001600020805480610a8157610a80612daf565b5b60019003818190600052602060002001600090559055610aa0816116c3565b508080610aac90612dde565b91505061097c565b505050565b600a6020528160005260406000208181548110610ad557600080fd5b90600052602060002001600091509150505481565b80600954610af89190612e26565b341015610b3a576040517f08c379a0000000000000000000000000000000000000000000000000000000008152600401610b3190612eb4565b60405180910390fd5b60018114610b7d576040517f08c379a0000000000000000000000000000000000000000000000000000000008152600401610b7490612f46565b60405180910390fd5b6000600a60003373ffffffffffffffffffffffffffffffffffffffff1673ffffffffffffffffffffffffffffffffffffffff1681526020019081526020016000208054905014610c02576040517f08c379a0000000000000000000000000000000000000000000000000000000008152600401610bf990612fd8565b60405180910390fd5b6000610c0e8383611716565b905080600a60008573ffffffffffffffffffffffffffffffffffffffff1673ffffffffffffffffffffffffffffffffffffffff1681526020019081526020016000209080519060200190610c63929190612339565b50505050565b6000600760009054906101000a900473ffffffffffffffffffffffffffffffffffffffff16905090565b606060018054610ca2906129cc565b80601f0160208091040260200160405190810160405280929190818152602001828054610cce906129cc565b8015610d1b5780601f10610cf057610100808354040283529160200191610d1b565b820191906000526020600020905b815481529060010190602001808311610cfe57829003601f168201915b5050505050905090565b610d37610d306110f3565b838361183d565b5050565b610d4c610d466110f3565b836111b4565b610d8b576040517f08c379a0000000000000000000000000000000000000000000000000000000008152600401610d8290612b93565b60405180910390fd5b610d97848484846119a9565b50505050565b6060610da8826110a8565b6000600660008481526020019081526020016000208054610dc8906129cc565b80601f0160208091040260200160405190810160405280929190818152602001828054610df4906129cc565b8015610e415780601f10610e1657610100808354040283529160200191610e41565b820191906000526020600020905b815481529060010190602001808311610e2457829003601f168201915b505050505090506000610e52611a05565b90506000815103610e67578192505050610eaa565b600082511115610e9c578082604051602001610e84929190613034565b60405160208183030381529060405292505050610eaa565b610ea584611a1c565b925050505b919050565b6000600560008473ffffffffffffffffffffffffffffffffffffffff1673ffffffffffffffffffffffffffffffffffffffff16815260200190815260200160002060008373ffffffffffffffffffffffffffffffffffffffff1673ffffffffffffffffffffffffffffffffffffffff16815260200190815260200160002060009054906101000a900460ff16905092915050565b610f4b61157f565b600073ffffffffffffffffffffffffffffffffffffffff168173ffffffffffffffffffffffffffffffffffffffff1603610fba576040517f08c379a0000000000000000000000000000000000000000000000000000000008152600401610fb1906130ca565b60405180910390fd5b610fc3816115fd565b50565b60007f80ac58cd000000000000000000000000000000000000000000000000000000007bffffffffffffffffffffffffffffffffffffffffffffffffffffffff1916827bffffffffffffffffffffffffffffffffffffffffffffffffffffffff1916148061109157507f5b5e139f000000000000000000000000000000000000000000000000000000007bffffffffffffffffffffffffffffffffffffffffffffffffffffffff1916827bffffffffffffffffffffffffffffffffffffffffffffffffffffffff1916145b806110a157506110a082611a84565b5b9050919050565b6110b181611aee565b6110f0576040517f08c379a00000000000000000000000000000000000000000000000000000000081526004016110e790612bff565b60405180910390fd5b50565b600033905090565b816004600083815260200190815260200160002060006101000a81548173ffffffffffffffffffffffffffffffffffffffff021916908373ffffffffffffffffffffffffffffffffffffffff160217905550808273ffffffffffffffffffffffffffffffffffffffff1661116e836107a3565b73ffffffffffffffffffffffffffffffffffffffff167f8c5be1e5ebec7d5bd14f71427d1e84f3dd0314c0f7b2291e5b200ac8c7c3b92560405160405180910390a45050565b6000806111c0836107a3565b90508073ffffffffffffffffffffffffffffffffffffffff168473ffffffffffffffffffffffffffffffffffffffff16148061120257506112018185610eaf565b5b8061124057508373ffffffffffffffffffffffffffffffffffffffff16611228846105c0565b73ffffffffffffffffffffffffffffffffffffffff16145b91505092915050565b8273ffffffffffffffffffffffffffffffffffffffff16611269826107a3565b73ffffffffffffffffffffffffffffffffffffffff16146112bf576040517f08c379a00000000000000000000000000000000000000000000000000000000081526004016112b69061315c565b60405180910390fd5b600073ffffffffffffffffffffffffffffffffffffffff168273ffffffffffffffffffffffffffffffffffffffff160361132e576040517f08c379a0000000000000000000000000000000000000000000000000000000008152600401611325906131ee565b60405180910390fd5b61133b8383836001611b2f565b8273ffffffffffffffffffffffffffffffffffffffff1661135b826107a3565b73ffffffffffffffffffffffffffffffffffffffff16146113b1576040517f08c379a00000000000000000000000000000000000000000000000000000000081526004016113a89061315c565b60405180910390fd5b6004600082815260200190815260200160002060006101000a81549073ffffffffffffffffffffffffffffffffffffffff02191690556001600360008573ffffffffffffffffffffffffffffffffffffffff1673ffffffffffffffffffffffffffffffffffffffff168152602001908152602001600020600082825403925050819055506001600360008473ffffffffffffffffffffffffffffffffffffffff1673ffffffffffffffffffffffffffffffffffffffff16815260200190815260200160002060008282540192505081905550816002600083815260200190815260200160002060006101000a81548173ffffffffffffffffffffffffffffffffffffffff021916908373ffffffffffffffffffffffffffffffffffffffff160217905550808273ffffffffffffffffffffffffffffffffffffffff168473ffffffffffffffffffffffffffffffffffffffff167fddf252ad1be2c89b69c2b068fc378daa952ba7f163c4a11628f55a4df523b3ef60405160405180910390a461153d8383836001611b35565b505050565b60006002600083815260200190815260200160002060009054906101000a900473ffffffffffffffffffffffffffffffffffffffff169050919050565b6115876110f3565b73ffffffffffffffffffffffffffffffffffffffff166115a5610c69565b73ffffffffffffffffffffffffffffffffffffffff16146115fb576040517f08c379a00000000000000000000000000000000000000000000000000000000081526004016115f29061325a565b60405180910390fd5b565b6000600760009054906101000a900473ffffffffffffffffffffffffffffffffffffffff16905081600760006101000a81548173ffffffffffffffffffffffffffffffffffffffff021916908373ffffffffffffffffffffffffffffffffffffffff1602179055508173ffffffffffffffffffffffffffffffffffffffff168173ffffffffffffffffffffffffffffffffffffffff167f8be0079c531659141344cd1fd0a4f28419497f9722a3daafe3b4186f6b6457e060405160405180910390a35050565b6116cc81611b3b565b60006006600083815260200190815260200160002080546116ec906129cc565b905014611713576006600082815260200190815260200160002060006117129190612386565b5b50565b60606001821461175b576040517f08c379a000000000000000000000000000000000000000000000000000000000815260040161175290612f46565b60405180910390fd5b60008267ffffffffffffffff811115611777576117766127af565b5b6040519080825280602002602001820160405280156117a55781602001602082028036833780820191505090505b50905060005b838110156118325760006117bf6008611c89565b90506117cb8682611c97565b6117f481826040516020016117e0919061329b565b604051602081830303815290604052611eb4565b6117fe6008611f58565b8083838151811061181257611811612d80565b5b60200260200101818152505050808061182a90612dde565b9150506117ab565b508091505092915050565b8173ffffffffffffffffffffffffffffffffffffffff168373ffffffffffffffffffffffffffffffffffffffff16036118ab576040517f08c379a00000000000000000000000000000000000000000000000000000000081526004016118a290613302565b60405180910390fd5b80600560008573ffffffffffffffffffffffffffffffffffffffff1673ffffffffffffffffffffffffffffffffffffffff16815260200190815260200160002060008473ffffffffffffffffffffffffffffffffffffffff1673ffffffffffffffffffffffffffffffffffffffff16815260200190815260200160002060006101000a81548160ff0219169083151502179055508173ffffffffffffffffffffffffffffffffffffffff168373ffffffffffffffffffffffffffffffffffffffff167f17307eab39ab6107e8899845ad3d59bd9653f200f220920489ca2b5937696c318360405161199c9190612497565b60405180910390a3505050565b6119b4848484611249565b6119c084848484611f6e565b6119ff576040517f08c379a00000000000000000000000000000000000000000000000000000000081526004016119f690613394565b60405180910390fd5b50505050565b606060405180602001604052806000815250905090565b6060611a27826110a8565b6000611a31611a05565b90506000815111611a515760405180602001604052806000815250611a7c565b80611a5b846120f5565b604051602001611a6c929190613034565b6040516020818303038152906040525b915050919050565b60007f01ffc9a7000000000000000000000000000000000000000000000000000000007bffffffffffffffffffffffffffffffffffffffffffffffffffffffff1916827bffffffffffffffffffffffffffffffffffffffffffffffffffffffff1916149050919050565b60008073ffffffffffffffffffffffffffffffffffffffff16611b1083611542565b73ffffffffffffffffffffffffffffffffffffffff1614159050919050565b50505050565b50505050565b6000611b46826107a3565b9050611b56816000846001611b2f565b611b5f826107a3565b90506004600083815260200190815260200160002060006101000a81549073ffffffffffffffffffffffffffffffffffffffff02191690556001600360008373ffffffffffffffffffffffffffffffffffffffff1673ffffffffffffffffffffffffffffffffffffffff168152602001908152602001600020600082825403925050819055506002600083815260200190815260200160002060006101000a81549073ffffffffffffffffffffffffffffffffffffffff021916905581600073ffffffffffffffffffffffffffffffffffffffff168273ffffffffffffffffffffffffffffffffffffffff167fddf252ad1be2c89b69c2b068fc378daa952ba7f163c4a11628f55a4df523b3ef60405160405180910390a4611c85816000846001611b35565b5050565b600081600001549050919050565b600073ffffffffffffffffffffffffffffffffffffffff168273ffffffffffffffffffffffffffffffffffffffff1603611d06576040517f08c379a0000000000000000000000000000000000000000000000000000000008152600401611cfd90613400565b60405180910390fd5b611d0f81611aee565b15611d4f576040517f08c379a0000000000000000000000000000000000000000000000000000000008152600401611d469061346c565b60405180910390fd5b611d5d600083836001611b2f565b611d6681611aee565b15611da6576040517f08c379a0000000000000000000000000000000000000000000000000000000008152600401611d9d9061346c565b60405180910390fd5b6001600360008473ffffffffffffffffffffffffffffffffffffffff1673ffffffffffffffffffffffffffffffffffffffff16815260200190815260200160002060008282540192505081905550816002600083815260200190815260200160002060006101000a81548173ffffffffffffffffffffffffffffffffffffffff021916908373ffffffffffffffffffffffffffffffffffffffff160217905550808273ffffffffffffffffffffffffffffffffffffffff16600073ffffffffffffffffffffffffffffffffffffffff167fddf252ad1be2c89b69c2b068fc378daa952ba7f163c4a11628f55a4df523b3ef60405160405180910390a4611eb0600083836001611b35565b5050565b611ebd82611aee565b611efc576040517f08c379a0000000000000000000000000000000000000000000000000000000008152600401611ef3906134fe565b60405180910390fd5b80600660008481526020019081526020016000209081611f1c91906136ca565b507ff8e1a15aba9398e019f0b49df1a4fde98ee17ae345cb5f6b5e2c27f5033e8ce782604051611f4c919061269e565b60405180910390a15050565b6001816000016000828254019250508190555050565b6000611f8f8473ffffffffffffffffffffffffffffffffffffffff166121c3565b156120e8578373ffffffffffffffffffffffffffffffffffffffff1663150b7a02611fb86110f3565b8786866040518563ffffffff1660e01b8152600401611fda94939291906137f1565b6020604051808303816000875af192505050801561201657506040513d601f19601f820116820180604052508101906120139190613852565b60015b612098573d8060008114612046576040519150601f19603f3d011682016040523d82523d6000602084013e61204b565b606091505b506000815103612090576040517f08c379a000000000000000000000000000000000000000000000000000000000815260040161208790613394565b60405180910390fd5b805181602001fd5b63150b7a0260e01b7bffffffffffffffffffffffffffffffffffffffffffffffffffffffff1916817bffffffffffffffffffffffffffffffffffffffffffffffffffffffff1916149150506120ed565b600190505b949350505050565b606060006001612104846121e6565b01905060008167ffffffffffffffff811115612123576121226127af565b5b6040519080825280601f01601f1916602001820160405280156121555781602001600182028036833780820191505090505b509050600082602001820190505b6001156121b8578080600190039150507f3031323334353637383961626364656600000000000000000000000000000000600a86061a8153600a85816121ac576121ab61387f565b5b04945060008503612163575b819350505050919050565b6000808273ffffffffffffffffffffffffffffffffffffffff163b119050919050565b600080600090507a184f03e93ff9f4daa797ed6e38ed64bf6a1f0100000000000000008310612244577a184f03e93ff9f4daa797ed6e38ed64bf6a1f010000000000000000838161223a5761223961387f565b5b0492506040810190505b6d04ee2d6d415b85acef81000000008310612281576d04ee2d6d415b85acef810000000083816122775761227661387f565b5b0492506020810190505b662386f26fc1000083106122b057662386f26fc1000083816122a6576122a561387f565b5b0492506010810190505b6305f5e10083106122d9576305f5e10083816122cf576122ce61387f565b5b0492506008810190505b61271083106122fe5761271083816122f4576122f361387f565b5b0492506004810190505b6064831061232157606483816123175761231661387f565b5b0492506002810190505b600a8310612330576001810190505b80915050919050565b828054828255906000526020600020908101928215612375579160200282015b82811115612374578251825591602001919060010190612359565b5b50905061238291906123c6565b5090565b508054612392906129cc565b6000825580601f106123a457506123c3565b601f0160209004906000526020600020908101906123c291906123c6565b5b50565b5b808211156123df5760008160009055506001016123c7565b5090565b6000604051905090565b600080fd5b600080fd5b60007fffffffff0000000000000000000000000000000000000000000000000000000082169050919050565b61242c816123f7565b811461243757600080fd5b50565b60008135905061244981612423565b92915050565b600060208284031215612465576124646123ed565b5b60006124738482850161243a565b91505092915050565b60008115159050919050565b6124918161247c565b82525050565b60006020820190506124ac6000830184612488565b92915050565b600081519050919050565b600082825260208201905092915050565b60005b838110156124ec5780820151818401526020810190506124d1565b60008484015250505050565b6000601f19601f8301169050919050565b6000612514826124b2565b61251e81856124bd565b935061252e8185602086016124ce565b612537816124f8565b840191505092915050565b6000602082019050818103600083015261255c8184612509565b905092915050565b6000819050919050565b61257781612564565b811461258257600080fd5b50565b6000813590506125948161256e565b92915050565b6000602082840312156125b0576125af6123ed565b5b60006125be84828501612585565b91505092915050565b600073ffffffffffffffffffffffffffffffffffffffff82169050919050565b60006125f2826125c7565b9050919050565b612602816125e7565b82525050565b600060208201905061261d60008301846125f9565b92915050565b61262c816125e7565b811461263757600080fd5b50565b60008135905061264981612623565b92915050565b60008060408385031215612666576126656123ed565b5b60006126748582860161263a565b925050602061268585828601612585565b9150509250929050565b61269881612564565b82525050565b60006020820190506126b3600083018461268f565b92915050565b6000806000606084860312156126d2576126d16123ed565b5b60006126e08682870161263a565b93505060206126f18682870161263a565b925050604061270286828701612585565b9150509250925092565b600060208284031215612722576127216123ed565b5b60006127308482850161263a565b91505092915050565b6127428161247c565b811461274d57600080fd5b50565b60008135905061275f81612739565b92915050565b6000806040838503121561277c5761277b6123ed565b5b600061278a8582860161263a565b925050602061279b85828601612750565b9150509250929050565b600080fd5b600080fd5b7f4e487b7100000000000000000000000000000000000000000000000000000000600052604160045260246000fd5b6127e7826124f8565b810181811067ffffffffffffffff82111715612806576128056127af565b5b80604052505050565b60006128196123e3565b905061282582826127de565b919050565b600067ffffffffffffffff821115612845576128446127af565b5b61284e826124f8565b9050602081019050919050565b82818337600083830152505050565b600061287d6128788461282a565b61280f565b905082815260208101848484011115612899576128986127aa565b5b6128a484828561285b565b509392505050565b600082601f8301126128c1576128c06127a5565b5b81356128d184826020860161286a565b91505092915050565b600080600080608085870312156128f4576128f36123ed565b5b60006129028782880161263a565b94505060206129138782880161263a565b935050604061292487828801612585565b925050606085013567ffffffffffffffff811115612945576129446123f2565b5b612951878288016128ac565b91505092959194509250565b60008060408385031215612974576129736123ed565b5b60006129828582860161263a565b92505060206129938582860161263a565b9150509250929050565b7f4e487b7100000000000000000000000000000000000000000000000000000000600052602260045260246000fd5b600060028204905060018216806129e457607f821691505b6020821081036129f7576129f661299d565b5b50919050565b7f4552433732313a20617070726f76616c20746f2063757272656e74206f776e6560008201527f7200000000000000000000000000000000000000000000000000000000000000602082015250565b6000612a596021836124bd565b9150612a64826129fd565b604082019050919050565b60006020820190508181036000830152612a8881612a4c565b9050919050565b7f4552433732313a20617070726f76652063616c6c6572206973206e6f7420746f60008201527f6b656e206f776e6572206f7220617070726f76656420666f7220616c6c000000602082015250565b6000612aeb603d836124bd565b9150612af682612a8f565b604082019050919050565b60006020820190508181036000830152612b1a81612ade565b9050919050565b7f4552433732313a2063616c6c6572206973206e6f7420746f6b656e206f776e6560008201527f72206f7220617070726f76656400000000000000000000000000000000000000602082015250565b6000612b7d602d836124bd565b9150612b8882612b21565b604082019050919050565b60006020820190508181036000830152612bac81612b70565b9050919050565b7f4552433732313a20696e76616c696420746f6b656e2049440000000000000000600082015250565b6000612be96018836124bd565b9150612bf482612bb3565b602082019050919050565b60006020820190508181036000830152612c1881612bdc565b9050919050565b7f4552433732313a2061646472657373207a65726f206973206e6f74206120766160008201527f6c6964206f776e65720000000000000000000000000000000000000000000000602082015250565b6000612c7b6029836124bd565b9150612c8682612c1f565b604082019050919050565b60006020820190508181036000830152612caa81612c6e565b9050919050565b7f4e6f207469656e6573207469636b65747320737566696369656e746573000000600082015250565b6000612ce7601d836124bd565b9150612cf282612cb1565b602082019050919050565b60006020820190508181036000830152612d1681612cda565b9050919050565b7f4e487b7100000000000000000000000000000000000000000000000000000000600052601160045260246000fd5b6000612d5782612564565b9150612d6283612564565b9250828203905081811115612d7a57612d79612d1d565b5b92915050565b7f4e487b7100000000000000000000000000000000000000000000000000000000600052603260045260246000fd5b7f4e487b7100000000000000000000000000000000000000000000000000000000600052603160045260246000fd5b6000612de982612564565b91507fffffffffffffffffffffffffffffffffffffffffffffffffffffffffffffffff8203612e1b57612e1a612d1d565b5b600182019050919050565b6000612e3182612564565b9150612e3c83612564565b9250828202612e4a81612564565b91508282048414831517612e6157612e60612d1d565b5b5092915050565b7f53616c646f20696e737566696369656e74650000000000000000000000000000600082015250565b6000612e9e6012836124bd565b9150612ea982612e68565b602082019050919050565b60006020820190508181036000830152612ecd81612e91565b9050919050565b7f4c6f2073656e74696d6f732c20736f6c6f2070756564657320636f6d7072617260008201527f20756e207469636b657400000000000000000000000000000000000000000000602082015250565b6000612f30602a836124bd565b9150612f3b82612ed4565b604082019050919050565b60006020820190508181036000830152612f5f81612f23565b9050919050565b7f5961207469656e657320756e207469636b65742c206e6f20657320706f73696260008201527f6c6520636f6d70726172206d6173000000000000000000000000000000000000602082015250565b6000612fc2602e836124bd565b9150612fcd82612f66565b604082019050919050565b60006020820190508181036000830152612ff181612fb5565b9050919050565b600081905092915050565b600061300e826124b2565b6130188185612ff8565b93506130288185602086016124ce565b80840191505092915050565b60006130408285613003565b915061304c8284613003565b91508190509392505050565b7f4f776e61626c653a206e6577206f776e657220697320746865207a65726f206160008201527f6464726573730000000000000000000000000000000000000000000000000000602082015250565b60006130b46026836124bd565b91506130bf82613058565b604082019050919050565b600060208201905081810360008301526130e3816130a7565b9050919050565b7f4552433732313a207472616e736665722066726f6d20696e636f72726563742060008201527f6f776e6572000000000000000000000000000000000000000000000000000000602082015250565b60006131466025836124bd565b9150613151826130ea565b604082019050919050565b6000602082019050818103600083015261317581613139565b9050919050565b7f4552433732313a207472616e7366657220746f20746865207a65726f2061646460008201527f7265737300000000000000000000000000000000000000000000000000000000602082015250565b60006131d86024836124bd565b91506131e38261317c565b604082019050919050565b60006020820190508181036000830152613207816131cb565b9050919050565b7f4f776e61626c653a2063616c6c6572206973206e6f7420746865206f776e6572600082015250565b60006132446020836124bd565b915061324f8261320e565b602082019050919050565b6000602082019050818103600083015261327381613237565b9050919050565b6000819050919050565b61329561329082612564565b61327a565b82525050565b60006132a78284613284565b60208201915081905092915050565b7f4552433732313a20617070726f766520746f2063616c6c657200000000000000600082015250565b60006132ec6019836124bd565b91506132f7826132b6565b602082019050919050565b6000602082019050818103600083015261331b816132df565b9050919050565b7f4552433732313a207472616e7366657220746f206e6f6e20455243373231526560008201527f63656976657220696d706c656d656e7465720000000000000000000000000000602082015250565b600061337e6032836124bd565b915061338982613322565b604082019050919050565b600060208201905081810360008301526133ad81613371565b9050919050565b7f4552433732313a206d696e7420746f20746865207a65726f2061646472657373600082015250565b60006133ea6020836124bd565b91506133f5826133b4565b602082019050919050565b60006020820190508181036000830152613419816133dd565b9050919050565b7f4552433732313a20746f6b656e20616c7265616479206d696e74656400000000600082015250565b6000613456601c836124bd565b915061346182613420565b602082019050919050565b6000602082019050818103600083015261348581613449565b9050919050565b7f45524337323155524953746f726167653a2055524920736574206f66206e6f6e60008201527f6578697374656e7420746f6b656e000000000000000000000000000000000000602082015250565b60006134e8602e836124bd565b91506134f38261348c565b604082019050919050565b60006020820190508181036000830152613517816134db565b9050919050565b60008190508160005260206000209050919050565b60006020601f8301049050919050565b600082821b905092915050565b6000600883026135807fffffffffffffffffffffffffffffffffffffffffffffffffffffffffffffffff82613543565b61358a8683613543565b95508019841693508086168417925050509392505050565b6000819050919050565b60006135c76135c26135bd84612564565b6135a2565b612564565b9050919050565b6000819050919050565b6135e1836135ac565b6135f56135ed826135ce565b848454613550565b825550505050565b600090565b61360a6135fd565b6136158184846135d8565b505050565b5b818110156136395761362e600082613602565b60018101905061361b565b5050565b601f82111561367e5761364f8161351e565b61365884613533565b81016020851015613667578190505b61367b61367385613533565b83018261361a565b50505b505050565b600082821c905092915050565b60006136a160001984600802613683565b1980831691505092915050565b60006136ba8383613690565b9150826002028217905092915050565b6136d3826124b2565b67ffffffffffffffff8111156136ec576136eb6127af565b5b6136f682546129cc565b61370182828561363d565b600060209050601f8311600181146137345760008415613722578287015190505b61372c85826136ae565b865550613794565b601f1984166137428661351e565b60005b8281101561376a57848901518255600182019150602085019450602081019050613745565b868310156137875784890151613783601f891682613690565b8355505b6001600288020188555050505b505050505050565b600081519050919050565b600082825260208201905092915050565b60006137c38261379c565b6137cd81856137a7565b93506137dd8185602086016124ce565b6137e6816124f8565b840191505092915050565b600060808201905061380660008301876125f9565b61381360208301866125f9565b613820604083018561268f565b818103606083015261383281846137b8565b905095945050505050565b60008151905061384c81612423565b92915050565b600060208284031215613868576138676123ed565b5b60006138768482850161383d565b91505092915050565b7f4e487b7100000000000000000000000000000000000000000000000000000000600052601260045260246000fdfea2646970667358221220ce88a61570917bd50f7e3008f2db285fa7ac2064b2ac0a49408f190fb0c0824c64736f6c63430008130033",
  "immutableReferences": {},
  "source": "// SPDX-License-Identifier: MIT\r\npragma solidity >=0.8.0 <0.9.0;\r\n\r\nimport \"@openzeppelin/contracts/token/ERC721/extensions/ERC721URIStorage.sol\";\r\nimport \"@openzeppelin/contracts/access/Ownable.sol\";\r\nimport \"@openzeppelin/contracts/utils/Counters.sol\";\r\n\r\ncontract Ticket is ERC721URIStorage, Ownable {\r\n    using Counters for Counters.Counter;\r\n    Counters.Counter private tokenIdCounter;\r\n\r\n    uint256 public ticketPrice = 1 ether;\r\n    mapping(address => uint256[]) public ticketHolders;\r\n\r\n    constructor() ERC721(\"TicketNFT\", \"TICKET\") {\r\n    }\r\n\r\n    function buyTickets(address _user, uint256 _amount) payable public {\r\n        require(msg.value >= ticketPrice * _amount, \"Saldo insuficiente\");\r\n        require(_amount == 1, \"Lo sentimos, solo puedes comprar un ticket\");\r\n        require(ticketHolders[msg.sender].length == 0, \"Ya tienes un ticket, no es posible comprar mas\");\r\n        uint256[] memory tokenIds = _mintNFTs(_user, _amount);\r\n        ticketHolders[_user] = tokenIds;\r\n    }\r\n\r\n    function useTickets(address _user, uint256 _amount) public {\r\n        require(ticketHolders[_user].length >= _amount, \"No tienes tickets suficientes\");\r\n        \r\n        for (uint256 i = 0; i < _amount; i++) {\r\n            uint256 tokenId = ticketHolders[_user][ticketHolders[_user].length - 1];\r\n            ticketHolders[_user].pop();\r\n            _burn(tokenId);\r\n        }\r\n    }\r\n\r\n    function _mintNFTs(address _user, uint256 _amount) internal returns (uint256[] memory) {\r\n        require(_amount == 1, \"Lo sentimos, solo puedes comprar un ticket\"); \r\n        uint256[] memory newTokenIds = new uint256[](_amount);\r\n        \r\n        for (uint256 i = 0; i < _amount; i++) {\r\n            uint256 tokenId = tokenIdCounter.current();\r\n            _mint(_user, tokenId);\r\n            _setTokenURI(tokenId, string(abi.encodePacked(tokenId)));\r\n            tokenIdCounter.increment();\r\n            newTokenIds[i] = tokenId;\r\n        }\r\n        \r\n        return newTokenIds;\r\n    }\r\n}\r\n\r\ncontract TicketAsset {\r\n    string public eventName;\r\n    string public eventOrganizer;\r\n    string public eventCategory;\r\n    address public eventOwner;\r\n    uint256 public price;\r\n\r\n    constructor(\r\n        string memory _eventName,\r\n        string memory _eventOrganizer,\r\n        string memory _eventCategory,\r\n        address _owner,\r\n        uint256 _price\r\n    ) {\r\n        eventName = _eventName;\r\n        eventOrganizer = _eventOrganizer;\r\n        eventCategory = _eventCategory;\r\n        eventOwner = _owner;\r\n        price = _price;\r\n    }\r\n\r\n    function buyTicket() public payable returns (bool) {\r\n        require(msg.value == price, \"Invalid payment\");\r\n        payable(eventOwner).transfer(msg.value);\r\n        eventOwner = msg.sender;\r\n        return true;\r\n    }\r\n\r\n    function getPrice() public view returns (uint256) {\r\n        return price;\r\n    }\r\n}\r\n",
  "sourcePath": "D:\\Documentos\\BLOCKCHAIN\\Doble Grado BlockChain\\Blockchain Engineering\\TFM - Enginering - SEP 2023\\BLOCKTICK ETHEREUM\\BLOCKTICK\\Ethereum-Blocktick\\contracts\\blockTick.sol",
  "compiler": {
    "name": "solc",
    "version": "0.8.19+commit.7dd6d404.Emscripten.clang"
  },
  "schemaVersion": "3.4.13",
  "updatedAt": "2023-08-09T21:06:20.889Z",
  "devdoc": {
    "events": {
      "Approval(address,address,uint256)": {
        "details": "Emitted when `owner` enables `approved` to manage the `tokenId` token."
      },
      "ApprovalForAll(address,address,bool)": {
        "details": "Emitted when `owner` enables or disables (`approved`) `operator` to manage all of its assets."
      },
      "BatchMetadataUpdate(uint256,uint256)": {
        "details": "This event emits when the metadata of a range of tokens is changed. So that the third-party platforms such as NFT market could timely update the images and related attributes of the NFTs."
      },
      "MetadataUpdate(uint256)": {
        "details": "This event emits when the metadata of a token is changed. So that the third-party platforms such as NFT market could timely update the images and related attributes of the NFT."
      },
      "Transfer(address,address,uint256)": {
        "details": "Emitted when `tokenId` token is transferred from `from` to `to`."
      }
    },
    "kind": "dev",
    "methods": {
      "approve(address,uint256)": {
        "details": "See {IERC721-approve}."
      },
      "balanceOf(address)": {
        "details": "See {IERC721-balanceOf}."
      },
      "getApproved(uint256)": {
        "details": "See {IERC721-getApproved}."
      },
      "isApprovedForAll(address,address)": {
        "details": "See {IERC721-isApprovedForAll}."
      },
      "name()": {
        "details": "See {IERC721Metadata-name}."
      },
      "owner()": {
        "details": "Returns the address of the current owner."
      },
      "ownerOf(uint256)": {
        "details": "See {IERC721-ownerOf}."
      },
      "renounceOwnership()": {
        "details": "Leaves the contract without owner. It will not be possible to call `onlyOwner` functions. Can only be called by the current owner. NOTE: Renouncing ownership will leave the contract without an owner, thereby disabling any functionality that is only available to the owner."
      },
      "safeTransferFrom(address,address,uint256)": {
        "details": "See {IERC721-safeTransferFrom}."
      },
      "safeTransferFrom(address,address,uint256,bytes)": {
        "details": "See {IERC721-safeTransferFrom}."
      },
      "setApprovalForAll(address,bool)": {
        "details": "See {IERC721-setApprovalForAll}."
      },
      "supportsInterface(bytes4)": {
        "details": "See {IERC165-supportsInterface}"
      },
      "symbol()": {
        "details": "See {IERC721Metadata-symbol}."
      },
      "tokenURI(uint256)": {
        "details": "See {IERC721Metadata-tokenURI}."
      },
      "transferFrom(address,address,uint256)": {
        "details": "See {IERC721-transferFrom}."
      },
      "transferOwnership(address)": {
        "details": "Transfers ownership of the contract to a new account (`newOwner`). Can only be called by the current owner."
      }
    },
    "version": 1
  },
  "userdoc": {
    "kind": "user",
    "methods": {},
    "version": 1
  }
}